S00F0000636D342020202020202000000C
S3150801000088A601088F0001082101010829010108B4
S3150801001045010108490101084D01010800000000D8
S315080100200000000000000000000000005101010866
S315080100306D01010800000000710101087501010840
S315080100406D030108C3030108110401085F040108CF
S31508010050AD040108FB0401084905010897050108D3
S31508010060790101087D01010881010108850101085D
S31508010070890101088D01010891010108950101080D
S31508010080EFF3108072B6704780F31088704772B626
S31508010090134814490860BFF34F8F00200021144A02
S315080100A0E2E802016A45FBD10F4FB847124DA5F1A7
S315080100B001057A46A2EB05054FF0000083460F4875
S315080100C028444FF000014FF000024FF000034FF0B3
S315080100D000044FF000054FF00006044FB847FEE74D
S315080100E00000010808ED00E0A1010108BB7901083B
S315080100F088A5010887A60108B700010800010108BB
S315080101000100000080000108C0840108E88F010889
S3150801011000000000000000000000000000000000D0
S31508010120FFF7FEBFFFF7FEBF04207146084200F045
S315080101300480EFF3098000F002B8EFF3088000B5F8
S3150801014015498847FFF7F0BFFFF7EEBFFFF7ECBF8A
S3150801015004207146084200F00280EFF30980EFF3AC
S31508010160088000B50D49884700BD00BFFFF7FEBFEF
S31508010170FFF7FEBFFFF7FEBFFFF7FEBFFFF7FEBFA4
S31508010180FFF7FEBFFFF7FEBFFFF7FEBFFFF7FEBF94
S31508010190FFF7FEBFFFF7FEBF311F0108F11F010878
S315080101A000B500F08BFA00F003F800F08CF800BDFA
S315080101B02DE9704182B040F2F006C0F6010648F218
S315080101C0C042C0F6010292E803008DE8030000254B
S315080101D012E0694601EBC500006810F0070F00D070
S315080101E0FEE7694601EBC5004068401C10F0070FA1
S315080101F000D0FEE7681CC5B2002DEAD0306810F0C1
S31508010200070F00D0FEE740F2F401C0F601010868C5
S31508010210401C10F0070F00D0FEE7002440E06946B5
S3150801022001EBC400006880B16A4602EBC40132687A
S3150801023009680020914211D86A4602EBC401326866
S315080102404968914228BF012008E0694601EBC400CC
S315080102503168406888422CBF01200020A0B130686F
S315080102606A46411E02EBC400006800F01EF86946A2
S3150801027001EBC40040F2F402C0F6010241681068BD
S31508010280401C00F012F809E0694601EBC400416818
S315080102906A4602EBC400006800F007F8601CC4B2A5
S315080102A0002CBCD002B0BDE87081F0B407468C467C
S315080102B03C4600252E4602E0C4E90056083464454A
S315080102C0FAD3F0BC70472DE9300140F28000C0F244
S315080102D000008008C3B24AF20001C0F6010140F2EB
S315080102E00002C0F60102002009E04FEA800C52F82C
S315080102F00C4041F80C4000F1010C5FFA8CF0984271
S31508010300F3D34EF60858CEF20008C8F80010BDE837
S315080103103001704700B500F065F962B600F006F8DD
S3150801032000F00CF800BF00F048FBFCE700B500F050
S31508010330FCF900F007FE00F06FFC00BD49F25670AB
S31508010340C0F60100417A41F001014172417C41F058
S3150801035001014174417E41F00101417690F8211075
S3150801036041F0010180F821107047FEE72DE910419F
S3150801037081B048F6E874C0F6010448F2C841C0F6EF
S3150801038001010868009040F20018C4F22008D8F864
S3150801039000000090009810F0004F08D0009848F629
S315080103A0EC71C0F601018005000D0858804701204F
S315080103B04EF28028CEF20008C8F8000001B0BDE868
S315080103C010812DE9004181B048F2CC41C0F6010106
S315080103D00868009040F20418C4F22008D8F8000012
S315080103E00090009810F0004F08D0009848F6EC717C
S315080103F0C0F601018005000D0858804702204EF21B
S315080104008028CEF20008C8F8000001B0BDE80081D6
S315080104102DE9004181B048F2D041C0F601010868D2
S31508010420009040F20818C4F22008D8F8000000909D
S31508010430009810F0004F08D0009848F6EC71C0F605
S3150801044001018005000D0858804704204EF28028D6
S31508010450CEF20008C8F8000001B0BDE800812DE918
S31508010460004181B048F2D441C0F601010868009004
S3150801047040F20C18C4F22008D8F800000090009841
S3150801048010F0004F08D0009848F6EC71C0F601014B
S315080104908005000D0858804708204EF28028CEF2C4
S315080104A00008C8F8000001B0BDE800812DE9004147
S315080104B081B048F2D841C0F601010868009040F2BF
S315080104C01018C4F22008D8F800000090009810F01F
S315080104D0004F08D0009848F6EC71C0F60101800576
S315080104E0000D0858804710204EF28028CEF20008E9
S315080104F0C8F8000001B0BDE800812DE9004181B0CE
S3150801050048F2DC41C0F601010868009040F214186F
S31508010510C4F22008D8F800000090009810F0004FA7
S3150801052008D0009848F6EC71C0F601018005000D67
S315080105300858804720204EF28028CEF20008C8F8D5
S31508010540000001B0BDE800812DE9004181B048F203
S31508010550E041C0F601010868009040F21818C4F29B
S315080105602008D8F800000090009810F0004F08D035
S31508010570009848F6EC71C0F601018005000D08588F
S31508010580804740204EF28028CEF20008C8F80000C5
S3150801059001B0BDE800812DE9004181B048F2E4418E
S315080105A0C0F601010868009040F21C18C4F2200840
S315080105B0D8F800000090009810F0004F08D0009875
S315080105C048F6EC71C0F601018005000D0858804710
S315080105D080204EF28028CEF20008C8F8000001B04B
S315080105E0BDE8008100B500F001F800BD2DE93041F4
S315080105F086B049F26864C0F601046A4648F2E845DD
S31508010600C0F601050BCD0BC295E80B0082E80B007D
S31508010610684605F038FF05469DB148F20051C0F617
S31508010620010149F6B430C0F60100182206F0E6FECB
S315080106304A2049F6B031C0F601010860002001F0F0
S3150801064061FC00BF201D06F019FB05469DB148F265
S315080106500051C0F6010149F6B430C0F6010018226E
S3150801066006F0CCFE4C2049F6B031C0F6010108600F
S31508010670002001F047FC00BF60682060206844F252
S315080106803F21C0F20F0108444DF68361C4F21B31C4
S31508010690A0FB0110800C2073206840F2E731084462
S315080106A044F6D351C1F26201A0FB01108009A06092
S315080106B0A068C003206106B0BDE830812DE910416C
S315080106C0FFF7DEFC04464EF68858CEF20008D8F845
S315080106D0000040F47000C8F80000BFF34F8FBFF365
S315080106E06F8F2046FFF7D0FCBDE8108110B449F2A0
S315080106F07C64C0F60104206800F580302060012082
S31508010700208010BC704700B540F20000C4F23800E2
S3150801071001F06EF9012805D140F20000C4F2380053
S3150801072001F07EF9FFF7E2FF00BD2DE9F04D83B038
S3150801073049F27054C0F6010440F2000AC4F2380ABC
S3150801074040F67C4BC4F2000B4BF20046C0F2C4469D
S3150801075048F28047C0F21E07B6FBF7F5B6FBF7F07D
S3150801076007FB106098B148F23051C0F6010149F60D
S31508010770B430C0F60100182206F040FEB92049F649
S31508010780B031C0F601010860002001F0BBFB00BFD3
S315080107900120401E0020012800D10CE0DBF80000F2
S315080107A00121009061F30920009000208DF80000D6
S315080107B00098CBF800000120401E0020012800D136
S315080107C00BE0681EB0F5803F07D2DBF88407691E87
S315080107D061F31720CBF88407FFE70120401E0020AC
S315080107E0012800D11DE040F20048C4F20008D8F8FB
S315080107F00000019040F00040019040F040700190E7
S31508010800FF208DF806000198012161F30920019066
S3150801081000208DF804000198C8F80000D8F80000F7
S315080108200290204601F09DFC40F20771C0F60101D5
S31508010830B4F9000001F000FDB4F90200002807DB55
S315080108404EF20041CEF2000108446021017009E030
S3150801085010F00F00001F4EF61851CEF200010844A1
S3150801086060210170B4F9020000280EDBB4F90220F8
S315080108704EF20011CEF20001500901EB800002F0A0
S315080108801F01012202FA01F1016048F25851C0F62E
S315080108900101504600F0FCFE504600F0F1FF5046BB
S315080108A001F08EF8504601F0D6F84FF47A7000F050
S315080108B003F803B0BDE8F08D10B4044649F27C6133
S315080108C0C0F6010100220A6064228A800C8110BCEC
S315080108D070474DF8048D49F27C60C0F6010001218C
S315080108E0C1804188C90701D40221C180428846F2E4
S315080108F06761C6F2666151FB02F18910A1EBE271EB
S315080109000A2303FB112109B90A21C180428848F249
S315080109101F51C5F2EB1151FB02F10911A1EBE2716D
S31508010920322303FB112109B93221C180428848F2D9
S315080109301F51C5F2EB1151FB02F14911A1EBE2710D
S31508010940642303FB112109B96421C180428848F255
S315080109501F51C5F2EB1151FB02F18911A1EBE271AD
S31508010960C82303FB112109B9C821C180428844F66D
S31508010970D351C1F2620151FB02F14FF4FA734911E5
S31508010980A1EBE27103FB112111B94FF4FA71C18090
S31508010990428844F6D351C1F2620151FB02F14FF488
S315080109A07A738911A1EBE27103FB112111B94FF495
S315080109B07A71C1805DF8048B704710B549F27C6481
S315080109C0C0F6010460882189884201D90120608026
S315080109D0208801286AD100202080FFF77AFFE08865
S315080109E0643809D2323021D0283018D0083011D0D5
S315080109F0B0F1FF3F0BD058E0001E20D0643829D053
S31508010A00B0F5967033D0B0F5FA7F3DD04DE000F0E1
S31508010A104EF84BE000F04BF800F051F846E000F0D4
S31508010A2046F800F04CF800F04BF83FE000F03FF8CC
S31508010A3000F045F800F044F800F04AF836E000F016
S31508010A4036F800F03CF800F03BF800F041F800F009
S31508010A5047F82BE000F02BF800F031F800F030F8F9
S31508010A6000F036F800F03CF800F042F81EE000F01D
S31508010A701EF800F024F800F023F800F029F800F039
S31508010A802FF800F03DF811E000F011F800F017F822
S31508010A9000F016F800F01CF800F022F800F028F82B
S31508010AA000F02EF800F045F800E000BF10BD49F24D
S31508010AB08861C0F601010868401C086070477047E4
S31508010AC049F28861C0F601014868401C48607047D0
S31508010AD049F28861C0F601018868401C8860704740
S31508010AE049F28861C0F60101C868401CC8607047B0
S31508010AF049F28861C0F601010869401C086170471E
S31508010B0030B549F27454C0F60104A51CA07820B189
S31508010B100020A07000F00EFC03E00120A07000F098
S31508010B2061FD49F28861C0F601014869401C4861C6
S31508010B3030BD49F28861C0F601018869401C8861A7
S31508010B40704700B549F2A461C0F6010140F2000000
S31508010B50C4F2600002F0C6FB00BD2DE9F04B85B07A
S31508010B600390049101920293DDF80480DDF8089060
S31508010B704FEA48154FEA48154FEA491C4CEAD86C22
S31508010B806646664628463146039A049B07F014F9D9
S31508010B90844664464FF0020C9DF83470BCF1020F8E
S31508010BA000D004E0082F05D34FF0010C04E04FF004
S31508010BB0010C01E04FF0000CBCF1010F00D128E057
S31508010BC0C4F34B1CACF1010CBCF1807F21D204F0BB
S31508010BD01F0CBCF11F0F1CD841F6004BC4F2000BC9
S31508010BE00BEB870EC4F34B1CACF1010BDEF800C00E
S31508010BF06BF31F2CCEF800C041F6004CC4F2000C72
S31508010C000CEB870BDBF8007064F3C707CBF80070B1
S31508010C10FFE705B0BDE8F08B2DE9704184B049F2D4
S31508010C20A464C0F6010449F27855C0F6010504F139
S31508010C304C060320401E022801D0012000E00020B6
S31508010C40012800D10FE040F65048C4F20008D8F850
S31508010C500000019040F44070019001208DF80400D5
S31508010C600198C8F80000012000904BF20042C0F23A
S31508010C70C4420023194644F64030C0F24C00FFF73F
S31508010C806CFF0320401E022801D0012000E000204D
S31508010C90012800D11CE040F20048C4F20008D8F847
S31508010CA00000029040F00040029040F0407002902F
S31508010CB0FF208DF80A00029840F440700290012046
S31508010CC08DF808000298C8F80000D8F800000390CB
S31508010CD00C2020650E2084F85400324640F20000AC
S31508010CE0C4F23100032103F01AF90C2020650E2005
S31508010CF084F85400324640F20000C4F23100022161
S31508010D0003F00DF9284601F02CFA40F64331C0F6F6
S31508010D100101B5F9000001F08FFAB5F902000028C2
S31508010D2007DB4EF20041CEF2000108446021017052
S31508010D3009E010F00F00001F4EF61851CEF200011F
S31508010D40084460210170B5F9020000280EDBB5F9E7
S31508010D5002204EF20011CEF20001500901EB80008B
S31508010D6002F01F01012202FA01F1016040F20000BE
S31508010D70C4F2600001F014FC224648F2C051C0F6E4
S31508010D80010140F20000C4F2600001F00AFB44F6DA
S31508010D904032C0F24C024DF29001C0F2030140F21A
S31508010DA00000C4F2600001F0DDFC0020606440F23E
S31508010DB00008C4F26008D8F8000040F00040C8F8FE
S31508010DC0000004B0BDE870812DE9F04C82B040F214
S31508010DD00006C4F2600649F2A46AC0F6010A8DF853
S31508010DE004008DF80510ADF8062000244FF0000B1D
S31508010DF000270025D6F80832DB05FBD19DF804301B
S31508010E005B1E0DD305D09B1E05D306D0012B06D03C
S31508010E1006E0602404E0512402E0402400E0412475
S31508010E20CDF800A0214630464FF4FA63002202F0BD
S31508010E304AF89DF805B05346594630464FF4FA62CA
S31508010E4002F01CFABDF8067007F0FF05534629465D
S31508010E5030464FF4FA6202F011FA3B0A03F0FF0535
S31508010E605346294630464FF4FA6202F007FA5246CB
S31508010E7030464FF4FA6102F044F902B0BDE8F08C4D
S31508010E802DE9F04C82B0834640F20006C4F26006B2
S31508010E9049F2A467C0F601078DF8071000244FF040
S31508010EA0000A002500228DF80620BBF101020DD3A8
S31508010EB005D0921E05D306D0012A06D006E0602485
S31508010EC004E0512402E0402400E041240097214631
S31508010ED030464FF4FA63002201F0F5FF9DF807A0AA
S31508010EE03B46514630464FF4FA6202F0C7F900977D
S31508010EF0214630464FF4FA63012202F063F800975F
S31508010F000DF1060230464FF4FA63012102F05BF94E
S31508010F109DF8065000970DF1060230464FF4FA6324
S31508010F20022102F050F99DF80620120215433A46AD
S31508010F3030464FF4FA6102F015F92A46104602B016
S31508010F40BDE8F08C2DE9704185B04EF20015CEF260
S31508010F50000540F62046C4F200064FF0FF30002097
S31508010F60012800D109E0306800906FF3092000904C
S31508010F7000208DF80000009830604FF0FF30002007
S31508010F80012800D106E0D6F8E003012161F30F201C
S31508010F90C6F8E0034FF0FF300020012800D11CE01D
S31508010FA040F20048C4F20008D8F80000019040F069
S31508010FB00040019040F040700190FF208DF8060036
S31508010FC001986FF30920019000208DF8040001981B
S31508010FD0C8F80000D8F80000029040F20040C4F2B8
S31508010FE0520003F0F5FE00241EE0C4EB041048F29B
S31508010FF0CC510B46C0F6010101EB800000F1080255
S31508011000C4EB041048F2CC51C0F6010101EB800093
S315080110100179C0F60103C4EB041003EB80000068F4
S3150801102002F07DFF601CC4B2022CDED348F2446094
S31508011030C0F601000288ADF80C204288ADF80E20F2
S315080110408088ADF8100003A801F08BF841F2EB2176
S31508011050C0F60101BDF90C0001F0EEF8002185F892
S3150801106003130821C5F880110820286049F2805128
S31508011070C0F6010140F20040C4F2520003F00DFB34
S3150801108005B0BDE870812DE9F04C83B0934649F26D
S315080110902476C0F6010649F22574C0F6010449F220
S315080110A05675C0F601058DF802008DF80310DA466B
S315080110B00AF10C0101A8082206F0A1FBDAF80420BE
S315080110C0B2F5846F40F008819DF80B7017F0070799
S315080110D07B1EC0F0018106D09B1E3FD379D0012B20
S315080110E000F0B180F8E09DF8042022729DF80520F1
S315080110F062729DF80620A2729DF80720E2729DF899
S31508011100082022739DF8092062739DF80A20A273AC
S31508011110E37B012060F30203E373EB7B012060F3B9
S315080111200203EB739DF80B20E37B02F0080203F040
S31508011130F7031343E3739DF80B20EB7B02F00802D8
S3150801114003F0F7031343EB73E27B12F0080F00F089
S31508011150C380327842F001023270BDE09DF8042066
S3150801116022749DF8052062749DF80620A2749DF8E4
S315080111700720E2749DF8082022759DF809206275FA
S315080111809DF80A20A275E37D022060F30203E37548
S31508011190EB7D022060F30203EB759DF80B20E37DDE
S315080111A002F0080203F0F7031343E3759DF80B20D9
S315080111B0EB7D02F0080203F0F7031343EB75E27DBA
S315080111C012F0080F00F08880327842F0020232707D
S315080111D082E09DF8042022769DF8052062769DF826
S315080111E00620A2769DF80720E2769DF80820227748
S315080111F09DF8092062779DF80A20A277E37F0320EC
S3150801120060F30203E377EB7F032060F30203EB77D6
S315080112109DF80B20E37F02F0080203F0F70313435E
S31508011220E3779DF80B20EB7F02F0080203F0F70342
S315080112301343EB77E27F12F0080F4DD0327842F074
S315080112400402327048E09DF8042084F820209DF8B5
S31508011250052084F821209DF8062084F822209DF88F
S31508011260072084F823209DF8082084F824209DF877
S31508011270092084F825209DF80A2084F8262094F868
S315080112802730042060F3020384F8273095F82730C5
S31508011290042060F3020385F827309DF80B2094F8A3
S315080112A0273002F0080203F0F703134384F82730C6
S315080112B09DF80B2095F8273002F0080203F0F70392
S315080112C0134385F8273094F8272012F0080F03D026
S315080112D0327842F00802327003B0BDE8F08C70B47F
S315080112E004460D46164670BC704700B540F20040EC
S315080112F0C4F2520003F0ADF800BD70B594B00546CE
S315080113000E46144600238DF8003000238DF8083068
S315080113108DF84C4001952246314603A806F06FFA2E
S315080113206A4640F20040C4F25200002103F0D6FD9D
S3150801133014B070BD2DE9F04581B049F24E7AC0F678
S31508011340010A49F25676C0F6010648F26461C0F60A
S3150801135001010888ADF8000048F26661C0F601018E
S315080113600888ADF802000124ECE049F22572C0F6BE
S31508011370010202EBC400007806EBC401087049F2C9
S315080113802571C0F6010101EBC400C07910F0080F00
S3150801139000F0D680E00049F22571C0F601010F5C24
S315080113A0F80701D4B80741D506EBC40040788DF893
S315080113B0000006EBC40080788DF8010049F225711A
S315080113C0C0F6010101EBC40040788DF8020049F22C
S315080113D02571C0F6010101EBC40080788DF8030080
S315080113E09DF800009DF80210884205D19DF801007C
S315080113F09DF8031088420BD09DF803009DF8021052
S31508011400000240EA01052A4620460321FFF7DCFCD3
S3150801141020460321FFF734FD054606EBC40029469D
S31508011420417006EBC400C5F307218170780701D422
S31508011430380741D506EBC400C0788DF8000006EBE5
S31508011440C40000798DF8010049F22571C0F6010141
S3150801145001EBC400C0788DF8020049F22571C0F687
S31508011460010101EBC40000798DF803009DF8000025
S315080114709DF80210884205D19DF801009DF80310D8
S3150801148088420BD09DF803009DF80210000240EA3D
S3150801149001052A4620460421FFF796FC2046042129
S315080114A0FFF7EEFC054606EBC4002946C17006EBBC
S315080114B0C400C5F307210171F80641D506EBC4003E
S315080114C040798DF8000006EBC40080798DF801009B
S315080114D049F22571C0F6010101EBC40040798DF886
S315080114E0020049F22571C0F6010101EBC4008079B9
S315080114F08DF803009DF800009DF80210884205D179
S315080115009DF801009DF8031088420BD09DF8030051
S315080115109DF80210000240EA01052A4620460521E7
S31508011520FFF752FC20460521FFF7AAFC054606EB04
S31508011530C4002946417106EBC400C5F30721817130
S31508011540601CC4B2052CFFF410AFF07B10F0070F36
S315080115500AD0F07B10F0080F06D008210120FFF70A
S315080115608FFCAAF8000002E00020AAF80000F07D2E
S3150801157010F0070F0AD0F07D10F0080F06D00821E9
S315080115800220FFF77DFCAAF8020002E00020AAF873
S315080115900200F07F10F0070F0AD0F07F10F0080F55
S315080115A006D008210320FFF76BFCAAF8040002E025
S315080115B00020AAF8040096F8270010F0070F0BD0B0
S315080115C096F8270010F0080F06D008210420FFF727
S315080115D057FCAAF8060002E00020AAF8060001B0A6
S315080115E0BDE8F08530B549F22474C0F6010449F224
S315080115F05675C0F6010549F24E71C0F6010140F271
S3150801160032400822FFF779FE4FF47A7000F018FC91
S315080116102078C0070AD5207800F0FE00207005F171
S31508011620080108224FF48660FFF767FE20788007D5
S315080116300AD5207800F0FD00207005F11001082276
S315080116404FF48660FFF759FE207840070AD52078BF
S3150801165000F0FB00207005F1180108224FF486609E
S31508011660FFF74BFE207800070AD5207800F0F7002F
S31508011670207005F1200108224FF48660FFF73DFE30
S3150801168030BD000000F020E31EFF2FE100BF7047C8
S315080116902DE9700185B005460C460122236E042BFF
S315080116A002D8636E042B00D9B9E0002D00F0B6808C
S315080116B0002C00F0B38048F26C6CC0F6010CDCF823
S315080116C000300093009BD4F808C06CF39243009352
S315080116D0009BD4F80CC06CF311430093009B94F85B
S315080116E011C06CF31A630093009B94F810C06CF355
S315080116F09E730093009B94F81CC06CF3000300933F
S31508011700009B94F834C06CF341030093009B2B6053
S315080117102B6BD4F804C06CF307032B63A36813B9C6
S315080117200023AB6007E0A368012B02D12368AB60F5
S3150801173001E00123AB6063692B61A3696B61E36A0D
S31508011740AB61236BEB6123682B6248F2706CC0F6C0
S31508011750010CDCF800300193A36A8DF80430636C40
S315080117608DF80630636D8DF80730E36D8DF8053019
S31508011770019B6B6448F2746CC0F6010CDCF800300E
S315080117800293E36C8DF80830E36B8DF80930029B00
S31508011790AB6448F2786CC0F6010CDCF800300393B0
S315080117A0039BD4F824C06CF301030393039BD4F879
S315080117B038C06CF38B230393039BD4F840C06CF3B6
S315080117C005130393039BD4F848C06CF309230393C9
S315080117D0039BD4F850C06CF387130393039BD4F887
S315080117E058C06CF383030393039BEB6448F27C6C48
S315080117F0C0F6010CDCF800300493049BD4F860C0F1
S315080118006CF302030493049BD4F864C06CF30613C7
S315080118100493049B6B65236AAB67002200BF1046DD
S3150801182005B0BDE87001704710B40446F021216087
S315080118300021A1604FF0FF3121614FF0FF31616155
S315080118404FF0FF31A1614FF0FF31E1614FF0FF31F8
S3150801185021624FF0FF3161624FF4807161640021AA
S31508011860A1644FF6FF71E16432216165FF212165AB
S3150801187000212167002161670021A16710BC70471B
S3150801188010B40446216841F00041216010BC70473C
S3150801189010B4044621686FF3DF71216010BC7047EC
S315080118A010B404466168084610BC704710B4044673
S315080118B02169084610BC704710B40446A169084658
S315080118C010BC704710B404466169084610BC7047DD
S315080118D010B40446E169084610BC704730B40446A2
S315080118E00D46256130BC704710B404462169084687
S315080118F010BC704730B404460D46656130BC70476C
S3150801190010B404466169084610BC704730B40446F1
S315080119100D46A56130BC704710B40446A169084656
S3150801192010BC704730B404460D46E56130BC7047BB
S3150801193010B40446E169084610BC704730B4044641
S315080119400D4625B1226842F00102226003E02268B1
S315080119506FF30002226030BC704730B404460D466E
S3150801196025B1226842F00202226003E022686FF381
S315080119704102226030BC704730B404460D46A5606A
S3150801198030BC704710B40446A168084610BC7047BD
S3150801199030B404460D46256230BC704710B404467F
S315080119A0216A084610BC704730B404460D46656284
S315080119B030BC704710B40446616A084610BC7047CB
S315080119C010B40446A16F41F00101A16710BC70472C
S315080119D010B40446A16F41F00201A16710BC70471B
S315080119E010B40446A16F41F00401A16710BC704709
S315080119F010B40446E16F11F00101084610BC7047A6
S31508011A0010B40446E16FC1F34001084610BC7047A3
S31508011A1010B40446E16FC1F38001084610BC704753
S31508011A2010B40446216F41F001012167216F10BCF2
S31508011A30704710B40446216F41F002012167216FF6
S31508011A4010BC704710B40446216F41F004012167A8
S31508011A50216F10BC704710B40446216C41F0100187
S31508011A60216410BC704710B40446216C41F004018E
S31508011A70216410BC704710B40446216C41F008017A
S31508011A80216410BC704710B40446216C41F0010171
S31508011A90216410BC704710B40446216C41F0200142
S31508011AA0216410BC704710B40446216F084610BC67
S31508011AB0704730B404460D462567226F30BC70471F
S31508011AC030B404460D46656730BC704730B40446E9
S31508011AD00D46A56730BC704710B40446A16F084689
S31508011AE010BC704710B40446E16F084610BC704735
S31508011AF02DE9F04105460E46002409E0A20049F603
S31508011B009833C0F601034FF0000C43F802C0641C79
S31508011B10052CF3D341F66F52C0F601024AF20003CF
S31508011B20C0F60103DA63284600F0BDF8304600F036
S31508011B3044F800F010F900F002F8BDE8F0812DE94B
S31508011B40004100F01CF84EF21008CEF20008D8F851
S31508011B50000040F00100C8F80000BDE800812DE949
S31508011B60004100F01BF84EF21008CEF20008D8F832
S31508011B70000020F00100C8F80000BDE800814DF81A
S31508011B80048D4EF21008CEF20008D8F8000040F095
S31508011B900200C8F800005DF8048B70474DF8048D03
S31508011BA04EF21008CEF20008D8F8000020F0020024
S31508011BB0C8F800005DF8048B70472DE9100104464A
S31508011BC024F07F414EF21408CEF20008C8F800103E
S31508011BD0BDE8100170472DE91001044641F200687D
S31508011BE0C4F22008D8F80010621E62F31701C8F87B
S31508011BF00010BDE8100170474DF8048D4EF21C081F
S31508011C00CEF20008D8F8000020F07F40401C5DF8AD
S31508011C10048B70474DF8048D4EF21408CEF2000875
S31508011C20D8F800005DF8048B70474DF8048D4EF224
S31508011C301808CEF20008D8F800005DF8048B704742
S31508011C402DE9704104460E4649F69835C0F6010558
S31508011C50052C13D348F28061C0F6010149F6B43068
S31508011C60C0F60100182205F0C9FBFB2049F6B03180
S31508011C70C0F601010860002000F044F900BFA00089
S31508011C8029460A58A00029460E501046BDE870811B
S31508011C9010B40446A10049F69832C0F6010251581B
S31508011CA0084610BC70472DE91001044640F20001B0
S31508011CB0C4F22001042C10D14EF21008CEF200080D
S31508011CC0D8F8002042F00402C8F8002001F5B05304
S31508011CD01A6842F000421A6015E001F5B0531A6815
S31508011CE064F319621A6001F5B0531A686FF3DF726B
S31508011CF01A604EF21008CEF20008D8F8002022F039
S31508011D000402C8F80020BDE8100170474DF8048D9B
S31508011D104EF21008CEF20008D8F80000400701D5A7
S31508011D20042107E041F20068C4F22008D8F800004F
S31508011D308001810F08465DF8048B70474DF8048DC4
S31508011D404EF21008CEF20008D8F8000000F48030F0
S31508011D505DF8048B70474DF8048D00204EF2180883
S31508011D60CEF20008C8F800005DF8048B704730B55C
S31508011D7049F69835C0F60105FFF7E0FF50B1002492
S31508011D8006E055F8240010B155F824008047641C74
S31508011D90052CF6D330BD2DE9F04984B049F6AC3BA4
S31508011DA0C0F6010B4EF21004CEF200040090019128
S31508011DB09BF8002092F0010F14D148F2B161C0F6E8
S31508011DC0010149F6B430C0F60100182205F016FBE8
S31508011DD04FF4CF7249F6B030C0F601000260002018
S31508011DE000F090F800BF01228BF80020009D019EAB
S31508011DF000BF15F17F4F76F1000207D36FF07F47D9
S31508011E006FF07F402D1A66F1000602E02F46002585
S31508011E102E460022226067600022A2600522226007
S31508011E202268D203FCD50022226055EA060200D1B7
S31508011E3000E0DEE700228BF8002004B0BDE8F08957
S31508011E402DE9F049064649F26C62C0F601021168AD
S31508011E50A1B948F2E261C0F6010149F6B430C0F60B
S31508011E600100182205F0CAFA40F2C91149F6B03242
S31508011E70C0F601021160002000F044F800BF0021FD
S31508011E8049F26C60C0F6010044F24022C0F20F022A
S31508011E900B46006805F090FF8C46A0FB06120CFB6A
S31508011EA006220C46154620462946FFF774FFBDE86B
S31508011EB0F0892DE91041044608E049F27861C0F637
S31508011EC00101086800F0F6F8A4F50044B4F5004FDE
S31508011ED0F3D849F27060C0F60100016804FB01F00D
S31508011EE000F0E8F8BDE810812DE91041044649F2F1
S31508011EF07460C0F60100017804FB01F000F0DAF81D
S31508011F00BDE8108110B5044600BF01BEFEE74DF8D5
S31508011F10048D012040F20808C4F22408C8F800001C
S31508011F205DF8048B70470022134610461946704720
S31508011F302DE93041054649F6CC34C0F6010421683D
S31508011F404FF2F762CFF2F54291424CD04FF2F76168
S31508011F50CFF2F54121604EF62858CEF20008D8F89E
S31508011F60001061624AF2A431CAF2A211A16229687B
S31508011F7061606968A160A968E160E9682161296908
S31508011F8061616969A161A969E161E9692162F1EEA4
S31508011F90101A11F0900F26D04AF6AB21CAF6A901FC
S31508011FA0A162296AE162696A2163A96A6163E96AC8
S31508011FB0A163296BE163696B2164A96B6164E96BB0
S31508011FC0A164296CE164696C2165A96C6165E96C98
S31508011FD0A165296DE165696D2166A96D6166E96D80
S31508011FE0A166296EE16600F002F8BDE83081FEE7D8
S31508011FF010B40446A26912F8021C216010BC70478D
S3150801200010B50446204600F001F810BD2DE930014F
S31508012010044640F20002C4F22002642C01D20021D7
S3150801202000E0012141F2C43858F8023061F3010396
S3150801203048F80230002141F2C43858F8023061F3F9
S31508012040092348F80230642C01D2002100E001215D
S3150801205002F5985CDCF8003061F30103CCF8003036
S3150801206002F59C5CDCF8003061F30103CCF8003022
S3150801207002F5985CDCF8003061F30923CCF80030EE
S3150801208002F59C5CDCF8003061F30923CCF80030DA
S31508012090642C01D8002100E0012140F20008C4F2B5
S315080120A02408D8F8003061F30303C8F80030BDE806
S315080120B030017047801C800803D0401C801EFCD16B
S315080120C000BF7047EFF3108072B6704780F310882F
S315080120D0704700002DE9F04104460E460025C4B3B9
S315080120E0B4F90020002A03DBB4F90020082A11DB21
S315080120F04EF60858CEF20008D8F800204AF2000336
S31508012100C0F601039A420AD13146B4F9000000F03B
S3150801211053F804E040F20102C0F256021EE0B4F997
S3150801212000206368002A08DB4EF20047CEF200075A
S315080121303A445B071B0E13700FE012F00F02121FD1
S315080121404EF61857CEF200073A445B071B0E13707A
S3150801215003E040F20105C0F256052A461046BDE8DD
S31508012160F0812DE9100181B00446002148F214736B
S31508012170C0F601031A680092A4B1009AA37863F322
S3150801218002020092009A237963F3DF720092B4F98E
S3150801219000204AF20003C4F2200303EB8202009BEB
S315080121A0136003E040F20101C0F2560100BF084680
S315080121B001B0BDE8100170472DE9300104460D460E
S315080121C04EF60858CEF20008D8F800204AF2000365
S315080121D0C0F601039A4207D104F1100292004AF2AD
S315080121E00003C0F601039D50BDE8300170472DE993
S315080121F0100104464EF60858CEF20008D8F8001029
S315080122004AF20002C0F60102914208D104F1100215
S3150801221092004AF20003C0F60103995807E004F157
S315080122201002920040F20003C0F60103995800BF5C
S315080122300846BDE8100170472DE9300104460D46F0
S3150801224049F63C42C0F6010248F6E87CC0F6010CA4
S31508012250DCF8003033B148F6E872C0F601021368BB
S31508012260A2009D50BDE8300170472DE910010446D2
S3150801227049F64041C0F6010148F6E873C0F6010384
S315080122801A683AB148F6E871C0F601010A68A10070
S31508012290515800E000210846BDE81001704710B406
S315080122A004464AF20002C4F2200202EB84021168D3
S315080122B041F00041116010BC704710B404464AF25F
S315080122C00002C4F2200202EB840211686FF3DF7187
S315080122D011604AF20002C4F2200202EB8401096885
S315080122E010BC70472DE91001044640F20002C4F201
S315080122F02002214607292FD80FF20408D8E801F051
S3150801230004090E13181D2227D2F80031C3F3090157
S3150801231025E0D2F80431C3F3090120E0D2F80831E7
S31508012320C3F309011BE0D2F80C31C3F3090116E026
S31508012330D2F81031C3F3090111E0D2F81431C3F30D
S3150801234009010CE0D2F81831C3F3090107E0D2F804
S315080123501C31C3F3090102E040F2FF3100BF00BF9F
S315080123600846BDE81001704770B404460D4640F2B0
S315080123704023C4F2200303EB84031A6865F30902B8
S315080123801A6070BC704710B4044640F24022C4F289
S31508012390200202EB84010968C1F30901084610BC51
S315080123A070472DE9F00185B004460D46164642F2FE
S315080123B00103C0F2AA0348F2187CC0F6010CDCF846
S315080123C000C0CDF800C048F21C7CC0F6010CDCF850
S315080123D000C0CDF804C048F2207CC0F6010CDCF838
S315080123E000C0CDF808C048F2247CC0F6010CDCF820
S315080123F000C0CDF80CC048F2287CC0F6010CDCF808
S3150801240000C0CDF810C0002C00F0C480002D00F0EB
S31508012410C180002E00F0BE80009F95F808C06CF3BD
S3150801242010470097009F95F80AC06CF30827009794
S31508012430009F6FF38F370097009F6FF31967009717
S31508012440DDF800C0C4F800C06F7A87F0010C019F5F
S315080124506CF3CB270197019FD5F800C06CF39E77E3
S3150801246001972F68C7F3400C019F6CF3DF7701973B
S31508012470DDF804C0C4F860C0029F4FF0070C6CF386
S3150801248004070297029F47F480770297DDF808C090
S31508012490C4F800C395F804C00027BCF1000F00D0AA
S315080124A07F27C4F80473AF797F008DF80C70EF7934
S315080124B07F008DF80E70DDF80CC0C4F810C3049FB8
S315080124C04FF0070C6CF304070497049F47F48077D1
S315080124D00497049F47F480370497DDF810C0C4F8C1
S315080124E000C295F805C00127BCF1000F00D04027AE
S315080124F0C4F804724FF0000CC4F8C8CE4FF0000CB3
S31508012500C4F888CE4FF0000CC4F8C8CF4FF0000CC1
S31508012510C4F888CF4FF0000CC4F808CFD5F800C02E
S31508012520002740F2D1181CF0010F18BF4746C4F81E
S31508012530487F95F804C086F800C095F805C086F866
S3150801254001C04FF0805CC6F804C04FF0000CC6F815
S3150801255008C04FF0000CC6F814C04FF0000CC6F8BE
S3150801256020C04FF0000CC6F83CC04FF0000CC6F86E
S3150801257040C04FF0000CC6F82CC04FF0000CC6F84E
S3150801258030C04FF0000CC6F844C04FF0000CC6F836
S3150801259048C0002300BF184605B0BDE8F0017047E2
S315080125A010B4044640F20F01C0F20031216043F62F
S315080125B08871216641F21301C0F22A01216740F2AE
S315080125C00711C4F800130021C4F804130021C4F844
S315080125D0101340F20711C4F800120021C4F80412BE
S315080125E00021C4F8C81E0021C4F8881E0021C4F8B9
S315080125F0C81F0021C4F8881F0021C4F8081F00213C
S31508012600C4F8481F10BC704730B405460C462A6802
S315080126106FF3DF722A604FF0805262600022A26077
S315080126200022226230BC70472DE9F04C07468A46E3
S31508012630934600253C465646BBF1010306D05B1E70
S3150801264026D09B1E32D0042B38D048E00023C4F88C
S31508012650483F7368B3F1805F11D1236813F4807F13
S3150801266004D040F21113C4F8483F10E03146204621
S31508012670FFF7CAFF40F2D113C4F8483F07E040F21A
S31508012680D113C4F8483F40F2FF05C0F242052BE0DA
S31508012690236813F4807F04D040F2D113C4F8483F6D
S315080126A003E0236843F0004323601DE0236813F425
S315080126B0807F02D00123C4F8883E15E0236813F40D
S315080126C0807F07D00023C4F8883E40F2D113C4F8AE
S315080126D0483F03E0236843F00043236004E040F2E7
S315080126E0FF05C0F2420500BF2B461846BDE8F08C2F
S315080126F02DE9F04C07468A46934600253C46564640
S31508012700BBF1010306D05B1E1DD09B1E20D0042BF6
S315080127101ED01EE00023C4F8483F7368B3F1805FFA
S3150801272008D131462046FFF76FFF40F2D113C4F8AE
S31508012730483F07E040F2D113C4F8483F40F2FF058D
S31508012740C0F242050AE0236843F00043236005E02E
S3150801275004E040F2FF05C0F2420500BF2B461846C9
S31508012760BDE8F08C2DE9F04F86B0044693460591F5
S315080127700026236E13F0804F15D0236E13F0004FF9
S3150801278011D15946204600F0D0F803461E46D4F822
S3150801279000336FF34923C4F8003341F21303C0F23F
S315080127A02A032367BCE0BBF1000F40F2B980059B01
S315080127B0002B40F2B58044F6D353C1F26203ABFB5A
S315080127C0033E4FEA9E1EDDF814C044F6D353C1F208
S315080127D06203ACFB0338CDF808804FEA98130293DD
S315080127E04CF60023C3F69A33B3FBFBF30093DDF8EB
S315080127F014C048F2A063C0F201039C4504D841F213
S31508012800883741F2883C10E0DDF814C041F6802390
S31508012810C0F206039C4504D84FF4C8674FF4617C9F
S3150801282003E04FF41B774FF4BE7CDDF80080B7FB5D
S31508012830F8F300E05B1CDDF8008003FB08F5BD42F8
S3150801284001D2102BF6D3DDF80080BCFBF8F500E0C9
S315080128506D1CDDF8008005FB08F8E04501D2102D56
S31508012860F6D305EB0308BEFBF8F64FF00009CDF8E1
S31508012870049015E0DDF8048018F0010803D0102D46
S3150801288004D26D1C02E0102B00D25B1CDDF804801B
S3150801289008F10108CDF8048005EB0308BEFBF8F63C
S315080128A0DDF80880464504D905EB0308B8F1200F81
S315080128B0E0D341F68029C0F206094E450CD9D4F871
S315080128C0008348F40078C4F8008340F20308C0F294
S315080128D02A08C4F870800BE0D4F800836FF34928FE
S315080128E0C4F8008341F21308C0F22A08C4F87080BC
S315080128F0D4F86080A3F1010928F0F00A4FEA0978B3
S315080129004AEA1868C4F86080D4F86080A5F101091C
S3150801291069F30308C4F8608005EB0308BBFBF8F606
S3150801292000BF304606B0BDE8F08F70B405460C46C8
S315080129302A6E12F0804F38D02A6E12F0004F34D129
S3150801294045F2E022C0F2770294420AD34AF620629F
S31508012950C0F2EA02944204D841F68022C0F2060285
S315080129602DE04AF2B062C0F2170294420AD345F248
S315080129700002C0F2C302944204D848F2A062C0F22F
S3150801298001021CE04BF20032C0F2F10294420AD372
S3150801299040F64002C0F24E52944204D844F2402214
S315080129A0C0F20F020BE0002209E02A6E2E6EC2F376
S315080129B0031216F00F063244931CB4FBF3F200BF60
S315080129C0104670BC704730B405460C4600BF226AF3
S315080129D0104630BC70472DE9F04582460D4616462D
S315080129E01C4600BF012705B916B1002D08BF0027EF
S315080129F0AFB948F22C71C0F6010149F6B430C0F6F8
S31508012A000100182204F0FAFC40F2033749F6B03CFB
S31508012A10C0F6010CCCF800700020FFF773FA00BF6E
S31508012A20A56226634FF0000CC4F82CC04FF0000CC9
S31508012A30C4F834C0BDE8F08570B504460D4600BF3C
S31508012A40FFF740FB0246164600222A636A7882B1DE
S31508012A502A6AD2070DD5D4F8042242F48032C4F882
S31508012A600422D4F804226FF31042C4F80422D4F8DD
S31508012A7004223046FFF72AFB70BD30B405460C46E2
S31508012A8000BF626B104630BC704770B405460C46F1
S31508012A9000BF236A03F4C772236A23F4C773236248
S31508012AA000BF104670BC70472DE9F04582460C46BA
S31508012AB016461D4600BF012704B916B1002C08BFEA
S31508012AC00027AFB948F25971C0F6010149F6B43089
S31508012AD0C0F60100182204F091FC40F2B63749F617
S31508012AE0B03CC0F6010CCCF800700020FFF70AFADA
S31508012AF000BFAC632E644FF0000CC5F83CC0BDE8BE
S31508012B00F08570B504460D4600BFFFF7DBFA0246AD
S31508012B10164600222A642A784AB12A6AD20606D5B6
S31508012B20226E42F4004222660022C4F8C82F3046BB
S31508012B30FFF7CCFA70BD30B405460C4600BFE26B10
S31508012B40104630BC704770B405460C4600BF236A70
S31508012B5003F4F072236A23F4F073236200BF10466C
S31508012B6070BC704730B405460C4600BFA2681046D3
S31508012B7030BC70472DE9F04481B004460E4615462F
S31508012B8042F20207C0F2AA070023C4F8483F6B685D
S31508012B90DB0040F182804FF48033AB6073682B61B0
S31508012BA0B368AB6100236B610023EB61337B2B7345
S31508012BB001236B7340F21713C4F8003FD4F8003FA2
S31508012BC0D4F8043243F48033C4F80432D4F8043216
S31508012BD06FF31043C4F80432D4F804326B68B3F1C6
S31508012BE0805F08D100230093009B43F00203009302
S31508012BF0009BA36612E000230093009B43F00103A8
S31508012C000093636EDDF800C0C3F340136FF3C30C82
S31508012C104CEAC30CCDF800C0009BA36696F800C029
S31508012C204FEA4C6C4FEA1C6C4CF00103C4F8403275
S31508012C302B78D3B12B7BC3B9AB69022B15D3236E82
S31508012C4043F480732366AB694FF03F0C802B02D89F
S31508012C50AB69A3F1020CD4F804336CF30703C4F887
S31508012C6004334FF490136B6008E0D4F804336FF320
S31508012C700703C4F804334FF488136B60FFF722FA8D
S31508012C8003469A460123C4F8C83F40F21313C4F811
S31508012C90083F5046FFF71AFA002740F2D113C4F845
S31508012CA0483F3B46184601B0BDE8F08470B581B08F
S31508012CB005460C46FFF706FA02461646A268D203EF
S31508012CC019D56268B2F5881F03D06268B2F5901FFC
S31508012CD024D1227852B10022C5F8C82F4FF4B01278
S31508012CE0626040F21712C5F8082F17E00022227316
S31508012CF00122A26112E0626840F20003C1F21003E8
S31508012D009A420BD100220092009A42F010020092D8
S31508012D10009A42F008020092009AAA663046FFF726
S31508012D20D5F901B070BD2DE9F04481B004460E46CF
S31508012D30154642F20207C0F2AA070023C4F8483F23
S31508012D406B68DB0068D54FF48033AB6073682B6121
S31508012D50B368AB6100236B610023EB61337B2B7393
S31508012D6000236B7340F21713C4F8003FD4F8003FF1
S31508012D70D4F8043243F48033C4F80432D4F8043264
S31508012D806FF31043C4F80432D4F804326B68B3F114
S31508012D90805F08D100230093009B43F00203009350
S31508012DA0009BA36612E000230093009B43F00103F6
S31508012DB00093636EDDF800C0C3F340136FF3C30CD1
S31508012DC04CEAC30CCDF800C0009BA36696F800C078
S31508012DD00CF07F0C4FEA4C03C4F840324FF4A013B1
S31508012DE06B606B784FF0010C0BB14FF0400CD4F8C7
S31508012DF004326CF30703C4F80432FFF763F9034698
S31508012E009A460123C4F8883F40F21313C4F8083FD1
S31508012E105046FFF75BF9002740F2D113C4F8483F43
S31508012E203B46184601B0BDE8F08470B581B004464A
S31508012E300D46FFF747F902461646AA68D20322D578
S31508012E400022C4F8882F6A786AB1D4F8042242F4B9
S31508012E508032C4F80422D4F804226FF31042C4F86D
S31508012E600422D4F804226A68B2F5A01F03D06A685E
S31508012E70B2F5A81F1AD14FF4B0126A6040F21712C0
S31508012E80C4F8082F12E06A6840F20003C1F2100381
S31508012E909A420BD100220092009A42F01002009247
S31508012EA0009A42F008020092009AA2663046FFF79D
S31508012EB00DF901B070BD30B405460C4600BFE26994
S31508012EC0104630BC70472DE9F04F84B004468B4656
S31508012ED0924603930D9F42F20206C0F2AA064FF0EC
S31508012EE0000CC4F848CFD7F804C0BCF1805F60D1A4
S31508012EF0039D4FEA850CA5EB0C0505EB4C15ED007A
S31508012F00019540F20005C1F213057D60BAF1010F82
S31508012F100CBF4FF0010C4FF0000C87F80DC040F2C2
S31508012F201715C4F8005FD4F8005F4FF0040CC4F815
S31508012F30C0CFD4F8C05FD4F8045245F48035C4F83C
S31508012F400452D4F804526FF31045C4F80452D4F865
S31508012F5004524FEA4B6C4FEA1C6C4CEA0A05C4F85A
S31508012F6040524FF0000CCDF800C0009D45F0020517
S31508012F700095DDF800C0C4F868C000BFD4F800CFDA
S31508012F80D4F840EF40F207190CEA090C0EF0C00E0E
S31508012F904EEA0C0501A800F016FE844645EA0C0522
S31508012FA0002DEBD03A462946204600F01FFE8446FE
S31508012FB0664640F2D11CC4F848CF00BF304604B07B
S31508012FC0BDE8F08F2DE9F04F84B004468B46924652
S31508012FD003930D9F42F20206C0F2AA067D68ED022E
S31508012FE051D5039D4FEA850CA5EB0C0505EB4C1550
S31508012FF0ED00019540F20005C1F213057D60BAF1B5
S31508013000010F0CBF4FF0010C4FF0000C87F80DC0F3
S315080130104FF0000CCDF800C0009D45F00105009564
S31508013020656EDDF800C0C5F340156FF3C30C4CEAB5
S31508013030C50CCDF800C0DDF800C0C4F868C04FEA79
S315080130404B6C4FEA1C6C4CEA0A05C4F8405200BFA7
S31508013050D4F800CFD4F840EF40F207190CEA090C6E
S315080130600EF0C00E4EEA0C0501A800F0ACFD844630
S3150801307045EA0C05002DEBD03A462946204600F0D4
S31508013080B5FD8446664600BF304604B0BDE8F08FFC
S315080130902DE9F04482B006468A46174642F20205F1
S315080130A0C0F2AA057B68DB0226D5AAEB8A0303EBE5
S315080130B0CA13DB00019300230093009B43F010031E
S315080130C00093009B43F008030093009BB36600BF7F
S315080130D0D6F8003F40F2111C03EA0C0401A800F0DF
S315080130E072FD03461C43002CF2D03A46214630466F
S315080130F000F07CFD03461D462B46184602B0BDE886
S31508013100F0842DE9F04481B005468A46174642F215
S315080131100206C0F2AA067B68DB021ED5AAEB8A0361
S3150801312003EBCA13DB000093AB6E43F01003AB66E7
S3150801313000BFD5F8003F40F2111C03EA0C046846AB
S3150801314000F041FD03461C43002CF2D03A462146C5
S31508013150284600F04BFD03461E463346184601B085
S31508013160BDE8F0842DE9F04481B005468A46174644
S3150801317042F20206C0F2AA067B68DB021ED5AAEB5A
S315080131808A0303EBCA13DB000093AB6E43F0080313
S31508013190AB6600BFD5F8003F40F2111C03EA0C04E8
S315080131A0684600F010FD03461C43002CF2D03A464F
S315080131B02146284600F01AFD03461E4633461846A0
S315080131C001B0BDE8F0842DE9F04D83B004468A4686
S315080131D09346029342F20206C0F2AA06DDF82CC013
S315080131E0DCF804C0BCF5881F43D1029D4FEA850C63
S315080131F0A5EB0C0505EB4C15ED00019500BFD4F8C0
S3150801320000CF40F2011E0CEA0E05D4F8C0CF1CF01F
S31508013210040F0CBF0127002701A800F0D4FC84463F
S3150801322045EA0C050FB1002DE9D04FB9D4F840C3D2
S315080132308BF800C04FF0050CC4F8C0CFD4F8C0CF46
S31508013240294620460B9A00F0D1FC8446664686B983
S31508013250BAF1010F0DD14FF0000CCDF800C0DDF821
S3150801326000C04CF0040CCDF800C0DDF800C0C4F86D
S3150801327068C000BF304603B0BDE8F08D2DE9F04CBB
S3150801328081B006468A4693461F4642F20205C0F2B7
S31508013290AA05D7F804C0BCF5A01F1ED1ABEB8B0459
S315080132A004EBCB14E40000945446C6F8404200BF30
S315080132B0D6F800CF40F2071E0CEA0E04684600F065
S315080132C082FC844644EA0C04002CF1D03A46214695
S315080132D0304600F08BFC8446654600BF284601B09F
S315080132E0BDE8F08C30B505460C466268D20204D5B5
S315080132F02146284600F06AFA03E02146284600F0EE
S3150801330001F830BD70B504460E46D4F88C2ED207A6
S3150801331004D50122C4F8802ED4F8802ED4F84C5F47
S3150801332040F2011215420DD08022EB0548BF4FF439
S315080133308072336A134333620022C4F8C82F45F0FA
S3150801334010050EE0EA060CD5D4F80823D20508D0F4
S31508013350326C002A05D90122C4F8C42F0122C4F807
S31508013360C82FD4F8CC2FD20708D53146204600F00D
S31508013370CEF80122C4F8C02FD4F8C02FEA060AD520
S315080133803146204600F0A1F91022C4F8402FD4F89E
S31508013390402FD4F84C5F15F0C00F0DD031462046AA
S315080133A000F019F80122C4F8802ED4F8802EC02224
S315080133B0C4F8402FD4F8402FD4F88C2F12F0410FBF
S315080133C008D03146204600F004F90122C4F8802FBE
S315080133D0D4F8802F70BD2DE9F04C04460D4641F214
S315080133E0010B0127AA6C8AB30026226812F4803FD2
S315080133F006D0D4F84C2F520654BF00220222164694
S31508013400226E12F4006F06D1D4F84C2F12064CBF67
S31508013410012200221643CEB13046AA6C90470246D5
S3150801342017460122C4F8C02FD4F8C02F012F09D19D
S315080134301022C4F8402FD4F8402F40F2D112C4F814
S31508013440482F03E040F2C112C4F8882ED4F80422AA
S3150801345042F48032C4F80422D4F804226FF31042ED
S31508013460C4F80422D4F80422E766012F4DD1626E0E
S31508013470C2F3001A6A6C3AB10222BAF1000F00D0FF
S31508013480012210466B6C9847BAF1000F0FD00BF169
S3150801349001026A602A6A42F001022A626A6BEA62DA
S315080134A0002285F824200122C4F8882F2DE0002265
S315080134B0C5F804B02B6A43F010032B620123C4F844
S315080134C0C83F2B78DBB12B6C002B18D9236E43F43C
S315080134D0005323662B6C802B08D92B6CA3F1800231
S315080134E0802A01D93F220AE0521E08E02B6C5A1E97
S315080134F0236E43F4004323660023C4F8C83FD4F877
S31508013500043362F30703C4F80433BDE8F08CF0B55D
S3150801351081B005460C46226C002A4DD92278AAB3F9
S31508013520D5F8042312F0FF02561C32462846A16B31
S3150801353000F00DFC02461646E26B3244E263226C49
S31508013540921B2264A26B3244A263226C802A09D997
S31508013550236CA3F18002802A01D9402300E0134697
S315080135605A1E0CE02A6E42F400422A66226C0AB9F7
S31508013570002201E0236C5A1E0023C5F8C83FD5F87E
S31508013580043362F30703C5F8043320E000220092EE
S31508013590009A42F001020092009AEA66A36BD4F8F7
S315080135A03CC0D5F8402303F80C20E26B521CE263B9
S315080135B0226C521E22640AE000220092009A42F00E
S315080135C002020092009AEA660022C5F8C82F01B0E5
S315080135D0F0BDF0B506460C4694F8242082B9226B54
S315080135E072B9626C12B10820626C9047226B002A8C
S315080135F00CBF0122002284F824200122C6F8882F54
S3150801360094F82420C2B1637801222BB13368402291
S3150801361013F4404F00D1802215462A463046FF2131
S3150801362000F063FC02461546E26A2A44E262226A0F
S3150801363042F00802226247E0226B012A15D9637813
S3150801364001220BB1226B521E15462A463046A16A43
S3150801365000F0E9FB02461546E26A2A44E262226B59
S31508013660521B2263A26A2A44A262D6F80822C2F32E
S315080136700802802A28D0226B012A25D1FEF722FDCD
S3150801368002461746A36A1A78C6F840224022C6F8A7
S31508013690802FD6F8802F3846FEF718FDE26A521CAD
S315080136A0E26200222263A26A521CA2624022C6F882
S315080136B0882F627842B1226A42F002022262626C63
S315080136C012B10420626C9047F0BDF0B581B0044692
S315080136D00D466A6841F201039A4238D1D4F80823A3
S315080136E0D20516D02A6A42F040022A622A7872B1B5
S315080136F0D4F8042342F48032C4F80423D4F804230A
S315080137006FF31042C4F80423D4F8042301E0D4F873
S31508013710402320262A6A42F020022A622A6A22F0D7
S3150801372010022A62226E0092009A6FF34D320092BD
S31508013730009A6FF3CF320092009A22660022C4F8EB
S31508013740C82F0122C4F8C02FD4F8C02F20E0D4F81E
S315080137500822D4F80832C2F30802C3F3C0339F180B
S31508013760EA6AD21B6A632A6A120705D42A6B3A44A3
S315080137702A63AA6AD21BAA6210262A6A42F004029E
S315080137802A622A6A22F001022A620022C4F8882FD4
S31508013790D4F84C2F40F201131A420DD022686FF368
S315080137A0DF7222600022A266E266226842F00042C7
S315080137B02260226846F040064FF080526A606A6CC1
S315080137C012B130466A6C904701B0F0BDF0B50546B6
S315080137D00C46D5F80C7FD5F8006EB2070AD5AA6E45
S315080137E02AB10022AA66A26842F08072A2604FF44A
S315080137F0C0126260F20737D57A0735D426F0040677
S31508013800BA071ED50222C5F8002FD5F8002FD5F81C
S31508013810002F52074CBF4FF400134FF48013A268D0
S315080138201A43A2606268B2F5B81F0AD06268B2F597
S31508013830B01F06D0237B4FF4B0120BB14FF4C01260
S31508013840626040F2111217420ED0FA0503D5A2683A
S3150801385042F40002A260FA0703D5A26842F4800284
S31508013860A2604FF4C0126260320708D52146284685
S3150801387000F021F80122C5F8C02FD5F8C02F72072C
S3150801388008D52146284600F082F80122C5F8802F7E
S31508013890D5F8802F6268B2F5C01F03D121462846A4
S315080138A000F0D9F86268B2F5B01F03D1214628465F
S315080138B000F062F9F0BD70B582B005460C46626843
S315080138C0B2F5881203D0B2F5803F21D05CE02369B6
S315080138D0D5F840231A706269521C6261A269521EA8
S315080138E0A261A269002A0BD92269521C226100220F
S315080138F00092009A42F004020092009AAA6606E033
S31508013900237B4FF4B0120BB14FF4C01262603CE056
S315080139102846A269216900F01AFA02461646626922
S3150801392032446261A269921BA26122693244226110
S31508013930A269022A1BD22A6E0192019A6FF3082202
S315080139400192019A2A66A269012A09D1D5F80423A6
S315080139506FF30702C5F804234FF48812626012E078
S315080139600022C5F8C82F4FF4B01262600BE0A269B5
S315080139703F23402A01D8A269931ED5F8042363F38D
S315080139800702C5F8042300E000BF02B070BDF0B518
S3150801399005460C466268B2F5A81F03D14FF4C0125A
S315080139A0626057E06268B2F5A01F53D1A269012A85
S315080139B015D9637801220BB1A269521E1646324601
S315080139C02846216900F02FFA0246164662693244F2
S315080139D06261A269921BA261226932442261D5F809
S315080139E00822C2F30802802A17D0A269012A14D133
S315080139F0FEF768FB0246174623691A78C5F840227E
S31508013A004022C5F8802FD5F8802F3846FEF75EFB91
S31508013A106269521C62610022A261A269D2B9227B43
S31508013A2032B14022C5F8882F4FF4A812626005E02A
S31508013A300022C5F8882F4FF4B012626062784AB145
S31508013A40A26842F40032A260626C1AB14FF4803067
S31508013A50626C9047F0BD2DE9F04481B004460D46ED
S31508013A60D4F80CAF226E0092009A6FF308220092E6
S31508013A70009A22660022C4F8C82F0022C4F8882FAB
S31508013A800022C4F8082F40F21712C4F8002FD4F800
S31508013A90002FAA6822F48032AA606A7B12B16A6989
S31508013AA0EA610BE0D4F80822D4F80832C2F3080216
S31508013AB0C3F3C0331A446B699A1AEA6140F20112D8
S31508013AC01AEA020F23D00126226E12F0804F0DD07A
S31508013AD0226E12F0004F09D01AF0040F01D0012608
S31508013AE004E01AF4807F14BF012600265EB122681D
S31508013AF06FF3DF7222600022A266E266226842F054
S31508013B000042226022684FF080526A601DE02A78DE
S31508013B1092B1D4F8042342F48032C4F80423D4F8C9
S31508013B2004236FF31042C4F80423D4F804230122B2
S31508013B30C4F8C02FD4F8C02F2B7B4FF080521BB18D
S31508013B4040F20002C1F210026A606A6C8AB16B7BAC
S31508013B504FF400320BB14FF480221746AB680022AE
S31508013B6013F0F87F18BF4FF40022174338466A6CE2
S31508013B70904701B0BDE8F08430B481B004460D46E3
S31508013B800022C4F8C82F0022C4F8882FA26E22B1D9
S31508013B9040F21712C4F8082F12E040F21312C4F8C3
S31508013BA0082F00220092009A42F010020092009A11
S31508013BB042F008020092009AA2664FF4B8126A60AF
S31508013BC001B030BC704730B504460025216800298C
S31508013BD009D90120FEF788F92168491E2160216863
S31508013BE009B94FF000452946084630BD2DE9F04D83
S31508013BF082B004468C46164642F20307C0F2AA076B
S31508013C004FF0805A40F2000BC1F2130B00253B46D8
S31508013C101CF0004F01D0012551E01CF0C00F0CD05B
S31508013C20D4F868E0BEF1000F49D07B1D4FF0000EB5
S31508013C30C4F868E0C6F804A041E01CF4807F02D00D
S31508013C403B1D01253BE01CF0010F0FD0FB1CD6F8EC
S31508013C5004E0DE4508D1D4F860E0CEF3807E8EF02C
S31508013C600105C6F804A02AE0012528E01CF0020F88
S31508013C700ED007F10108CDF80080D6F80480D845A2
S31508013C80DDF8008007F1020E08BFC646734616E046
S31508013C901CF0100F03D00023C6F804A00FE0002380
S31508013CA0D6F804E0DE450AD196F80D804FF4A01E39
S31508013CB0B8F1000F01D04FF4881EC6F804E0B5B17B
S31508013CC0D4F800E06FF3DF7EC4F800E04FF0000E91
S31508013CD0C4F868E0C4F86CE0D4F800E04EF0004E91
S31508013CE0C4F800E0D4F800E0C6F804A005E040F204
S31508013CF0171EC4F800EFD4F800EF00BF184602B04B
S31508013D00BDE8F08D2DE9F00404460D461646D4F8B3
S31508013D10003313F01F03082B0AD22F46002304E0B1
S31508013D20D4F840C307F803C05B1CB342F8D30BE0D1
S31508013D302F46002306E0D4F840A34FEA430C2CF89B
S31508013D4007A05B1CB342F6D3BDE8F0047047F0B593
S31508013D5005460F461646D5F80843E405E40DB44270
S31508013D6000D93446224639462846FFF7CBFF234673
S31508013D701846F0BD2DE9F04407468A4614465546CD
S31508013D8011E0224629463846FFF7E1FF03461E465B
S31508013D90D7F8003313F01F03082B01D2334600E08E
S31508013DA073001D44A41B002CEBD8BDE8F08470B445
S31508013DB004460D4600222368402613F4404F00D1DD
S31508013DC08026D4F80832C3F308039E4202D0C4F809
S31508013DD04052012200BF104670BC70472DE9F0041D
S31508013DE004460D461646D4F8003213F01F03082B75
S31508013DF00AD22F46002304E017F803C0C4F840C2CC
S31508013E005B1CB342F8D30BE02F46002306E04FEACA
S31508013E10430C3CF807A0C4F840A25B1CB342F6D396
S31508013E20BDE8F0047047F0B505460F4616462B68FF
S31508013E30402413F4404F00D18024D5F80832C3F347
S31508013E400803E41AB44200D93446224639462846BC
S31508013E50FFF7C4FF23461846F0BD2DE9F04407468F
S31508013E608A461446554611E0224629463846FFF742
S31508013E70DAFF03461E46D7F8003213F01F03082B54
S31508013E8001D2334600E073001D44A41B002CEBD875
S31508013E90BDE8F084F0B404460E460022D4F800C00A
S31508013EA040231CF4404F00D1802309E0D4F808527E
S31508013EB0C5F30805AB42F9D0B75CC4F84072521C89
S31508013EC016F802C0BCF1000F00D100E0EEE7F0BC25
S31508013ED0704770B405460E46144602E0C5F84062BE
S31508013EE0641E002CFAD870BC7047F0B505460F461B
S31508013EF016462B68402413F4404F00D18024D5F888
S31508013F000832C3F30803E41AB44200D934462246F8
S31508013F1039462846FFF7DDFF23461846F0BD2DE949
S31508013F20F04F81B004460D4616460027002C00F0D6
S31508013F30B380002E00F0B08033681BB90123AB4073
S31508013F40636002E00123AB40A36040F2000CC4F2B7
S31508013F50310CA4EB0C0C4FEADC131B0140F2000CEC
S31508013F60C4F2300C03EB0C0A042D96F808B012D2F1
S31508013F70DAF80080EBB2DB004FF01F0C0CFA03FEF7
S31508013F800BF01F0B0BFA03F328EA0E0C43EA0C039A
S31508013F90CAF8003014E0DAF80480A5F1040C5FFAD7
S31508013FA08CF3DB004FF01F0C0CFA03FE0BF01F0B12
S31508013FB00BFA03F328EA0E0C43EA0C03CAF8043099
S31508013FC07369D4F848B04FF0010A0AFA05FA13F0F2
S31508013FD00103AB402BEA0A0C43EA0C03A364B36959
S31508013FE0D4F84CB04FF0010A0AFA05FA13F00103A6
S31508013FF0AB402BEA0A0C43EA0C03E364D6F81CC06F
S31508014000D4F84CE04FEA450B0BF110034FF0030BC4
S315080140100BFA03FB0CF0030C0CFA03F32EEA0B0A5A
S3150801402043EA0A03E364D6F804C0D4F844E0AB00D3
S315080140304FF00F0B0BFA03FB0CF00F0C0CFA03F302
S315080140402EEA0B0A43EA0A036364D6F80CC0D4F8CD
S3150801405040E06B004FF0030B0BFA03FB0CF0030C6B
S315080140600CFA03F32EEA0B0A43EA0A03236463698B
S315080140700123AB40636163693369D4F818B04FF023
S31508014080010A0AFA05FA13F00103AB402BEA0A0CF6
S3150801409043EA0C03A36103E040F20107C0F25A07A1
S315080140A03B46184601B0BDE8F08FF0B506460F4607
S315080140B00025A6B100240FE0C4EB041306EB830325
S315080140C0197903F10802C4EB041356F82300FFF724
S315080140D026FF02461546641CBC42EDD303E040F2B6
S315080140E00105C0F25A052A461046F0BDF0B4044649
S315080140F00D4600228CB385B340F20003C4F23103A6
S31508014100E31ADE09370140F2000CC4F2300C07EB62
S315080141100C03D5F81CC0C3F800C0D5F820C0C3F8F5
S3150801412004C0D5F800C0C4F800C0D5F810C0C4F85A
S3150801413048C0D5F814C0C4F84CC0D5F80CC0C4F8AA
S3150801414044C0D5F808C0C4F840C040F2FF176761FB
S31508014150D5F804C0C4F818C003E040F20102C0F261
S315080141605A0200BF1046F0BC70472DE930010546DA
S315080141700C464FF4005305B124B940F20102C0F2CE
S3150801418062023BE040F20008C4F25408B5EB0802AB
S3150801419009D212F5FE3218D012F5007210D012F5B6
S315080141A0007209D024E0121E14D0B2F5007215D09F
S315080141B0B2F5007F17D01BE00022228063601CE065
S315080141C04FF400522280636017E04FF48042228048
S315080141D0636012E00022228063600EE04FF4005211
S315080141E02280636009E04FF480422280636004E024
S315080141F040F20102C0F2620200E000221046BDE868
S315080142003001704730B4054649F2D054C0F601046E
S3150801421000220DE0C2EB820104EBC10109688D425F
S3150801422005D1C2EB820004EBC000001D03E0521C5D
S31508014230062AEFD3002030BC704770B404460D46F9
S315080142403F2D01D9002217E0230C1B0403F5803208
S31508014250D4F8AC30C3F38D039B001A44D4F8BC30B0
S3150801426048F2887CC0F6010CC3F302231CF803301C
S315080142709B1C6B439B001A4400BF104670BC7047D9
S3150801428070B404460D461F2D01D9002217E0230CF0
S315080142901B0403F58032D4F8C030C3F38D039B00A9
S315080142A01A44D4F8C83048F2887CC0F6010C13F0D9
S315080142B007031CF803309B1C6B439B001A4400BF81
S315080142C0104670BC7047F0B405460E461746012ED7
S315080142D001D9002326E04FEA154C4FEA0C4C0CF5A0
S315080142E0803326B9D5F8A040C4F38D0403E0D5F888
S315080142F0B040C4F38D044FEA840C634426B9D5F85B
S31508014300BC4014F0070403E0D5F8BC40C4F302141A
S3150801431048F2887CC0F6010C1CF80440A41C7C43B6
S31508014320A400234400BF1846F0BC704710B40446E5
S31508014330002140F20042C4F25202944288BF03218E
S31508014340C4F346220A44D1B200BF084610BC7047DE
S3150801435070B5054649F64046C0F60106002405B97A
S315080143602FE02846FFF7E2FF01460C46296D11F0BA
S31508014370005F02D0610001228A53296D11F0805F26
S3150801438002D0610002228A53296D11F0006F02D012
S31508014390610003228A53296D11F0806F02D06100F2
S315080143A004228A53296D11F0007F02D0610005228B
S315080143B08A53296D11F4001F02D0610006228A531F
S315080143C000BF70BD2DE9F00405460C460022002306
S315080143D005B93BE02E68C6F38076267294F808C0C4
S315080143E0BCF1000F04D12E68C6F38A46666003E065
S315080143F02E6826F0604666606E68C6F340562670DB
S315080144006E68C6F3034684F84C6094F84CC0BCF158
S31508014410080F01D2002303E094F84C60083EB3B2BA
S3150801442000220CE0970005F1080A5AF8076004F122
S315080144300C0C4CF8076002F1010C1FFA8CF248F2D9
S315080144408876C0F60106F65CB242EBD3BDE8F00405
S3150801445070472DE9F04CA8B0824600264FF0000BB4
S315080144605046FFF7CFFE01460F4607B912E15446FB
S31508014470216D4EF2EE02C3F6F772114202D0504692
S31508014480FFF766FF216D11F4002F4FD0216D41F41E
S3150801449000212165D4F89810B9B1002512E0D4F8A5
S315080144A098200121A94011420AD029465046FFF712
S315080144B0C4FE01460E460121A940C4F8981024E01D
S315080144C0691CCDB2202DEAD31FE0D4F89C10E1B1C6
S315080144D0002518E0D4F89C200121A940114210D0EA
S315080144E005F12001CDB229465046FFF7A6FE014641
S315080144F00E46A5F12001012202FA01F1C4F89C1029
S3150801450003E0691CCDB2202DE4D3002E00F0C28051
S3150801451014A93046FFF756FF7968002900F0BA80DA
S3150801452014AA294600207B689847B3E0216D11F04B
S31508014530010F4FD0216D41F00101216544E0DAF800
S31508014540801111F0010F1ED0DAF8BC1048F28872FA
S31508014550C0F6010211F00701515C891C5FFA81FB63
S31508014560002506E0DAF8A831A90002AA5350691C09
S31508014570CDB25D45F6D3B96831B302AA59460020D2
S31508014580BB68984720E0D4F8A410009100995046DA
S31508014590C1F305220021FFF796FE01460E469EB19C
S315080145A014A93046FFF70EFF0099D4F8A820C1F3E5
S315080145B0052161F30502C4F8A820796821B114AA76
S315080145C0002101207B689847D4F8A41011F07F01D7
S315080145D0B5D15FE0216D11F0100F4FD0216D41F07B
S315080145E01001216544E0DAF8801111F0020F1ED09E
S315080145F0DAF8BC1048F28872C0F60102C1F302115A
S31508014600515C891C5FFA81FB002506E0DAF8B831AE
S31508014610A90002AA5350691CCDB25D45F6D3B96803
S3150801462031B302AA59460120BB68984720E0D4F85D
S31508014630B410019101995046C1F305220121FFF7F2
S3150801464042FE01460E469EB114A93046FFF7BAFE50
S315080146500199D4F8B820C1F3052161F30502C4F81C
S31508014660B820796821B114AA012108467B689847C0
S31508014670D4F8B41011F07F01B5D10BE0216D11F416
S31508014680007F07D0216D41F400712165396809B1B0
S315080146903968884728B0BDE8F08C2DE9F04D9AB005
S315080146A007460C4648F29073C0F601031A68009251
S315080146B048F29473C0F601031A68019248F2987396
S315080146C0C0F601031A68029248F29C73C0F6010308
S315080146D01A68039248F2A073C0F601031A68049295
S315080146E048F2A473C0F601031A68059248F2A87342
S315080146F0C0F601031A68069248F2AC73C0F60103C4
S315080147001A68079248F2B073C0F601031A6808924C
S3150801471048F2B473C0F601031A68099248F2B873ED
S31508014720C0F601031A680A9248F2BC73C0F601037F
S315080147301A680B9248F2C073C0F601031A680C9204
S3150801474048F2C473C0F601031A680D9248F2C87399
S31508014750C0F601031A680E9248F2CC73C0F601033B
S315080147601A680F9248F2D073C0F601031A681092BC
S3150801477048F2D473C0F601031A68119248F2D87345
S31508014780C0F601031A68129257B14CB194F8282061
S315080147900AB1E26A22B194F8302032B1626B22B9C9
S315080147A040F20102C0F262020EE33846FFF72AFD23
S315080147B002469246BAF1000F04D140F20102C0F254
S315080147C0620201E32268CAF800206268CAF8042076
S315080147D0A268CAF80820E268CAF80C202269CAF851
S315080147E010203D460122AA61AA6912F0010FFBD0E9
S315080147F00322AA6118A93846FFF7B7FC20B140F28F
S315080148000102C0F26202DFE294F828208DF8022044
S31508014810BDF860209310009A63F38F020092009A04
S31508014820C5F88420019A94F8303063F31642019250
S31508014830D5F8842094F82830C2F38D021344019ADE
S3150801484063F38F020192019AC5F88820029AA36B35
S3150801485063F31C020292029AC5F890200D9A94F805
S31508014860403063F30A220D920D9A94F8413063F3AE
S3150801487006120D920D9A94F8423063F302020D92D4
S315080148800D9AC5F8BC20039A94F8443063F3DF7295
S315080148900392039A94F8453063F31E620392039ACE
S315080148A094F8463063F31642039294F83030D5F8FB
S315080148B08820C2F38D0202EB4303039A63F38F0246
S315080148C00392039AC5F8A020049A94F8483063F332
S315080148D0DF720492049A94F8493063F31E620492D3
S315080148E0049A94F84A3063F31642049294F842C043
S315080148F048F28873C0F60103D5F8A02013F80C30E6
S3150801490094F846C0C2F38D029B1C1CFB0323049A30
S3150801491063F38F020492049AC5F8B020129A94F8A8
S31508014920473063F300021292129A94F84B3063F3FC
S3150801493041021292129AC7F8802194F841C048F2AE
S315080149408873C0F60103D5F8B02013F80C3094F833
S315080149504AC0C2F38D029B1C1CFB0323059A63F311
S315080149608F020592059AC5F8AC200E9A94F8433041
S3150801497063F302020E920E9AC5F8C820069A6FF3DF
S315080149801D620692069A6FF31542069294F840C084
S3150801499048F28873C0F60103D5F8AC2013F80C3039
S315080149A094F84CC0C2F38D029B1C1CFB0323069A88
S315080149B063F38F020692069AC5F8F020079A6FF3F9
S315080149C09E720792079A6FF31D620792079A94F8E7
S315080149D04D3063F315420792D5F8F020C2F38D02E4
S315080149E002F11403079A63F38F020792079AC5F82F
S315080149F0C020BDF86030C3EA070202F5803B199A68
S31508014A0092081392002605E05A460BF1040B00237F
S31508014A101360761C139A9642F6D3089A42F001025D
S31508014A200892089A42F002020892089A6FF38E32A7
S31508014A300892089A237D63F349220892089A237DEE
S31508014A4063F308220892089A6FF3C7120892089A24
S31508014A506FF386120892089A6FF345120892089A1C
S31508014A606FF304120892089A6FF382020892089A61
S31508014A70AA61099AE38A63F318420992227E8DF89C
S31508014A802520099A637E63F306020992099AA37E91
S31508014A9063F35F620992099AEA61227D52B30A9A1F
S31508014AA0A38B63F314420A920A9AA37F63F30C2237
S31508014AB00A920A9AE37F63F307120A920A9A94F80A
S31508014AC0203063F303020A920A9A94F8223063F3B8
S31508014AD0D7520A920A9AEA600B9A94F8233063F33A
S31508014AE00E220B920B9A94F8243063F306020B926A
S31508014AF00B9AAA640C9A94F83C3063F305120C924B
S31508014B000C9A94F83D3063F383020C920C9A94F84C
S31508014B103E3063F341020C920C9A94F83F3063F3EA
S31508014B2000020C920C9AC5F88020D5F88420C2F3AD
S31508014B308D029200C2EA070202F58032149200261B
S31508014B400AE0DDF850C00CEB8603D4F82CC00CEB58
S31508014B50860212681A60761C94F828209642F0D3C9
S31508014B60D5F88820C2F38D029200C2EA070202F53F
S31508014B708032159200260EE0DDF854C00CEBC60310
S31508014B80D4F834C00CEBC602D2F800C05268C3F898
S31508014B9000C05A60761C94F830209642ECD30F9ADE
S31508014BA06FF35D720F920F9A6FF31C720F920F9A41
S31508014BB06FF3DB620F920F9A6FF39A620F920F9A55
S31508014BC06FF359620F920F9A6FF318620F920F9A49
S31508014BD06FF3D7520F920F9A6FF396520F920F9A5D
S31508014BE06FF355520F920F9A6FF314520F920F9A51
S31508014BF042F400220F920F9A6FF392420F920F9A84
S31508014C006FF351420F920F9A6FF310420F920F9A58
S31508014C106FF3CF320F920F9A6FF38E320F920F9A6C
S31508014C206FF34D320F920F9A6FF30C320F920F9A60
S31508014C306FF3CB220F920F9A6FF38A220F920F9A74
S31508014C406FF349220F920F9A6FF308220F920F9A68
S31508014C506FF3C7120F920F9A6FF386120F920F9A7C
S31508014C606FF345120F920F9A42F010020F920F9AA4
S31508014C706FF3C3020F920F9A6FF382020F920F9A84
S31508014C806FF341020F920F9A42F001020F920F9AA7
S31508014C906A65109A6FF35D721092109A6FF31C721F
S31508014CA01092109A6FF3DB621092109A6FF39A6260
S31508014CB01092109A6FF359621092109A6FF3186254
S31508014CC01092109A6FF3D7521092109A6FF3965268
S31508014CD01092109A6FF355521092109A6FF314525C
S31508014CE01092109A6FF3D3421092109A6FF3924270
S31508014CF01092109A6FF351421092109A6FF3104264
S31508014D001092109A6FF3CF321092109A6FF38E3277
S31508014D101092109A6FF34D321092109A6FF30C326B
S31508014D201092109A6FF3CB221092109A6FF38A227F
S31508014D301092109A6FF349221092109A6FF3082273
S31508014D401092109A6FF3C7121092109A6FF3861287
S31508014D501092109A6FF345121092109A6FF304127B
S31508014D601092109A6FF3C3021092109A6FF382028F
S31508014D701092109A6FF341021092109A6FF3000283
S31508014D801092109AAA65119A42F001021192119A8B
S31508014D906FF341021192119AEA653846FFF7C6FA8E
S31508014DA0420049F64043C0F601034FF0000C22F8D1
S31508014DB003C0089A6FF300020892089AAA61AA69C1
S31508014DC012F0010FFBD1002210461AB0BDE8F08D92
S31508014DD02DE9F04D83B0054640F2010BC0F2620B96
S31508014DE00DB9594676E02846FFF70CFA01460E46F4
S31508014DF00EB959466EE0002131600021716000212B
S31508014E00F160002131612C460121A161A16911F0EE
S31508014E10010FFBD00321A16101A92846FFF7A5F9D6
S31508014E2008B1594656E00021C4F884100021C4F897
S31508014E3088106FF06041C4F890100021C4F8BC10C6
S31508014E400021C4F8A0100021C4F8B0100021C5F84B
S31508014E5080110021C4F8AC100021C4F8C810002143
S31508014E60C4F8F0100021C4F8C010BDF80420C2EA45
S31508014E70050101F580370299890800914FF0000A6A
S31508014E8005E039463F1D00220A600AF1010A009928
S31508014E908A45F6D30321A16140F60321C0F20061D8
S31508014EA0E16140F63321E1600021A1640021C4F8E3
S31508014EB08010002161650021A1650021E165284670
S31508014EC0FFF734FA410049F64042C0F601020023D1
S31508014ED08B520021084603B0BDE8F08D2DE9F04F4D
S31508014EE085B082468B46154640F20107C0F2620735
S31508014EF0BAF1000F00D00DB93B4687E0BBF11F0F91
S31508014F0001D93B4682E05046FFF77CF903460193F7
S31508014F10019B0BB93B4679E0CDF800A0DDF800C04E
S31508014F20DCF8183013F0010F09D1DDF800C0DCF800
S31508014F30CCC0012303FA0BF313EA0C0F01D03B464D
S31508014F4064E059465046FFF79BF903461C460CB9DF
S31508014F503B465BE023686FF35D732360236895F82E
S31508014F6008C06CF39E732360236813F0804F02D147
S31508014F706B689E0400E06E68236866F31C03236071
S31508014F8063686FF3D753636063686FF31F63636086
S31508014F90636895F84CC06CF313436360636895F8CE
S31508014FA000C06CF355536360636895F800C06CF3F1
S31508014FB01453636095F84C30082B02D24FF0000C5D
S31508014FC004E095F84C30083B1FFA83FC48F28873D5
S31508014FD0C0F6010313F80CE000260DE0B3000293B6
S31508014FE005F10C0959F80330DDF8089004F10808B1
S31508014FF048F80930731C9EB27645EFD3DDF8008078
S31508015000012303FA0BF3C8F8D0300023184605B07C
S31508015010BDE8F08FF0B405460C460DB11F2C01D939
S31508015020002225E02B460022D3F8CCC00126A64053
S3150801503016EA0C0F0AD0D3F8D4C00126A64016EA00
S315080150400C0F01D1012212E0032210E0D3F8D8C0D7
S315080150500126A64016EA0C0F01D0022207E0D3F872
S31508015060DCC00126A64016EA0C0F00D0042200BFB8
S315080150701046F0BC704770B404460D461646002328
S31508015080184670BC704700002DE9F0492DED048BD8
S3150801509087B09FEDC29AF6EE009A049003910592A5
S315080150A0069341F21C58C4F22608D8F800C01CF031
S315080150B0004F02D04FF0030C1BE2DDF810C008EEDA
S315080150C090CA9FEDB70AF8EE688AC8EE808A0598F5
S315080150D005EE900A0698F0EE002A05EE100AF8EE9B
S315080150E0655AB8EE455A62EEA55A85EE250A02F0CA
S315080150F013FB02F0CBF902F0BCFADDF80CC0DFEDC8
S31508015100A90A9FEDA91A01EE90CAB0EE408AF8EEF7
S31508015110611A60EEA80A21EE088A60EEA10A88EEF5
S31508015120208ADDF848C000EE10CADDF80CC09FEDF4
S315080151309F1AB8EE400A21EE000A00EE90CA20EE48
S31508015140280AF8EE600A20EE280AF0EE601A20EE28
S31508015150200A9FED971A20EE210A80EE010AF4EE45
S31508015160489AF1EE10FA08D89FED922AB4EE428ACF
S31508015170F1EE10FA01D2042469E0DFED8F2AB4EECC
S31508015180628AF1EE10FA01D2052460E0DFED8B0A9E
S31508015190B4EE608AF1EE10FA01D2062457E09FEDCB
S315080151A0883AB4EE438AF1EE10FA01D207244EE0AA
S315080151B0F6EE081AB4EE618AF1EE10FA01D2082465
S315080151C045E09FED801AB4EE418AF1EE10FA01D25C
S315080151D009243CE09FED7C2AB4EE428AF1EE10FAEE
S315080151E001D20A2433E0DFED792AB4EE628AF1EEC0
S315080151F010FA01D20B242AE0DFED750AB4EE608AB3
S31508015200F1EE10FA01D20C2421E0B7EE003AB4EE21
S31508015210438AF1EE10FA01D20D2418E0DFED6D1A7A
S31508015220B4EE618AF1EE10FA01D20E240FE0B4EE63
S31508015230498AF1EE10FA01D20F2408E0B4EE489A31
S31508015240F1EE10FA01D8002401E04FF0FF34B4F171
S31508015250FF3F02D14FF0010C4BE1F4EE489AF1EE13
S3150801526010FA07D8B4EE498AF1EE10FA02D24FF0D5
S31508015270010B09E0B4EE489AF1EE10FA02D84FF0A4
S31508015280000B01E04FF0FF3BBBF1FF3F02D14FF0AE
S31508015290010C2EE1F4EE489AF1EE10FA08D8DFED8A
S315080152A0460AB4EE608AF1EE10FA01D2022633E01C
S315080152B09FED431AB4EE418AF1EE10FA01D20326A4
S315080152C02AE0DFED401AB4EE618AF1EE10FA01D256
S315080152D0042621E09FED3D2AB4EE428AF1EE10FA4A
S315080152E001D2052618E0F7EE002AB4EE628AF1EE3D
S315080152F010FA01D206260FE0B4EE498AF1EE10FA49
S3150801530001D2072608E0B4EE489AF1EE10FA01D860
S31508015310072601E04FF0FF36B6F1FF3F02D14FF005
S31508015320010CE6E0B5EE400AF1EE10FA08DB9FED56
S315080153302A3AB4EE430AF1EE10FA01D201256CE0DD
S31508015340DFED263AB4EE630AF1EE10FA01D2022530
S3150801535063E09FED234AB4EE440AF1EE10FA01D256
S3150801536003255AE0DFED1F4AB4EE640AF1EE10FA9E
S3150801537001D2042551E0F2EE060AB4EE600AF1EE16
S3150801538010FA01D2052548E09FED171AB4EE410A35
S31508015390F1EE10FA2CD206253FE000BFCDCC8C3FAA
S315080153A000247449DB0F494000007A44E6E91D43AD
S315080153B0286B6E4ECDCC0C3F9A99193F6666263FEF
S315080153C03333333FCDCC4C3F9A99593F6666663F96
S315080153D03333733F6666863FCDCC0C40CDCC8C40CB
S315080153E03333D340CDCC0C413333534166667641D2
S315080153F05FED021AB4EE610AF1EE10FA01D2072541
S315080154000BE09FEDE22AB4EE420AF1EE10FA02D25F
S315080154104FF0FF3501E04FF0FF35B5F1FF3F02D1FF
S315080154204FF0010C65E09FEDDA5AF4EE458AF1EE8C
S3150801543010FA01DD00271AE0DFEDD62AF4EE628ABA
S31508015440F1EE10FA01DD012711E0DFEDD35AF4EE92
S31508015450658AF1EE10FA01DD022708E0F5EE408AC9
S31508015460F1EE10FA01DD032701E04FF0FF37B7F13E
S31508015470FF3F02D14FF0010C3BE04FF0030E41F222
S315080154804458C4F22608D8F800C0CDF800C0DDF8A3
S3150801549000C066F3020CCDF800C0DDF800C064F365
S315080154A0071CCDF800C0DDF800C06EF3092CCDF855
S315080154B000C0DDF800C067F38B2CCDF800C0DDF81D
S315080154C000C065F30E3CCDF800C0DDF800C041F21E
S315080154D04458C4F22608C8F800C041F21C58C4F260
S315080154E02608D8F800C06BF3410CC8F800C04FF085
S315080154F0000C604607B0BDEC048BBDE8F0892DE9C8
S31508015500F04481B006460F4615469A4605EB8500D6
S31508015510009053462A4639463046FFF7B5FD0446FC
S31508015520204601B0BDE8F0842DE93041044640F239
S315080155300005C4F2260541F21C5858F8051011F069
S31508015540004F01D0032119E041F21C5858F8051003
S3150801555041F0004148F8051003E00120FCF7C4FCBE
S31508015560641E41F2245858F8051011F0010F01D1B3
S31508015570002CF2D1002104B9022100BF0846BDE87A
S3150801558030812DE91041044641F21C58C4F226081F
S31508015590D8F8001041F08051C8F8001006E00CB99F
S315080155A002210EE00120FCF79FFC641E41F22058FF
S315080155B0C4F22608D8F8001011F001010129EED12C
S315080155C000210846BDE810812DE91041044641F243
S315080155D01C58C4F22608D8F8001041F00061C8F832
S315080155E0001006E00CB902210CE00120FCF77CFC56
S315080155F0641E41F22058C4F22608D8F80010C907DB
S31508015600F0D400210846BDE810812DE9F04982B0A1
S3150801561083460191002343EA1B634FEA0B241D4687
S315080156204FEA0B241D46002320462946019A02F01B
S31508015630C3FB02460B4616461F46B6F5807F77F131
S31508015640000208D24FF480220023B24273EB07020C
S3150801565001D2012216E0334641F22058C4F2260847
S31508015660D8F800200092C3F30922A2F1010C009A8E
S315080156706CF3194200921A468DF80120009AC8F86F
S3150801568000200022104602B0BDE8F0894DF8048DCD
S3150801569041F22058C4F22608D8F80000D8F80010BC
S315080156A0C1F30941491C0902C0F307200A1800EE93
S315080156B0902A9FED3A1AF8EE600A60EE810AB0EE7A
S315080156C0600A5DF8048B704770B405460C46042DD4
S315080156D007D2042C02DDB4F5807F02DBB4F58A7F9C
S315080156E001DD012224E0B4F5807F16DB40F20013C8
S315080156F0C4F2260303EB85031A6864F304021A60ED
S3150801570041F20023C4F2260303EB85031A684FF01E
S31508015710040C6CF302021A6009E041F20023C4F298
S31508015720260303EB85031A6864F302021A60002252
S31508015730104670BC70472DE910410446042C14D359
S3150801574048F2DC71C0F6010149F6B430C0F6010031
S31508015750182201F053FE4FF4C97149F6B032C0F66A
S31508015760010211600020FCF7CDFB00BF41F20023C6
S31508015770C4F2260303EB8402126802F00701042926
S3150801578015D140F20013C4F2260309E0CDCC8C41B1
S31508015790CDCCE441D7A3BA41000084410000803B47
S315080157A003EB84021268082161F35F1211B200BF8C
S315080157B00846BDE810812DE9F04B2DED028B89B025
S315080157C004460E46174641F23058C4F22608D8F860
S315080157D0003013F0004F01D0032316E146F60043CB
S315080157E0C0F2DC239E4205D346F60003C0F68913B0
S315080157F09E4201D9032308E100EE106A00EE904AA1
S31508015800B8EE400AF8EE600A80EE200A9FEDEA1A21
S31508015810B4EE410AF1EE10FA01DA0323F5E0022F9C
S315080158200BD141F23858C4F22608D8F8003067F38C
S315080158301D73C8F800300023E7E003A818220021E9
S3150801584001F099FF8DF81C7000238DF813309DF82F
S3150801585013305B1C03FB06F54FF68063C0F6F503B0
S315080158609D4203D304238DF8123020E046F2E42347
S31508015870C0F2BC639D4203D303238DF8123016E0B0
S3150801588045F21633C0F246539D4203D302238DF8DF
S3150801589012300CE045F6F033C0F2CE339D4203D305
S315080158A001238DF8123002E000238DF81230FA2315
S315080158B063435B1EB3FBF6F35B1CADF81030BDF812
S315080158C01000A5FB0089224618EB540049F1000196
S315080158D0002302F071FA03460393039B48F21F5C07
S315080158E0C5F2EB1C5B1EA3FB0CC35B095B1CADF885
S315080158F01630BDF816301433ADF814309DF8123051
S3150801590048F6180CC0F6010C0CEB830CDCED008A8A
S3150801591048F6040CC0F6010C0CEB830393ED000A60
S3150801592068EE808ABDF8103000EE104A08EE103A8B
S31508015930DFEDA20AB8EE488AB8EE400A28EE888A50
S3150801594020EE800A80EE088A9FED9D1A88EE018A6C
S315080159500B238DF8183014E09DF8183048F62C08FA
S31508015960C0F6010808EB830898ED000AB4EE480A68
S31508015970F1EE10FA00DA08E09DF818305B1E8DF892
S3150801598018309DF81830002BE6D10B238DF8193005
S3150801599020E09DF818309DF819C048F62C08C0F685
S315080159A0010808EB830898ED000A48F62C08C0F6AA
S315080159B0010808EB8C0898ED001A38EE400AB4EE97
S315080159C0401AF1EE10FA00DA08E09DF819305B1E6C
S315080159D08DF819309DF81930002BDAD100238DF88E
S315080159E0203000EE904ADFED771AF8EE600AC0EE35
S315080159F0A10ABCEEE02A12EE103AADF81A3003A855
S31508015A0000F009F803469B465B46184609B0BDEC0B
S31508015A10028BBDE8F08B2DE9700184B0044640F293
S31508015A200001C4F22601002241F2305858F801302B
S31508015A3013F0004F00D00322002A69D141F23058F1
S31508015A4058F801300093009BD4F800C06CF3110399
S31508015A500093009B94F807C06CF318630093009BAE
S31508015A6041F2305848F8013041F2345858F80130BB
S31508015A700193019BB4F804C06CF30C0301932389C9
S31508015A808DF8063063898DF80730019B41F2345849
S31508015A9048F8013041F2385858F801300293029B10
S31508015AA094F80CC06CF303030293029B94F80DC09F
S31508015AB06CF307130293029BB4F80EC06CF314231C
S31508015AC00293029B94F810C06CF31D730293029B18
S31508015AD041F2385848F8013041F23C5858F801303B
S31508015AE00393039B94F806C06CF30A230393039B61
S31508015AF0B4F812C06CF318430393039B94F814C0CB
S31508015B006CF39E730393039B41F23C5848F80130AA
S31508015B1000BF104604B0BDE8700170472DE91001B9
S31508015B2084B0044640F20001C4F2260141F230581D
S31508015B3058F801200092009AC2F311022260009AD5
S31508015B40C2F30062E27141F2345858F80120019219
S31508015B50019AC2F30C02A2809DF8062022819DF8C3
S31508015B600620628141F2385858F801200292029AB9
S31508015B7012F00F022273029AC2F303126273029A97
S31508015B80C2F30C22E281029AC2F30172227441F233
S31508015B903C5858F801200392039AC2F30222A271D3
S31508015BA0039AC2F308426282039AC2F3807222758B
S31508015BB004B0BDE810017047CDCC0C409A99593F05
S31508015BC000007A44002474492DE93041054640F223
S31508015BD00004C4F2260441F23C5858F8041041F076
S31508015BE0004148F8041016E08DB941F2305858F8CA
S31508015BF004106FF3DF7148F8041041F23C5858F865
S31508015C0004106FF3DF7148F80410022147E0012000
S31508015C10FCF76AF96D1E04F5AA52116811F0040F12
S31508015C20E2D041F2385858F80410022262F31D7185
S31508015C3048F8041041F2305858F8041041F0004170
S31508015C4048F8041016E08DB941F2305858F8041096
S31508015C506FF3DF7148F8041041F23C5858F8041004
S31508015C606FF3DF7148F80410022118E00120FCF7F0
S31508015C703BF96D1E04F5AA52116811F0010FE2D025
S31508015C8004F5AA52116841F00201116041F238582F
S31508015C9058F8041041F0405148F80410002108460C
S31508015CA0BDE830812DE91001044640F20001C4F235
S31508015CB0260141F2385858F80120022363F31D7270
S31508015CC048F8012041F2385858F80120002200E02E
S31508015CD0521CA242FCD341F2305858F801306FF3F6
S31508015CE0DF7348F8013041F23C5858F801306FF338
S31508015CF0DF7348F8013041F2385858F801306FF32C
S31508015D001D7348F8013041F2385858F8013000231C
S31508015D101846BDE8100170472DE9F04B8FB00C46C7
S31508015D200490049A12B1049A012A01D90122C8E001
S31508015D30049B5A1E41F20063C4F2260303EB820256
S31508015D40126812F0004F01D00322BAE022684DF61C
S31508015D502023C0F23C039A4206D322684BF66023FD
S31508015D60C0F2FC139A4201D90122AAE0237A4BF622
S31508015D702042C0F2BE021BB141F6E872C0F2A2028D
S31508015D806368934206D3626846F60003C0F6891330
S31508015D909A4201D9012294E00BAA48F65C05C0F69D
S31508015DA001050BCD0BC22B681360627A022A79D0E2
S31508015DB04FF0FF374FF0FF320192012570E0237A49
S31508015DC0162203B11322934661E0D4F800C0ACFB56
S31508015DD00B2309920A932A46002309980A9901F086
S31508015DE0EBFF02460292237A4CF20022C0F6EB320E
S31508015DF01BB14FF68062C0F62122029B93420CD357
S31508015E00237A48F20042C1F2D7721BB14CF2002242
S31508015E10C0F6EB32029B9A4200D236E06068A0FBDC
S31508015E200523DDF824C059084FEA32031CEB0306A3
S31508015E30DDF828C008910793A0FB052330464CEBF3
S31508015E40010101F0B9FF02461646022E00D20226CA
S31508015E50102E00D9102606FB05F2002309980A9987
S31508015E6001F0AAFF02460392039A6368D21AD3176E
S31508015E7082EA0307FF1A019A974206D2CDF82CB097
S31508015E800C950D96019707B907E00BF1010B237ADB
S31508015E90702203B13822934597D907B902E06D1CE0
S31508015EA0122D8CD9227A8DF83820627A8DF839200C
S31508015EB00BA9049800F009F802468DF803209DF80D
S31508015EC0032010460FB0BDE8F08B30B481B005460B
S31508015ED00C460DB1012D01D901225BE0A268022A07
S31508015EE002D3A268102A01D9012253E0626812B1CD
S31508015EF06268122A01D901224CE0227B0AB11322D7
S31508015F0003E0237B162203B11322236893420AD3A3
S31508015F10227B0AB1382203E0237B702203B138229F
S31508015F2023689A4201D2012234E06A1E41F20063D3
S31508015F30C4F2260303EB820212680092009A12F059
S31508015F40004F01D0032225E0627B022A13D0009A72
S31508015F50236863F306020092009A636863F30C22CE
S31508015F600092009AA36863F314420092009A237B75
S31508015F7063F3DB620092009A637B63F31D720092FE
S31508015F806A1E41F20063C4F2260303EB8202009BF8
S31508015F9013600022104601B030BC704770B481B05E
S31508015FA005460C460122FDB1012D1DD86B1E41F295
S31508015FB00066C4F2260606EB83031B680093009B62
S31508015FC013F07F032360009BC3F304236360009BE4
S31508015FD0C3F30443A360009BC3F301736373009B7C
S31508015FE0C3F3C0632373002200BF104601B070BC1F
S31508015FF0704770B504460D4601260CB3012C1FD80F
S31508016000641E41F20063C4F2260303EB84031A6893
S3150801601042F000421A6003E00120FBF765FF6D1E9E
S3150801602041F24063C4F2260303EB8402126812F0BC
S31508016030010F01D1002DEFD1002205B90222164622
S315080160403246104670BD2DE9F00405468C461646C3
S3150801605049F64C44C0F6010440F20003C4F2260393
S3150801606004F1040A00270322BCF1807F02D367608A
S3150801607001208AE0BCF1000F02D16760012084E0AB
S31508016080A07820B1D3F8480110F0004F7CD0012246
S31508016090B5F5C26F77DAB6F5C26F74DA01206070AA
S315080160A0B5F5807F0DDAD3F8440165F30300C3F82B
S315080160B04401D3F84001072161F30300C3F8400105
S315080160C021E0B5F5A06F06DAD3F8400165F30300C0
S315080160D0C3F8400117E0D3F84001C5F3032161F382
S315080160E00300C3F84001B5F5C06F06DAD3F84001DD
S315080160F065F30710C3F8400105E0D3F8400165F3DD
S315080161000B20C3F84001B6F5807F0DDAD3F84401B8
S3150801611066F30710C3F84401D3F84001072161F378
S315080161201340C3F8400123E0B6F5A06F06DAD3F8A9
S31508016130400166F31340C3F8400119E0D3F8400162
S31508016140C6F303216FF3134040EA0140C3F8400147
S31508016150B6F5C06F06DAD3F8400166F31750C3F8EF
S31508016160400105E0D3F8400166F31B60C3F840011E
S315080161700022C4F804C0D3F84801616861F3170026
S31508016180C3F8480100E067601046BDE8F0047047AF
S315080161902DE9F04907468B4649F64C44C0F60104F9
S315080161A040F24818C4F22608D8F8000010F0004F4B
S315080161B001D103201EE0606808B903201AE040F205
S315080161C04C18C4F22608D8F80000002620F07F45AE
S315080161D000206070A5FB0B23D4F804C006FB0B3323
S315080161E012EB5C00624643F10001002301F0E4FD75
S315080161F038600020BDE8F0892DE9F04984B00746EA
S3150801620040F20006C4F226068DF803100025002484
S31508016210A7F50042D31782EA030BABEB030BBBF5D9
S31508016220F67F4ED39DF8032032B943F2140858F885
S31508016230064014F03F0405E043F2202858F80640CA
S3150801624014F03F04B7F5004F0ED90023A7F5004215
S3150801625012F1F60043F100014FF4F67201F0ACFDBC
S31508016260024623469D1A0DE0C7F50042002312F1A6
S31508016270F60043F100014FF4F67201F09DFD024666
S315080162802346D5189DF803209AB94CF24008C4F262
S315080162902608D8F8002012F0030F01D0032211E0D6
S315080162A043F2140858F8062065F3050248F8062053
S315080162B007E043F2202858F8062065F3050248F856
S315080162C00620621B104604B0BDE8F0892DE9F04F9F
S315080162D083B040F20007C4F22607029049F64C4003
S315080162E0C0F6010000904FF0000B029801780129D1
S315080162F03FD10098417831B140F20208C0F2420814
S3150801630008F1FD0BB4E0009800210181002421E089
S315080163102CB941F2305858F80710C90F08E0611E28
S3150801632041F20062C4F2260202EB81010968C90F33
S3150801633079B12046FFF7FFF902280AD12046002144
S31508016340FFF7C2F900980121A1408BB201891943CF
S315080163500181641C022CDBD341F2385858F8071026
S31508016360022060F31D7148F8071000980121817019
S315080163707EE00298017808297AD1009801890029D6
S315080163806BD044F6403AC0F24C0A01E0AAF1010A80
S31508016390BAF1000F10D041F2245858F8071011F03D
S315080163A0020F06D141F2245858F8071011F00101DD
S315080163B000E002210229E9D1BAF1000F04D040F226
S315080163C0020BC0F2420B48E0002444E02CB941F22A
S315080163D0305858F80710C90F08E0611E41F20062EB
S315080163E0C4F2260202EB81010968C90F91B300982C
S315080163F002890121A14089B2114203D02046022116
S31508016400FFF762F944F64036C0F24C061BE02CB998
S3150801641007F5AA50016811F0010110E0FF25012CCA
S315080164200CD0611E012909D8A11E41F24062C4F2AD
S31508016430260202EB8101096801F0010529460129B5
S3150801644000D102E0761E002EE1D11EB140F2020B08
S31508016450C0F2420B641C022CB8D341F2385858F8E2
S31508016460071041F0405148F8071000980021817043
S31508016470584603B0BDE8F08F30B404460D460322F2
S31508016480104630BC70472DE93001044649F658429A
S31508016490C0F6010225460BCD0BC295E80B0082E832
S315080164A00B00012149F64C42C0F601021170002188
S315080164B00846BDE8300170472DE91001044641F24E
S315080164C01858C4F22608D8F8001011F0004F03D165
S315080164D000212160032110E049F64C42C0F6010271
S315080164E0117839B149F65842C0F60102116821609E
S315080164F0002102E00021216003210846BDE81001C0
S3150801650070472DE91001044641F22458C4F22608C1
S31508016510D8F8001011F0020F08D141F22458C4F23C
S315080165202608D8F8001011F0010100E0022119B976
S3150801653000212160032110E049F64C42C0F6010210
S31508016540117839B149F65842C0F6010291682160BD
S31508016550002102E00021216003210846BDE810015F
S3150801656070472DE91001044649F64C42C0F601026E
S31508016570117839B149F65842C0F6010251682160CD
S31508016580002102E00021216003210846BDE810012F
S3150801659070472DE91001044641F20858C4F226084D
S315080165A0D8F8001011F0004F03D100212160032112
S315080165B010E049F64C42C0F60102117839B149F6A4
S315080165C05842C0F60102D1682160002102E000218B
S315080165D0216003210846BDE8100170472DE9100125
S315080165E0044641F20C58C4F22608D8F8001011F0F6
S315080165F0004F03D100212160032110E049F64C42E6
S31508016600C0F60102117839B149F65842C0F60102BD
S3150801661011692160002102E0002121600321084659
S31508016620BDE8100170472DE91001044640F2100833
S31508016630C4F22708D8F80010490703D400212160BD
S31508016640032110E049F64C42C0F60102117839B12E
S3150801665049F65842C0F6010251692160002102E05B
S315080166600021216003210846BDE8100170472DE984
S315080166701041044641F20078C4F22608D8F8001001
S3150801668011F00701491E03D307D001290AD00EE0EC
S315080166902046FFF711FF01460CE02046FFF761FF90
S315080166A0014607E02046FFF72CFF014602E00021DC
S315080166B0216003210846BDE8108130B505460C4620
S315080166C02846FFF738F8B0F5887206D212F58772B0
S315080166D027D812D0921C0BD805E0521E12D316D019
S315080166E0032A19D01DE02046FFF7E6FE02461BE005
S315080166F02046FFF736FF024616E02046FFF701FF60
S31508016700024611E02046FFF744FF02460CE0204608
S31508016710FFF789FF024607E02046FFF75FFF0246BB
S3150801672002E0002222600322104630BD10B504465D
S3150801673021460020FFF7C1FF0146084610BD70B586
S3150801674004460D460026B44203D900222A600122D6
S3150801675005E02946621CD0B2FFF7AFFF0246104694
S3150801676070BD2DE9304187B004466846FFF7DEFF64
S3150801677001460D461DB100212160294633E001A8D5
S31508016780FFF7CCF99DF81410022903D1009921606D
S31508016790002128E041F23058C4F22608D8F8001042
S315080167A011F0004F03D10099216000211BE041F24D
S315080167B04058C4F22608D8F8001001F001021AB9A7
S315080167C00021216003210EE09DE8080103FB08F181
S315080167D0BDF80830B1FBF3F19DF80B305B1CB1FB3A
S315080167E0F3F121600021084607B0BDE830812DE9A3
S315080167F0F04485B004460D46002669462046FFF753
S315080168009EFF0246174617B12E603A464CE001A98B
S31508016810601CFFF7C3FB9DF81120022A03D1009AD9
S315080168202A60002240E000239C4202D92E60012200
S315080168303AE0FF2214F1010C0ED004F1010CBCF16F
S31508016840010F09D841F2406AC4F2260A0AEB840C00
S31508016850DCF800C00CF00102002A14BF4FF0010C4D
S315080168604FF0000CBCF1000F02D12E6003221BE091
S3150801687041F2006AC4F2260A0AEB8402126812F08F
S31508016880004F02D12E6003220EE0019ADDF800A026
S315080168900AFB02F2DDF808A0B2FBFAF2DDF80CA059
S315080168A0B2FBFAF22A600022104605B0BDE8F08470
S315080168B0F0B504460D460027621ED6B224B928460D
S315080168C0FFF74FFF02460CE0BE4205D8294630467F
S315080168D0FFF78DFF024604E029462046FFF7EDFE45
S315080168E002461046F0BD2DE9F04181B005460C4639
S315080168F0032D14D348F69101C0F6010149F6B430C7
S31508016900C0F60100182200F079FD4FF4D86249F665
S31508016910B030C0F6010002600020FBF7F3FA41F23D
S315080169204023C4F2260303EB8502126802F00F071F
S3150801693069463846FFF7BCFF024616461EB10022D5
S31508016940226032463AE0032D14D348F66C01C0F6AC
S31508016950010149F6B430C0F60100182200F04EFDD7
S3150801696040F2EE6249F6B030C0F60100026000203E
S31508016970FBF7C8FA41F2402CC4F2260C0CEB85024F
S3150801698012689206930F5A1E04D306D0022A08D318
S315080169900BD00EE0009A22600FE0009A520822609E
S315080169A00BE0009A9208226007E0009AD20822605A
S315080169B003E000222260032200E00022104601B013
S315080169C0BDE8F08110B504462046FFF7E2FD014611
S315080169D0084610BD2DE93041044640F20008C4F2CC
S315080169E02708D8F8001089058D0F691E03D307D02B
S315080169F0012909D00DE02046FFF715FE01460BE0F7
S31508016A0000212160012107E02046FFF7C2FD01466A
S31508016A1002E00021216003210846BDE830812DE905
S31508016A2030412DED028B81B0054641F22058C4F262
S31508016A302608D8F8001011F00101012901D0032117
S31508016A4018E06846FFF75DFD01460C460CB1214684
S31508016A5010E0FEF71BFEB0EE408A009900EE901A90
S31508016A60F8EE600AC0EE880ABCEEE01A11EE101ABA
S31508016A7029600021084601B0BDEC028BBDE83081D2
S31508016A802DE93041044641F20058C4F22608D8F8E7
S31508016A90001001F00705691E05D309D0C91E0CD0DF
S31508016AA001290FD013E02046FFF773FD014611E0D7
S31508016AB02046FFF7B8FD01460CE02046FFF78EFD9C
S31508016AC0014607E02046FFF7AAFF014602E000213A
S31508016AD0216003210846BDE8308110B504462046E9
S31508016AE0FFF7CEFF0146084610BD2DE9F04181B0FA
S31508016AF0054640F20006C4F2260641F2045858F843
S31508016B00061011F0004F01D1032154E041F2045857
S31508016B1058F8061040F2013201EA0207791E0AD333
S31508016B200FD0B1F5807113D0B1F580711AD0B1F5D6
S31508016B30807F21D02AE06846FFF7BEFC01460C4655
S31508016B4028E069460020FFF7CEFE01460C4621E003
S31508016B5069460020FFF7C7FE01460C460099490819
S31508016B60009117E069460020FFF7BDFE01460C4675
S31508016B700099890800910DE069460020FFF7B3FEE8
S31508016B8001460C460099C908009103E000212960D5
S31508016B90032110E01CB10021296021460BE041F2D6
S31508016BA00458009A58F80610C1F30741491CB2FB6C
S31508016BB0F1F129600021084601B0BDE8F0812DE90F
S31508016BC0304181B0054669460020FFF78CFE014633
S31508016BD00C461CB10021296021460DE040F2080847
S31508016BE0C4F22008009AD8F80010C1F30721491CFD
S31508016BF0B2FBF1F129600021084601B0BDE83081F8
S31508016C002DE9304181B0054669460020FFF76BFE44
S31508016C1001460C461CB10021296021460CE041F2CF
S31508016C200808C4F22008009AD8F80010090E491C71
S31508016C30B2FBF1F129600021084601B0BDE83081B7
S31508016C402DE9304181B005466846FFF7D9FF01466F
S31508016C500C460CB121460DE041F20808C4F22008A1
S31508016C60009AD8F80010C1F30721491CB2FBF1F1CB
S31508016C7029600021084601B0BDE8308110B50446F7
S31508016C802046FFF79CFF0146084610BD2DE9304115
S31508016C900446FBF73BF801460D46294604291FD849
S31508016CA00FF20408D8E801F003080D121700204670
S31508016CB0FFF7E6FE014616E02046FFF7FDFB014613
S31508016CC011E02046FFF71DFC01460CE02046FFF7C0
S31508016CD00CFF014607E02046FFF7D0FF014602E018
S31508016CE00021216003210846BDE8308170B50646BA
S31508016CF00C46F21E04D0921E521E01D9032A16D141
S31508016D002046FFF77DFF024615461DB10022226087
S31508016D102A460FE0720102F140221268C2F30722E5
S31508016D20531C2268B2FBF3F22260002202E0002221
S31508016D3022600122104670BD2DE9304181B0054619
S31508016D4069460020FFF7CFFD01460C461CB100211C
S31508016D50296021460DE040F20008C4F22408009A91
S31508016D60D8F8001011F00F01491CB2FBF1F12960A6
S31508016D700021084601B0BDE830812DE9704181B096
S31508016D8006460C4669460020FFF7ADFD0246154644
S31508016D901DB1002222602A4623E06EB941F200386D
S31508016DA0C4F22008009BD8F80020C2F30122521C25
S31508016DB0B3FBF2F2226013E0012E0DD141F28038C5
S31508016DC0C4F22008009BD8F80020C2F30122521C05
S31508016DD0B3FBF2F2226003E000222260012200E006
S31508016DE00022104601B0BDE870812DE9704181B0DD
S31508016DF006460C4669460020FFF775FD024615460C
S31508016E001DB1002222602A4623E06EB941F20038FC
S31508016E10C4F22008009BD8F8002012F00302521C85
S31508016E20B3FBF2F2226013E0012E0DD141F2803854
S31508016E30C4F22008009BD8F8002012F00302521C65
S31508016E40B3FBF2F2226003E000222260012200E095
S31508016E500022104601B0BDE870812DE9304181B0AC
S31508016E60054669460020FFF73EFD01460C461CB162
S31508016E700021296021460DE041F2C438C4F22008F8
S31508016E80009AD8F80010C1F30121491CB2FBF1F1AF
S31508016E9029600021084601B0BDE830812DE930415D
S31508016EA081B0054669460020FFF71DFD01460C46DF
S31508016EB01CB10021296021460DE041F2C438C4F213
S31508016EC02008009AD8F8001011F00301491CB2FBFA
S31508016ED0F1F129600021084601B0BDE830812DE9AC
S31508016EE0F04986B08DF80300039148F62812C0F6DA
S31508016EF0010214689DF803206E2A14D348F600117E
S31508016F00C0F6010149F6B430C0F60100182200F0B6
S31508016F1075FA40F6F30249F6B030C0F60100026090
S31508016F200020FAF7EFFF9DF803C040F60043C4F2CC
S31508016F30000303EB8C02126892054FEA927B4FEA33
S31508016F408C02D75817F0FF07BBF1020204D364D0AD
S31508016F50012A00F0E3805FE15E463D46721E03D3D7
S31508016F6006D0022A08D00BE0202D0BD301220AE015
S31508016F70102D07D3012206E0082D03D3012202E0D2
S31508016F80012200E00022A2B148F6DB01C0F60101A8
S31508016F9049F6B430C0F60100182200F02FFA40F283
S31508016FA0F97249F6B030C0F6010002600020FAF71E
S31508016FB0A9FF46B9AB0041F20005C4F200055A59CA
S31508016FC01204120E1FE0012E08D1AB0041F2004552
S31508016FD0C4F200055A591202120C14E048F6DB01F4
S31508016FE0C0F6010149F6B430C0F60100182200F0D6
S31508016FF005FA40F6050249F6B030C0F6010002600E
S315080170000020FAF77FFF23466FF354131204D20ABE
S3150801701043EA020424F01F0415E15E463D46721E4A
S3150801702003D306D0022A08D00BE0202D0BD3012268
S315080170300AE0102D07D3012206E0082D03D3012209
S3150801704002E0012200E00022A2B148F6B601C0F62C
S31508017050010149F6B430C0F60100182200F0CEF954
S315080170604FF4066249F6B030C0F60100026000200E
S31508017070FAF748FF00220122A2B948F6B601C0F67E
S31508017080010149F6B430C0F60100182200F0B6F93C
S3150801709040F6610249F6B030C0F6010002600020F0
S315080170A0FAF730FF022E0BD1AA0041F60003C4F20B
S315080170B00003D658D5583602360C2D06ED0E21E0BA
S315080170C0032E0AD1AA0041F60043C4F20003D6589A
S315080170D0D558360A2D06ED0E14E048F6B601C0F667
S315080170E0010149F6B430C0F60100182200F086F90C
S315080170F040F66F0249F6B030C0F601000260002082
S31508017100FAF700FF22466FF354123304DB0A42EA08
S315080171100304224665F30402144694E05E463D469E
S31508017120721E03D306D0022A08D00BE0202D0BD3FA
S3150801713001220AE0102D07D3012206E0082D03D308
S31508017140012202E0012200E00022A2B148F6B601BE
S31508017150C0F6010149F6B430C0F60100182200F064
S315080171604DF94FF4066249F6B030C0F601000260E7
S315080171700020FAF7C7FE00220122A2B948F6B60195
S31508017180C0F6010149F6B430C0F60100182200F034
S3150801719035F940F6610249F6B030C0F601000260E1
S315080171A00020FAF7AFFE022E0BD1AA0041F6000322
S315080171B0C4F20003D658D5583602360C2D06ED0E04
S315080171C021E0032E0AD1AA0041F60043C4F20003C6
S315080171D0D658D558360A2D06ED0E14E048F6B601EE
S315080171E0C0F6010149F6B430C0F60100182200F0D4
S315080171F005F940F66F0249F6B030C0F601000260A3
S315080172000020FAF77FFE224666F35C1214462246F0
S3150801721065F30402144616E048F62C11C0F601017E
S3150801722049F6B430C0F60100182200F0E7F840F636
S315080172302F3249F6B033C0F601031A600020FAF777
S3150801724061FE00BF00BF01A8FFF7DAFC02468DF810
S3150801725002209DF8022012B19DF802200AE0019A47
S315080172600023500143EAD261224600F0A5FD039BA3
S3150801727018600022104606B0BDE8F0892DE9F04BEA
S3150801728089B08B468DF80300069205939DF8034055
S31508017290641E03D307D0022C0AD00EE0BBF1200FDF
S315080172A00DD301240CE0BBF1100F08D3012407E02C
S315080172B0BBF1080F03D3012402E0012400E00024F6
S315080172C0012C02D14FF0010C94E001A8FFF798FCBC
S315080172D0DDF804C000254FEA4C164FEA4C1645EA7C
S315080172E0DC652F462F46002330463946069A00F0BC
S315080172F063FD04460D4602949DF803C0BCF1020FD6
S315080173002FD1202C75F1000C0AD24FF4001C4FF036
S315080173100009A44579EB050C02D24FF0010C69E08E
S31508017320DDF8088041F6000EC4F2000E0EEB8B095B
S31508017330C8F34F1CACF1010ED9F800C06EF3172C37
S31508017340C9F800C041F6000EC4F2000E0EEB8B0917
S31508017350DDF80880D9F800C068F3C70CC9F800C081
S3150801736037E09DF803C0BCF1030F2FD1202C75F12E
S31508017370000C0AD24FF0005C4FF00009A44579EBE6
S31508017380050C02D24FF0010C34E0DDF8088041F615
S31508017390004EC4F2000E0EEB8B09C8F3571CACF174
S315080173A0010ED9F800C06EF31F2CC9F800C041F6CA
S315080173B0004EC4F2000E0EEB8B09DDF80880D9F8F1
S315080173C000C068F3C70CC9F800C002E04FF0010C11
S315080173D010E0DDF814C0BCF1000F09D022462B4697
S315080173E03046394600F0E8FCDDF814C0CCF8000058
S315080173F04FF0000C604609B0BDE8F08B41EA000C7D
S3150801740003461CF0030F20D151F804CB1CF0FF0FE3
S3150801741010D01CF47F4F0DD01CF47F0F0AD01CF03E
S315080174207F4F07D0121F28BF43F804CBECD82CD0C6
S3150801743002F10402521E28BF03F801CB25D91CF01C
S31508017440FF0F0CD04FEA1C2CF4E711F801CB521EA2
S3150801745028BF03F801CB18D9BCF1010FF5D213F0F7
S31508017460030F04D003F801CB521EF8D870474FF02A
S31508017470000C121F28BF43F804CBFAD805D002F135
S31508017480040203F801CB521EFBD870472DE9E048E8
S3150801749082B08DE803000A4650EA0106034600F069
S315080174A0DB8040F20006C7F6F076B14280F0CA806A
S315080174B0C1F3824048F65411C0F60101085C15155E
S315080174C04FEAC22141EA53524FEAC32302D042F09E
S315080174D0004211E001252AB96FF01E051A1E4FF068
S315080174E000030CD0B2FA82F16D1A8A40C1F1200666
S315080174F023FA06F632438B4015F0010F03D05908DB
S3150801750041EAC27352086FF4E0516D1A40F2FE3136
S31508017510C00501EB550540F00041A2FB0160A0FB47
S315080175200160C0F14040A0FB01104100A2FB0160CF
S31508017530A0FB0160C0F14040A0FB01104100A2FB85
S315080175400160A0FB0160C0F14040A0FB01104000B2
S31508017550A2FB0061A3FB006702FB007CBC4538BFA8
S315080175600131A1FB0067ACFB006C01FB00C1614561
S315080175702CBFBC4607F1010C4E426FEA0C0108BF4D
S315080175800131A1F1804CACFB0071A6FB00760CFB26
S315080175900060864288BF0131C60F46EA41064700A8
S315080175A0A7FB030EA6FB0331A6FB02CB1EEB030EBC
S315080175B05CEB010CA7FB02214BF1000B1EEB020E43
S315080175C05CEB01014BF1000BDC46A6FB0BBEA6FBEF
S315080175D00136A7FB0102D2185BEB060BA7FB0C369B
S315080175E04EF1000ED2185BEB060B4EF1000EDBF1E5
S315080175F000066FEA0E0008BF0130A0F18040A1FB2A
S315080176000627ACFB0023ACFB066CBF1952EB0C0238
S31508017610A1FB000C43F100033F1852EB0C0243F1A6
S31508017620000302F58071B1F5807F2CBF1846581CFE
S31508017630C20542EA5122400A00EB055110468DE87F
S31508017640030009E0002907DC53EA410204D002B02D
S31508017650BDE8E04800F003B802B0BDE8E08800B52F
S31508017660212000F02CFB002040F20001C7F6F8713A
S3150801767000BD01F0004221F0004111F580131CD430
S31508017680A1F16051A1F58013B3F17E6F4FEAC003F2
S3150801769018D210F1805041F10001B3F1004F08BF33
S315080176A020F000504FEAC10323F0004343EA50702B
S315080176B040EA020000EE100A7047004218BF40F087
S315080176C00050EFE721DA4FEA215CCCF1090CBCF155
S315080176D0200F17D84FEAC121C30241EA5050CCF115
S315080176E0200340F0004000FA03F318BF43F00103FA
S315080176F020FA0CF0B3F1004F28BF401C08BF20F058
S315080177000100D5E700EE102A7047A2F5000080F0C7
S31508017710004000EE100A704710EE100A10F0FE4FF6
S315080177200FD042004FEA40704FEA1211A1F1904181
S3150801773038BF81F0004112F1807228BF41F0F04153
S315080177407047420013D0B2FA82F000F1010C02FA36
S315080177500CF34FEA13314FEA03500CF1770CA1EB06
S315080177600C5134BF81F0404181F080417047014698
S315080177704FF00000704761B410F0030F06D0521E97
S315080177803BD300F8011B10F0030FF8D101F0FF0CF1
S315080177904CEA0C2C402A4CEA0C4C1FD3A2F14002AD
S315080177A0634665466646A0E86810A0E86810403A50
S315080177B0A0E86810A0E86810F5D240321DD012F092
S315080177C0200F1CBFA0E86810A0E8681012F0100F7F
S315080177D018BFA0E8681012F00F020ED0121F06D3C8
S315080177E040F804CB121F02D340F804CBF6E7121D6A
S315080177F003D000F8011B521EFBD161BC7047E1B5ED
S31508017800121F45DB4FF00305054012D0C5F10405EB
S31508017810022D11F8013B00F8013B08DB11F8013B89
S3150801782000F8013B03DD11F8013B00F8013B521B4F
S315080178302EDB4FF003050D403DD1083A1CDB143A07
S3150801784011DBB1E86840A0E86840B1E86840A0E803
S315080178506840203AF5DA12F1100FA2BFB1E8684084
S31508017860A0E86840103A1432A1BFB1E82840A0E860
S315080178702840B2F10C02F7E7083209DB121FB9BF3B
S3150801788051F8043B40F8043B28C928C0A8BF121F79
S31508017890121D00F08F80022A11F8013B00F8013B06
S315080178A0A4BF11F8013B00F8013BC4BF11F8013B25
S315080178B000F8013B7EE021F0030151F804EB022DAB
S315080178C028DC4FD00C2A18DBA2F10C024FEA1E2342
S315080178D0B1E8E04043EA05634FEA152545EA06653E
S315080178E04FEA162646EA07664FEA172747EA0E675A
S315080178F0E8C0103AEADA0C3209DB4FEA1E2551F8DC
S3150801790004EB45EA0E6540F8045B121FF5DAA1F1AE
S315080179100301BDE70C2A18DBA2F10C024FEA1E632C
S31508017920B1E8E04043EA05234FEA156545EA06252D
S315080179304FEA166646EA07264FEA176747EA0E2709
S31508017940E8C0103AEADA0C3209DB4FEA1E6551F84B
S3150801795004EB45EA0E2540F8045B121FF5DAA1F19E
S31508017960010195E70C2A18DBA2F10C024FEA1E4326
S31508017970B1E8E04043EA05434FEA154545EA0645BD
S315080179804FEA164646EA07464FEA174747EA0E47B9
S31508017990E8C0103AEADA0C3209DB4FEA1E4551F81B
S315080179A004EB45EA0E4540F8045B121FF5DAA1F12E
S315080179B002016DE7BDE8E14070472DE980478C4635
S315080179C092B0964647F27771C0F601019A4640F29F
S315080179D00003C0F20003002747F6E149C0F6010992
S315080179E007AA069147F2FF71C0F60101984682E897
S315080179F00A57D0F8048040F20002C0F200020830AB
S31508017A000092CDF8148090E80C5491460E9702978F
S31508017A100F9710971A466346F446D0F814E0039771
S31508017A201197F4452FD048F28442C0F60102ACEB17
S31508017A300A00624528BF964598BF474247F27772C2
S31508017A40C0F60102624528BF964510D8024406923F
S31508017A50089A0144079140F2000CC0F2000C811803
S31508017A600991BCF1000F1CBF00EB0C010091DDF878
S31508017A7028C0D44528BF63451DD89A451CBFACEB21
S31508017A8000000A9017E040F28000C0F60100A0EB62
S31508017A90080148F2C040C0F60100A0EB090348F608
S31508017AA0E870C0F601000291A0EB02080FA8CDF814
S31508017AB00C8080E80A0148F28440C0F6010000EB18
S31508017AC0070A48F29C40C0F6010000EB070948F294
S31508017AD09C40C0F60100CDF80490002818BF07EBBA
S31508017AE00009039805900EE0BAE80D000599DDF83E
S31508017AF01880084411461A46C047CA45F4D10020E1
S31508017B00DDF80490059001988245F6D148F29C402B
S31508017B10C0F6010000EB070A48F2B440C0F60100BE
S31508017B203844059048F2C040C0F601003844069032
S31508017B301FE00598824534BFDDF80CC0DDF808C0A2
S31508017B40BAE80301029A0CEB000948461144424679
S31508017B50DDF81C800192C047DDF80080B8F1000FFE
S31508017B6007D00598824504D39DE800116146484629
S31508017B70C04706988245DCD10898B8B348F2C04098
S31508017B80C0F6010000EB070A48F2C040C0F6010042
S31508017B903844079048F2C040C0F6010038440890BE
S31508017BA021E00798824534BFDDF80CC0DDF808C02E
S31508017BB05AF8040B0CEB00030693BAE80101029A82
S31508017BC0111842461846DDF82480C047DDF80080C2
S31508017BD00146B8F1000F06D00798824503D30698E7
S31508017BE0DDF80080C04708988245DAD140F20000E6
S31508017BF0C0F20000002858D048F28440C0F60100BF
S31508017C0000EB070C48F28440C0F60100C11948F29E
S31508017C108440C0F601006145384446D0039A40F2D3
S31508017C200007C0F20007D71B39443CE010F801AB46
S31508017C300DF13808CAF3011258F822305CF8047BB2
S31508017C401F447A7897F802E097F90330120242EA5C
S31508017C500E4E3A781AF0800F4EEA036E42EA0E0E7D
S31508017C6002D0BEF1000F1ED04FEA8A731B0F58F8D7
S31508017C700330C3B11AF0080F18BF4FEA8E0E9E449F
S31508017C801AF0080F18BF4FEAAE0E87F800E04FEA60
S31508017C901E2E87F801E04FEA1E2E87F802E04FEA0A
S31508017CA01E2E87F803E08C45C0D10AA890E8001774
S31508017CB04A4661465046C04712B0BDE8808749F634
S31508017CC07041C0F601010860704749F67040C0F678
S31508017CD00100704749F67041C0F60101086870470E
S31508017CE02DE9804507468846924640F20000C0F2D3
S31508017CF0000086B0002818BFC046C04648F2834037
S31508017D00C0F60100002818BF00F0BBFB40F20000D6
S31508017D10C0F20000002818BFC046C04640F2000065
S31508017D20C0F20000002818BFC046C04640F2000055
S31508017D30C0F20000002818BFC046C04640F2000045
S31508017D40C0F20000002818BFC046C04640F2000035
S31508017D50C0F20000002818BFC046C04640F2000025
S31508017D60C0F20000002818BFC046C04640F2000015
S31508017D70C0F20000002818BFC046C0467FB98DF87A
S31508017D8002708DF803700DF102080DF1030002A9C6
S31508017D90BA4681E881058A460DF11008012749F698
S31508017DA07440C0F6010052464146C0F800A0384664
S31508017DB0F8F7B0FA00F0FBFA00B511B100F00AF8CD
S31508017DC000BD0BB1084600BD0146104600F06EFA2B
S31508017DD0002100BD2DE9E04F92B052EA03050E924B
S31508017DE00F9300F060821D00174608920CBF01260A
S31508017DF00026002E18BF1546B5FA85F505EB461C73
S31508017E00551E63F100062A4006EA0305154306D105
S31508017E10CCF13F0212B0BDE8E04F00F0B2BA0E9ABB
S31508017E200F9B904271EB030502D2002001463AE20C
S31508017E30BCF1000F02D10120614634E26FF0004225
S31508017E40BCF1200F4FF6FF7EC0F2BA80D1BB08996C
S31508017E500546CCF1400CCCF1200011FA00F001D115
S31508017E60012025E0111AA0FB01677E42A6FB011637
S31508017E707100A0FB01677E42A6FB01167100A0FBFB
S31508017E8001677E42A6FB01167100A0FB01677E42CF
S31508017E90A6FB0116B1000339A0FB0167C619891BA8
S31508017EA0A0FB0167C619891BA0FB01673844081A9C
S31508017EB0A5FB0001ACF10102681A01EB5000D040A4
S31508017EC00021F0E1BCF1300F7ADB089B0D0C01EAC9
S31508017ED00E06010C00EA0E07CCF1400CADF8243071
S31508017EE098B2CCF12003984008BF012034D0A2EB08
S31508017EF0000BA0FB0BE3C3F1000EAEFB0BBE4FEA72
S31508017F004E0BA0FB0BE3C3F1000EAEFB0BBE4FEA13
S31508017F104E0BA0FB0BE3C3F1000EAEFB0BBE4FEA03
S31508017F204E0BA0FB0BE3C3F1000EAEFB0BBE4FEAF3
S31508017F308E0BABF1030BA0FB0BE300EB030EABEBD4
S31508017F400E0BA0FB0BE300EB030EABEB0E0BA0FB3A
S31508017F500BE31844ABEB0000A5FB003EBDF824205B
S31508017F60ACF1010CA5EB0E0B0EEB5B0B2BFA0CFB24
S31508017F7002FB1B5346EA0346A6FB00E5731B05EB0A
S31508017F80530525FA0CF502FB156641EA0646A6FBDA
S31508017F9000E1731A01EB530121FA0CF102FB116698
S31508017FA047EA0642A2FB0006ADB2901B06EB50005B
S31508017FB020FA0CF080B240EA014045EA0B4172E131
S31508017FC04FEA2C13C3F1040ABCF1000F1DD0BCF112
S31508017FD0000F02D10F9F0E9D14E0BCF11F0F3D4605
S31508017FE005D9ACF1200705FA07F700250AE00F9F26
S31508017FF0CCF1200B25FA0BFB05FA0CF507FA0CF761
S315080180004BEA07070F970E9508950CF00F070D0C0D
S315080180101CD10FB90D460EE01F2F05D9A7F1200176
S3150801802000FA01F5002006E0B940C7F1200520FA5B
S3150801803005F50D43B840013B290CADF81210060CA5
S31508018040002705EA0E0500EA0E0123E04FF00009B4
S31508018050ADF81290CFB1C7F1100C25FA0CFCADF8AA
S3150801806012C00FB90D460EE01F2F05D9A7F1200141
S3150801807000FA01F5484606E0B940C7F1200520FA9D
S3150801808005F50D43B84029460D0C01EA0E06010C0B
S3150801809000EA0E070F984FF000094FEA104BADF8AA
S315080180A01E000898C8464FEA104CADF826C0ADF830
S315080180B02400ABF1010010EA0B0F9C4614BF1020F7
S315080180C00F200BAB83E80103C0F120031BFA03F071
S315080180D001D101202EE0A2EB000EA0FB0E32534285
S315080180E0A3FB0EE34FEA430EA0FB0E325342A3FB5A
S315080180F00EE34FEA430EA0FB0E325342A3FB0EE3F7
S315080181004FEA430EA0FB0E325342A3FB0EE34FEA9E
S31508018110830EAEF1030EA0FB0E328318AEEB030EEF
S31508018120A0FB0E328318AEEB030EA0FB0E321044F1
S31508018130AEEB00004FEA0C120A9006924FF6FF705A
S31508018140BDF812205A4503D14FF4803E2B4618E05C
S3150801815045EA02430A9AA3FB022EDDF82C80A8F110
S315080181600108A3EB0E020EEB520E2EFA08FE0BFBCC
S315080181701E33BDF81E800EFB08F246EA0348424547
S3150801818009D9AEF1010E5B44B3F5803FF1D3BDF8D1
S315080181901E300EFB03F200231AF0040F08D0BDF8B7
S315080181A024800EFB187303EA00071B0C5B429BB283
S315080181B01AF0050F09D0BDF826800EFB1811CB1A47
S315080181C003EA00011B0C5B429BB2B61AF61A0EFBB8
S315080181D01B55330C5B42BDF812209BB20640ED1AC3
S315080181E02B0C5B429BB2D31A1A0C1CBFAEF1010EC3
S315080181F0BCF1000F1CD01AF0040F06D0BDF82420DC
S315080182003A44134403EA00071B0C1AF0050F06D07B
S31508018210BDF8262011440B4403EA00011B0CBDF8E6
S315080182201E205D443244134403EA000605EB134558
S315080182300022CDF840E05FEA0C13119201D11346F2
S3150801824016E01F2B07D9069AA2F120030EFA03F3AB
S315080182504FF0000E0CE0119B4FEA0C1203FA02F8DC
S31508018260C2F120032EFA03F343EA08030EFA02FECB
S31508018270DDF83480ADF8125035460E460C9948EAB9
S315080182800303DDF818800D9341EA0E020C92394674
S31508018290A8F11008CDF818800027BCF1010CBFF42D
S315080182A04FAF1046194612B0BDE8E08F4FF00003F4
S315080182B0020057D0B2EB112F98BF4FEA0222F9D329
S315080182C0B2EB510F42D8B2EB910F3AD8B2EBD10FBC
S315080182D030D8B2EB111F26D8B2EB511F1CD8B2EB1E
S315080182E0911F12D8B2EBD11F08D8B1EBC21F43EBCD
S315080182F0030328BFA1EBC211B1EB821F43EB0303B2
S3150801830028BFA1EB8211B1EB421F43EB030328BF40
S31508018310A1EB4211B1EB021F43EB030328BFA1EB0B
S315080183200211B1EBC20F43EB030328BFA1EBC20154
S31508018330B1EB820F43EB030328BFA1EB8201B1EB3B
S31508018340420F43EB030328BFA1EB4201914243EBE2
S31508018350030328BF891A824288BF4FEA1222C4D171
S315080183601846704740F20002C0F20002002AF8D00F
S31508018370104700B5FFF79AFF084600BD002B18BF46
S315080183804022402A88BF4022D2F1200306DAA2F110
S31508018390200321FA03F04FF00001704720FA02F09A
S315080183A001FA03FC40EA0C0021FA02F1704720B5F4
S315080183B0054640F20000C0F2000010B12846C0464A
S315080183C0C04640F20000C0F2000008B1C046C046EF
S315080183D0284600F001F820BD60B582B0064600F0D7
S315080183E04EF849F67841C0F601010D6802E02868A1
S315080183F080476D68002DFAD140F20000C0F20000F6
S3150801840008B1C046C04600F03BF83146022000F0EC
S3150801841011F800BFFDE760B5064649F67845C0F68E
S31508018420010500F02CF828682E60706000F028F825
S3150801843060BD000080B54AF28107C0F60107BC4657
S315080184404FF00007E04703D3FFF739FC6FEA07004F
S3150801845080BC08BC184700BF80B54AF28107C0F640
S315080184600107BC464FF00007E04705D3FFF727FC95
S315080184706FEA07006FEA070180BC08BC1847704716
S31508018480704770476896010800000000140600004E
S315080184907C9C01080000000000000000E88F01082C
S315080184A0688901087906000061960108E18F0108CB
S315080184B00000000080A0010860890108040000008E
S315080184C0E88F0108FFFF0108000000000000000016
S315080184D0000000000000000000000000000000008D
S315080184E0000000000000000000127A0000000000F1
S315080184F00024F400008000000080000000800000D5
S315080185002E2E5C2E2E5C7372635C73797374656DA3
S315080185105C7265765F645C73797374656D5F747696
S3150801852069696265316D5F636D342E630000000011
S315080185302E2E5C2E2E5C7372635C6170706C69639F
S315080185406174696F6E5C5461736B536368656475B6
S315080185506C65722E630000006300000001000000D4
S3150801856000000000000000000000000000000000FC
S3150801857000000000000000000000000003000000E9
S3150801858000000000000000000000000000000000DC
S3150801859003000000000000000300000000000000C6
S315080185A003000000000000000300000000000000B6
S315080185B003000000010000000000000000000000A8
S315080185C00200000001016060000000000006314061
S315080185D0010000000000000008000000150000006E
S315080185E0000000000000000000000000000000007C
S315080185F0000000000000000000000000000000006C
S3150801860000000000000000000006314000000000E4
S31508018610010000000E000000150000000000000027
S31508018620000000000000000000000000000000003B
S31508018630000000000000000000000000000000002B
S31508018640000000003B00030001000000000020BC00
S31508018650010020B8100001E002000080200001E0BE
S315080186600300008000000000E8030000000000008D
S3150801867000000000000000000000000000000000EB
S315080186802E2E5C2E2E5C2E2E5C636F6D6D6F6E5CCE
S315080186907372635C647269766572735C73797374F9
S315080186A069636B5C63795F7379737469636B2E6352
S315080186B0002E2E5C2E2E5C2E2E5C636F6D6D6F6EFA
S315080186C05C7372635C647269766572735C737973E1
S315080186D07469636B5C63795F7379737469636B2E11
S315080186E063002E2E5C2E2E5C2E2E5C636F6D6D6FD5
S315080186F06E5C7372635C647269766572735C7379B6
S31508018700737469636B5C63795F7379737469636B9B
S315080187102E630000000000000000000000000000B9
S315080187200000000000000000000000002E2E5C2E54
S315080187302E5C2E2E5C636F6D6D6F6E5C7372635C5F
S31508018740647269766572735C7363625C63795F737D
S3150801875063625F6932632E63002E2E5C2E2E5C2EB9
S315080187602E5C636F6D6D6F6E5C7372635C647269A8
S31508018770766572735C7363625C63795F7363625F68
S315080187806932632E630000000203040506080C1013
S3150801879000000000000000000000000000000000CA
S315080187A000000000000000000000000000000000BA
S315080187B000000000000000000000000000000000AA
S315080187C0000000000000000000000000000000009A
S315080187D00000000000000000000000002E2E5C2EA4
S315080187E02E5C7372635C647269766572735C737905
S315080187F073636C6B5C63795F737973636C6B2E63FC
S315080188000000000000502A4700F4624700C8964756
S31508018810002CC94700E80048E02D903AE02D903A2F
S31508018820E02D903AE02D903AAF5A993A0000803BF4
S315080188300000003C0000803C0000003D0000803D37
S315080188400000003E0000803E0000003F0000803F1F
S3150801885000000040000080400000004100000000C8
S315080188600000000000000000000000002E2E5C2E13
S315080188702E5C7372635C647269766572735C737974
S3150801888073636C6B5C63795F737973636C6B2E6866
S31508018890002E2E5C2E2E5C7372635C64726976659B
S315080188A072735C737973636C6B5C63795F737973E9
S315080188B0636C6B2E68002E2E5C2E2E5C7372635CC5
S315080188C0647269766572735C737973636C6B5C63E6
S315080188D0795F737973636C6B2E68002E2E5C2E2E6E
S315080188E05C7372635C647269766572735C737973BF
S315080188F0636C6B5C63795F737973636C6B2E680069
S315080189002E2E5C2E2E5C7372635C647269766572B8
S31508018910735C737973636C6B5C63795F7379736387
S315080189206C6B2E6800000000000000002E2E5C2EE5
S315080189302E5C7372635C647269766572735C7379B3
S3150801894073636C6B5C63795F737973636C6B2E63AA
S311080189500000000057361D09FEB693779B
S30908018960C046704747
S31508018968EC8F01086B0301086B0301086B03010807
S315080189786B0301086B0301086B0301086B03010804
S315080189886B0301086B0301086B0301086B030108F4
S315080189986B0301086B0301086B0301086B030108E4
S315080189A86B0301086B0301086B0301086B030108D4
S31508018EE86B0301086B030108120103000100010065
S31508018EF811000300010000000000000087100108A6
S31508018F080000000000000000000000000000090041
S31508018F180401010000000000000000000000000034
S31508018F28020000004C860108020000005486010868
S31508018F38FFFFFF1F020201010700000700000000EA
S31508018F480000000004040000000052400000000070
S31508018F5800000000000000000000000000000000FA
S31508018F680002524000000000000000000000000056
S31508018F780000000000000000000452400000000044
S31508018F8800000000000000000000000000000000CA
S31508018F980000544000000000000000000000000026
S31508018FA80000000000000000000254400000000014
S31508018FB8000000000000000000000000000000009A
S31508018FC800045440000000000000000000000000F2
S30E08018FD800000000000000000180
S505000008FFF3
S7050801008E63
