S00F0000636D30706C75732020200000CC
S31510000000881B00088F000010350100103901001000
S3151000001000000000000000000000000000000000CA
S315100000200000000000000000000000005101001058
S315100000300000000000000000690100106B010010B4
S31510000040610300108F030010BB030010E7030010BC
S31510000050130400103F0400106B04001097040010E6
S315100000606D0100106F010010710100107301001076
S315100000707501001077010010790100107B01001046
S31510000080EFF3108072B6704780F31088704772B61F
S31510000090154816490860BFF34F8F0120C004144954
S315100000A00A6802430A6013490A6802430A60124941
S315100000B00A6802430A6000200021124A03C26A45F8
S315100000C0FCD10E4FB847114D6D1E7A46551B0020B8
S315100000D083460F48401900210022002300240025E2
S315100000E00026074FB847FEE70000001008ED00E0B5
S315100000F00013204080132040A013204085010010DB
S3151000010029820010881A0008871B0008CF000010EB
S31510000110140100100100000080000010548E001021
S315100001200008000800000000000000000000001099
S3151000013000800810FEE7FEE704207146084202D050
S31510000140EFF3098001E0EFF3088000B50B4988470B
S3151000015004207146084201D0EFF30980EFF30880BE
S3151000016000B50749884700BDFEE7FEE7FEE7FEE754
S31510000170FEE7FEE7FEE7FEE7FEE7FEE7CB1F001011
S315100001800720001000B500F005F800F07EF800F02A
S315100001908EF800BDF0B582B0544E554A03CA009091
S315100001A00191002510E0E80069460818006840072C
S315100001B000D0FEE7E800694608184068013040079D
S315100001C000D0FEE70135EDB2002DECD030684007C7
S315100001D000D0FEE7474908680130400700D0FEE727
S315100001E0002441E0E000694608180068002811D094
S315100001F00021E0006A46101832680068904207D85D
S31510000200E0006A46101832684068904200D3012117
S31510000210084609E0E00069460818316840688842D7
S3151000022001D2002000E00120002811D030686A4673
S31510000230411EE0001018006800F01AF82D4AE00080
S315100002406946081841681068013000F011F809E095
S31510000250E0006946081841686A46E0001018006810
S3151000026000F006F80134E4B2002CBBD002B0F0BDA9
S31510000270F0B505460E462A460023DC1702E0136049
S3151000028054600832B242FAD3F0BDF0B51A4881086C
S31510000290C9B21A4A1A4B002004E08400E558A5504A
S315100002A00130C0B28842F8D3164C2260F0BDF0B5CA
S315100002B0102111220023114840252C68046444257E
S315100002C02C684464104E3468240A240240252C43BA
S315100002D034600D4E0D4D34682C4034600C4D0124A5
S315100002E02C600B4D02242C60F0BD00BF04010010E1
S315100002F0548E001008010010800000000015000840
S315100003000000001008ED00E000E400E0FF00FFFF31
S3151000031000E100E030B5014C02E000BF0008000823
S3151000032062B600F0F5F8084800F033FA074A0848B4
S31510000330042103F079FF00BF064801F0C1FD06490C
S3151000034010200860F8E700BF0080081000080008B9
S315100003500003314050C300000C03314000B5FEE7E6
S3151000036000B581B05749584A10680090574A10682E
S3151000037000900098002805D5009855498005000D75
S3151000038040588047534A0120106001B000BD00B5A7
S3151000039081B051490868009050490868009000984B
S315100003A0002805D500984A498005000D4058804719
S315100003B048490220086001B000BD00B581B0484927
S315100003C0086800904749086800900098002805D5ED
S315100003D000983F498005000D405880473D4904204C
S315100003E0086001B000BD00B581B03F4908680090B3
S315100003F03E49086800900098002805D500983449B1
S315100004008005000D4058804732490820086001B029
S3151000041000BD00B581B036490868009035490868B6
S3151000042000900098002805D5009829498005000DF0
S315100004304058804727491020086001B000BD00B51C
S3151000044081B02D49086800902C49086800900098E2
S31510000450002805D500981E498005000D4058804794
S315100004601C492020086001B000BD00B581B02449A8
S31510000470086800902349086800900098002805D560
S31510000480009813498005000D4058804711494020B7
S31510000490086001B000BD00B581B01B490868009026
S315100004A01A49086800900098002805D50098084950
S315100004B08005000D4058804706498020086001B02D
S315100004C000BD00BF340800085C8E001000112040EB
S315100004D03808000880E200E0608E00100411204009
S315100004E0648E001008112040688E00100C112040F8
S315100004F06C8E001010112040708E001014112040C8
S31510000500748E001018112040788E00101C11204097
S31510000510F0B5CB4CCB4DCC4E01F090FBCB49685887
S315100005200321884301210843C8496850C74A03215B
S31510000530A85809028843A8501321090268580321B4
S31510000540884301210843132109026850132212021D
S315100005500321A85809028843A8502721C9016858C1
S3151000056003218843012108432721C9016850272206
S31510000570D2010321A85809028843A850B44A10682A
S315100005800F21884301221043B14A10601521090238
S31510000590605807218843152109026050AD496058FB
S315100005A00721884304210843AA496050A94AA05844
S315100005B0F0218843C0210843A050A64A0321A05821
S315100005C009020843A050A34A0321A05889020843F0
S315100005D0A050A04A0721A058090388430121090306
S315100005E00843A0509C4AA05851070843A0509B4965
S315100005F06058C007FBD5994960588007FBD5A86895
S31510000600FF2109028843A860954AA8580002000AEB
S3151000061051050843A850924AFF21A8580902884359
S31510000620A8503068072188430221084330608D4A5C
S3151000063010681F21090288430121490208431060EE
S31510000640884A10687F218843282108431060854A0C
S3151000065010681F21090488430121490408431060CA
S31510000660804A10689105084310607F490868C007E2
S31510000670FBD5706807229043706031463C3108689C
S315100006800F22904301231843086030463C3001681E
S3151000069030229143016030463C30016842061143D6
S315100006A001603146403108680F22904301231843F8
S315100006B00860304640300168302291430160304670
S315100006C04030016842071143016001F094FA674A0D
S315100006D0A05811070843A0506449605801210843E7
S315100006E06249605001F079FA00F001F8F0BD70B57A
S315100006F086B05F4C5F48026869460A6042684A6085
S3151000070082688A60C268CA6002690A614069486183
S31510000710684606F0F0F80546002D0AD0182256490C
S31510000720564807F037F85649D0200860002001F0E7
S3151000073035FC00BF201D06F08FFC0546002D0AD0A3
S3151000074018224D494D4807F025F84D49D22008602A
S31510000750002001F023FC00BF606820604949206832
S315100007604118494808F08EFA207348492068411804
S315100007707D20C00008F086FAA060A068C003206142
S3151000078006B070BD00B5424801688907890F084652
S3151000079000BD70B581B00646FFF772FC01460D46E6
S315100007A0FFF7F0FF01460C46032C0BD039490E60BB
S315100007B039496A4651800099032211430091344AFF
S315100007C0009911602846FFF75FFC01B070BD00B5B7
S315100007D081B03148694648800098032188430090CB
S315100007E02B490098086001B000BD30B581B0FFF705
S315100007F047FC0546FFF7C6FF0446032C0BD12648D7
S3151000080069464880009803218843022108430090D6
S315100008101F49009808602846FFF736FC01B030BD26
S3151000082000B581B01C48694648800098032188436A
S3151000083001210843009016490098086001B000BDD8
S31510000840000026400000204004122640C413000079
S3151000085000002440441500001C150000241500005B
S315100008600810000000162640401626400815000005
S31510000870B00E00087C8E0010948E0010FC13000839
S31510000880F81300083F420F0040420F00E703000034
S315100008900012204000022040FA05000000B5BF48B3
S315100008A04188013141800121018000BD00B5BC485D
S315100008B001F0F5F8012802D1B94801F012F9FFF755
S315100008C0EDFF00BDF0B584B0B64FB74DB74E294613
S315100008D0304608F0D7F904462946304608F0D2F9D2
S315100008E000290AD01822B249B24806F053FFB2497D
S315100008F0B9200860002001F051FB00BF0120002044
S31510000900012800D10EE0AD4A1068032109020090BB
S3151000091088439115084300906A4600201070A74A34
S315100009200098106001200020012800D10DE0A44994
S31510000930601E884209D8A34B1968A348621E8143DA
S315100009401004000A01431960FFE701200020012866
S3151000095000D11AE09D4A1068510501900843019094
S315100009600321090601AA08430190FF2090700198FF
S31510000970091488430121FF310843019000201070AB
S31510000980924A0198106010680290384601F022FCD5
S315100009908F490020385E01F064FC0220385E002882
S315100009A01BDB0220385E8B4980088000421878884D
S315100009B08007C00EFF2181400220385E854B8008DB
S315100009C08000C018036878888B438007C00EC0214A
S315100009D081400B431846106015E07B887E49180746
S315100009E0000F08388008800042189807C00EFF21B3
S315100009F08140184613688B438007C00EC021814082
S31510000A000B43184610600220385E002806DB7888F3
S31510000A10724AC006C00E01218140116070496048BB
S31510000A2000F0A6FE5E4800F099FF5D4801F022F83E
S31510000A305B4801F06EF87D20C00000F002F804B0AB
S31510000A40F0BD30B50246554900230B6064238B80F8
S31510000A500A8130BD10B5514C0120E0806088C00776
S31510000A6001D40220E080608808F001F9002801D145
S31510000A700A20E0803220618808F028F9002901D187
S31510000A803220E0806420618808F020F9002901D125
S31510000A906420E080C820618808F018F9002901D187
S31510000AA0C820E080F520FF30618808F00FF9002992
S31510000AB002D1F520FF30E0807D20C000618808F06B
S31510000AC005F9002902D17D20C000E08010BD10B5C7
S31510000AD0324C60882189884201D9012060802088A3
S31510000AE0012800D090E000202080FFF7B3FFE088B7
S31510000AF0642808D2012813D0022814D00A2817D047
S31510000B0032281CD07FE0642822D0C8282BD0F521AB
S31510000B10FF31884234D07D21C900884262D072E00C
S31510000B2000F073F870E000F070F800F074F86BE005
S31510000B3000F06BF800F06FF800F06FF864E000F06A
S31510000B4064F800F068F800F068F800F06CF85BE004
S31510000B5000F05BF800F05FF800F05FF800F063F863
S31510000B6000F067F850E000F050F800F054F800F08C
S31510000B7054F800F058F800F05CF800F060F843E024
S31510000B8000F043F800F047F800F047F800F04BF893
S31510000B9000F04FF800F059F836E000BFC40E000818
S31510000BA000003840BC0D000800B4C40480841E0048
S31510000BB0C88E0010FC130008F81300087C0C0040C7
S31510000BC0FFFF00000014004000FFFF00000400407B
S31510000BD0AD08001000E400E01CED00E000E100E0CC
S31510000BE0F08E001000F011F800F015F800F015F86E
S31510000BF000F019F800F01DF800F021F800F025F8C3
S31510000C0000F037F800E000BF10BD00B51C490868B9
S31510000C100130086000BD00B500BD00B51849486830
S31510000C200130486000BD00B51549886801308860FC
S31510000C3000BD00B51249C8680130C86000BD00B5D6
S31510000C400F4908690130086100BD30B50D4CA51C6F
S31510000C50A078002804D00020A07000F00FFC03E05C
S31510000C600120A07000F028FD05494869013048614F
S31510000C7030BD00B5024988690130886100BD00BFEA
S31510000C80D00E0008C00D000800B5D149D14802F0B9
S31510000C90F2FB00BDF0B58BB00790089109920A934C
S31510000CA00A9C099E6401F50E2C43274634466601BC
S31510000CB0301C391C079A089B07F072FC05462C4617
S31510000CC002B411AD03212D78079102BC01B4079827
S31510000CD0032801BC00D007E0082D0BD303B4012173
S31510000CE002A8C17003BC0AE003B4012102A8C170B6
S31510000CF003BC04E003B4002102A8C17003BC01B414
S31510000D0001A8C078012801BC00D139E003B4B2496A
S31510000D10E003000D013807900891884203BC2FD8D4
S31510000D2001B4E006C00E07901F2801BC28D803B4F2
S31510000D30AA49AD0069180691E003000D0890013824
S31510000D40079008680006000E05900798010205989E
S31510000D5004910143069805910160A049691807910D
S31510000D60E006C00E08900868F825A84301460898C2
S31510000D70C50607982D0E0D430695056003BCFFE7C3
S31510000D800BB0F0BDF0B584B0914C954D26464C365F
S31510000D900320032801D0012000E00020012800D103
S31510000DA00CE0904A106803210902019001AA084339
S31510000DB00190012010708B4A019810608A4A012018
S31510000DC00090002319461011FFF764FF0320032833
S31510000DD001D0012000E00020012800D117E0834A4D
S31510000DE0106851050290084302900321090602AAD1
S31510000DF008430290FF20907002980914084302904D
S31510000E0001201070794A02981060106803900C2027
S31510000E1020650E205421085532467548032103F0EB
S31510000E2003FA0C2020650E205421085532467048CE
S31510000E30022103F0F9F9284601F0CCF96D4900209A
S31510000E40285E01F00EFA0220285E00281BDB022025
S31510000E50285E694980088000421868888007C00E9D
S31510000E60FF2181400220285E634B80088000C01855
S31510000E70036868888B438007C00EC02181400B43EE
S31510000E801846106014E06F885C493807000F083860
S31510000E908008800042181368B807C00EFF218140F1
S31510000EA08B43B807C00EC02181400B431846106013
S31510000EB00220285E002806DB6888514AC006C00E4C
S31510000EC0012181401160434801F097FB22464D49AC
S31510000ED0404801F077FA4C4A4C493E4801F0A5FCCF
S31510000EE0002060643B4A106891020843106004B009
S31510000EF0F0BDF0B584B001AB364C7D273F0198703C
S31510000F00D9705A810025002101A84170002103A83B
S31510000F10018000264120C0002358DB05FAD101A824
S31510000F208378012B0DD305D0032B05D306D0042BC4
S31510000F3006D006E0602504E0512502E0402500E0D9
S31510000F404125234B29462046002200933B4602F0BA
S31510000F5073F801A9C878487001A841781C4B3A4625
S31510000F60204602F04BFA03A94888088003A8008897
S31510000F700606360E164B3A463146204602F03EFA23
S31510000F8003A80088060A124B3A463146204602F05C
S31510000F9035FA0F4A3946204602F077F904B0F0BD0B
S31510000FA0F0B583B001AA0B4E7D273F019070D1702A
S31510000FB00024002301AA53700025002201AB1A70E9
S31510000FC001AB9A78012A2ED326D0032A26D31FE006
S31510000FD0EC0E000800006040FFFFFF00001C004000
S31510000FE0C40D0008500C004000B4C40400040040B6
S31510000FF000003140890C001000E400E01CED00E018
S3151000100000E100E0588F0010404B4C0090D00300D8
S3151000101006D0042A06D006E0602404E0512402E03B
S31510001020402400E041241E483B4621460022009001
S31510001030304602F001F801ABDA785A7001A841780F
S31510001040174B3A46304602F0D9F915483B46214629
S3151000105001220090304602F06FF811483B4601AA73
S3151000106001210090304602F06AF901AA15780C4861
S315100010703B4601AA02210090304602F060F901AA0F
S3151000108013781A02FF231B021A401543044A3946E5
S31510001090304602F027F92A46104603B0F0BD00BFCD
S315100010A0EC0E0008F0B585B0D34D002000200128C5
S315100010B000D10CE0D14A10680321090200906A465B
S315100010C08843009000201070CC4A009810600020D1
S315100010D00020012800D107E0C94A1068FF21090243
S315100010E0884391150843106000200020012800D184
S315100010F017E0C44A10685105019008430190032176
S31510001100090601AA08430190FF209070019809145E
S315100011108843019000201070BA4A01981060106838
S315100011200290B94804F07AF8002412E0B749230176
S31510001130181B800042180832181B800040180179CD
S31510001140181BB24B8000C018006803F06DF801340C
S31510001150E4B2022CEAD3AE48028803A90A80428878
S315100011604A808088888003A801F034F8294603AAAB
S315100011700023D05E01F075F8A64908680002000A3F
S315100011800860A54908200860A44908200860A449F9
S315100011909D4803F0FCFB05B0F0BDF0B585B06B467D
S315100011A0A04EA14CA14D9870D97002920298019050
S315100011B00199082203A80C3106F093FF01984368A1
S315100011C021277F01BB4200D014E104A8C3785B0736
S315100011D05B0F1F46012F00D20CE106D0032F40D320
S315100011E07BD0042F00D1B3E004E103A8007820726D
S315100011F003A84078607203A88078A07203A8C0780C
S31510001200E07204A80078207304A84078607304A8DC
S315100012108078A073E77B0720874301200743E77395
S31510001220EF7B0720874301200743EF7304A8E77B72
S31510001230C27808200240F72007401743E77304A836
S31510001240EF7BC27808200240F72007401743EF7360
S31510001250E77B3F0700D4CDE037780120074337708E
S31510001260C8E003A80078207403A84078607403A827
S315100012708078A07403A8C078E07404A8007820755C
S3151000128004A84078607504A88078A075E77D0720CB
S31510001290874302200743E775EF7D07208743022027
S315100012A00743EF7504A8E77DC27808200240F720AF
S315100012B007401743E77504A8EF7DC278082002405F
S315100012C0F72007401743EF75E77D3F0700D491E0FD
S315100012D037780220074337708CE003A80078207611
S315100012E003A84078607603A88078A07603A8C07813
S315100012F0E07604A80078207704A84078607704A8E0
S315100013008078A077E77F0720874303200743E77796
S31510001310EF7F0720874303200743EF7704A8E77F73
S31510001320C27808200240F72007401743E77704A841
S31510001330EF7FC27808200240F72007401743EF7767
S31510001340E77F3F0756D5377804200743377051E0BB
S3151000135003A80278274620373A7003A84278274612
S3151000136020377A7003A8827827462037BA7003A8E8
S31510001370C27827462037FA7004A802782746203705
S315100013803A7104A84278274620377A7104A88278E1
S3151000139027462037BA7122462032D779072087434D
S315100013A004200743D7712A462032D779072087436E
S315100013B004200743D7712246203204A8C178D77972
S315100013C008200140F72007400F43D7712A462032E4
S315100013D004A8C178D77908200140F72007400F43A9
S315100013E0D77127462037FF793F0703D5377808226C
S315100013F01743377005B0F0BD3B140010200C0040A9
S31510001400001000400004004000045240648F001099
S31510001410DC8F001000E400E080E200E000E100E074
S31510001420CC0D00086C0F00086D0F00089E0F000809
S3151000143030B503460C46154630BD00B50E4803F0D0
S315100014405EF900BDF0B594B005460E46144600236D
S315100014506F463B70002302AF3B7013AB1C700195B7
S315100014602246314603A806F03CFE6A460248002191
S3151000147003F053FF14B0F0BD00045240F0B582B033
S31510001480AE4EAF48027869460A7040784870AD484B
S31510001490027869468A704078C8700124C3E0AA4A67
S315100014A0E0003118101800780870A749E0000818F5
S315100014B0C079000700D4B4E0A349E0000818077803
S315100014C0F80702D40221394036D0E00030184078AF
S315100014D069460870E00030188078694648709A4965
S315100014E0E000081840786A4690709749E00008189E
S315100014F080786A46D0706A4610789178884204D10E
S315100015006A465078D178884209D06A46D178907860
S315100015100D0205432A4620460321FFF7EAFC204622
S315100015200321FFF73DFD0546E000301829464170BE
S31510001530E0003018290A81700421394001D138079A
S3151000154036D5E0003018C07869460870E0003018CB
S315100015500079694648707C49E0000818C0786A46E8
S3151000156090707949E000081800796A46D0706A468A
S3151000157010789178884204D16A465078D17888429A
S3151000158009D06A46D17890780D0205432A4620463E
S315100015900421FFF7AEFC20460421FFF701FD0546A6
S315100015A0E00030182946C170E0003018290A017190
S315100015B0F80636D5E0003018407969460870E00024
S315100015C030188079694648705F49E00008184079FC
S315100015D06A4690705C49E000081880796A46D070B7
S315100015E06A4610789178884204D16A465078D17844
S315100015F0884209D06A46D17890780D0205432A466A
S3151000160020460521FFF775FC20460521FFF7C8FC8B
S315100016100546E000301829464171E0003018290AC5
S3151000162081710134E4B2052C00D238E7F07B400713
S3151000163009D0F07B000706D508210120FFF7B0FC82
S31510001640424A108002E0414900200880F07D4007A0
S3151000165009D0F07D000706D508210220FFF7A0FC6F
S315100016603A4A508002E0394900204880F07F40070E
S3151000167009D0F07F000706D508210320FFF790FC5C
S31510001680324A908002E0314900208880304620306E
S31510001690C07940070BD030462030C079000706D5F8
S315100016A008210420FFF77CFC284AD08002E0274955
S315100016B00020C88002B0F0BD70B5254C7D25ED0028
S315100016C00822224928464A30FFF7BCFE284600F079
S315100016D0F7FB2078C00709D52078FE210840207036
S315100016E008221C4928464830FFF7ACFE20788007B0
S315100016F009D52078FD210840207008221649284671
S315100017004830FFF79FFE2078400709D52078FB2147
S31510001710084020700822114928464830FFF792FEEB
S315100017202078000709D52078F72108402070082274
S315100017300B4928464830FFF785FE70BD9E0F0008FE
S31510001740FC8F0010FE8F00106D0F0008960F00081A
S315100017506C0F0008A60F0008AE0F0008B60F0008A1
S31510001760BE0F00080000A0E11EFF2FE1C046704723
S31510001770F0B585B003460A460124156E042D02D82D
S31510001780556E042D00D9C6E0002B00D1C2E0002A08
S3151000179000D1BFE0C94E356800959768009E0125B7
S315100017A0AD04AE43FD076D0B2E430096D768009E21
S315100017B003252D04AE43BD07AD0B2E430096577C73
S315100017C0009E07252D06AE437D076D092E43009614
S315100017D0177C009E0125AD07AE43FD076D082E430D
S315100017E00096167F009D0127BD433E403543009568
S315100017F03427009DBE5C0227BD43F607B60F35435E
S315100018000095009D1D6017791D6BFF26B5433D435E
S315100018101D639568002D02D100259D6007E095682F
S31510001820012D02D115689D6001E001259D60556965
S315100018301D6195695D61D56A9D61156BDD611568E0
S315100018401D629F4E35680195956A01AE3570556CCF
S3151000185001AEB570556D01AEF570D56D01AE7570F2
S31510001860019D5D64974E35680295D56C02AE357054
S31510001870D56B02AE7570029D9D64934E35680395C7
S31510001880566A039D0327BD433E4035430395976B28
S31510001890039E0325AD02AE43BD072D0D2E430396C1
S315100018A0176C039E3025AE43BD07AD0E2E4303962F
S315100018B0976C039E03252D02AE43BD07AD0D2E4337
S315100018C00396176D039EC025AE43BD072D0E2E43FE
S315100018D00396976D039E0C25AE43BD072D0F2E4321
S315100018E00396039DDD64794E35680495166E049D46
S315100018F00727BD433E4035430495576E049E702519
S31510001900AE437D076D0E2E430496049D5D65156AE4
S315100019109D67002400BF204605B0F0BD30B50146D6
S315100019200022D243F0230B6000238B600A614A61C8
S315100019308A61CA610A624A620123FF334B6400233B
S315100019408B64634BCB6432234B65FF230B650023FB
S315100019500B6700234B6700238B6730BD30B50146FC
S315100019600A680123DB071A430A6030BD30B5014609
S315100019700A68520052080A6030BD10B50246516816
S31510001980084610BD10B502461169084610BD10B5BF
S3151000199002469169084610BD10B5024651690846BF
S315100019A010BD10B50246D169084610BD30B50246C5
S315100019B00B46136130BD10B502461169084610BDBD
S315100019C030B502460B46536130BD10B5024651691B
S315100019D0084610BD30B502460B46936130BD10B5B2
S315100019E002469169084610BD30B502460B46D361D2
S315100019F030BD10B50246D169084610BD70B5024615
S31510001A000B46002B04D0146801252C43146003E008
S31510001A1014680125AC43146070BD70B502460B46C0
S31510001A20002B04D0146802252C43146003E01468BC
S31510001A300225AC43146070BD30B502460B46936068
S31510001A4030BD10B502469168084610BD30B5024645
S31510001A500B46136230BD10B50246116A084610BD1A
S31510001A6030B502460B46536230BD10B50246516A78
S31510001A70084610BD10B501468A6F01231A438A67BE
S31510001A8010BD10B501468A6F02231A438A6710BD2E
S31510001A9010B501468A6F04231A438A6710BD10B524
S31510001AA00246D16FC907C90F084610BD10B50246C8
S31510001AB0D16F8907C90F084610BD00BF04900010EA
S31510001AC0089000100C900010109000101490001048
S31510001AD0FFFF000010B50246D16F4907C90F08462F
S31510001AE010BD10B501460A6F01231A430A670A6F23
S31510001AF010BD10B501460A6F02231A430A670A6F12
S31510001B0010BD10B501460A6F04231A430A670A6FFF
S31510001B1010BD30B501460A6C10231A430A6430BD55
S31510001B2010B501460A6C04231A430A6410BD30B579
S31510001B3001460A6C08231A430A6430BD10B50146E3
S31510001B400A6C01231A430A6410BD30B501460A6CAB
S31510001B5020231A430A6430BD10B50246116F084699
S31510001B6010BD30B502460B461367146F30BD30B545
S31510001B7002460B46536730BD30B502460B46936797
S31510001B8030BD10B50246916F084610BD10B502461D
S31510001B90D16F084610BD000030B53A4C00F0ACFAD3
S31510001BA0054600F028F8002060607D200002A06045
S31510001BB00020E060206901218843206120691021FE
S31510001BC00843206120690121FF318843206100F01C
S31510001BD004F8284600F094FA30BD10B500F08CFADF
S31510001BE00446294908680321084327490860204606
S31510001BF000F086FA10BD10B500F07EFA04462249B0
S31510001C00086803218843012108431F4908601E49BB
S31510001C10086803218843022108431B4908602046AF
S31510001C2000F06EFA10BD00B5FFF7E5FF154A106813
S31510001C30510408431060FFF7D0FF00BD00B5FFF751
S31510001C40DAFF104A1068400040081060FFF7C5FF21
S31510001C5000BD00B581B00D490868012108430B4944
S31510001C6008600B490868009001B000BD00B5FFF789
S31510001C70C2FF084908680121084306490860FFF7B2
S31510001C80ACFF00BD00C0264040C0264050C02640D4
S31510001C900002264044C02640F0B505460E460024F4
S31510001CA004E09C4BA2000027D7500134052CF8D332
S31510001CB0994B9A4ADA63284600F06DF8304600F0E0
S31510001CC027F800F0A4F800F001F8F0BD00B500F018
S31510001CD010F893490868012108439149086000BD2E
S31510001CE000B500F00EF88E490868400840000860FC
S31510001CF000BD00B58A490868022108438849086072
S31510001D0000BD00B5864A106802218843106000BDE8
S31510001D1010B50146834B0A02120A1A6010BD70B53F
S31510001D200246814D2968541E090E090623021B0A14
S31510001D301943296070BD00B57C4908680002000A85
S31510001D40013000BD00B57749086800BD00B5784977
S31510001D50086800BDF0B504460E466E4D052C0AD334
S31510001D6018227449744805F015FD7449FB20086063
S31510001D70002000F013F900BFA00029464258A00029
S31510001D80294646501046F0BD30B50246614B9100CB
S31510001D90C958084630BDF0B503466949042B0CD125
S31510001DA05F4C2268042422435D4C22600B256D0291
S31510001DB04A59AC0522434A5114E00B2676020322F7
S31510001DC08C59120694439A07920914438C510B2589
S31510001DD06D024A59520052084A51514D2A6804243C
S31510001DE0A2432A60F0BD00B54D490868400701D5E9
S31510001DF0042103E04C4A10688001810F084600BD9B
S31510001E0000B5474A106801210904084000BD00B515
S31510001E1047490020086000BD30B53E4DFFF7F0FF82
S31510001E2000280BD0002407E0A0004059002802D05B
S31510001E30A000405980470134052CF5D330BDF0B5CC
S31510001E4085B001900291364C3E48027852420132DA
S31510001E500BD118223C49384805F09CFC37489F2284
S31510001E60FF320260002000F099F800BF35480122C9
S31510001E700270019D029E00BF344A0023AA42B3415C
S31510001E8005D2324F31482D1A3148864102E02F468D
S31510001E900025EE170022226067600022A26005224C
S31510001EA022602268D203FCD5002222602A463243E1
S31510001EB000D100E0E0E723480022027005B0F0BD33
S31510001EC0F0B582B00646234A116800290BD11822B4
S31510001ED02149194805F05EFC184ACA21FF311160E4
S31510001EE0002000F05BF800BF1A4800211B4A0B4681
S31510001EF0006806F055FB0023321C06F020FE0A1C73
S31510001F00011C0C1C151C201C291CFFF798FF02B085
S31510001F10F0BD00BFE013000800150008191E0010E0
S31510001F2010E000E014E000E0001620401CE000E0A5
S31510001F3018E000E018900010FC130008F8130008D1
S31510001F4000002040F413000849900010FFFFFF0026
S31510001F5000000000B40E00087A90001040420F00F6
S31510001F6010B5044606E00F49086800F0BDF80121D7
S31510001F70C903641A0121C9038C42F4D80A4A1168AC
S31510001F806143084600F0B0F810BD10B50446074A84
S31510001F9011786143084600F0A7F810BD10B5044645
S31510001FA000BF05E0C00E0008B80E0008BC0E000801
S31510001FB001BEFEE700B546490120086000BD00B528
S31510001FC00022D317101C191C00BD70B50546414CD4
S31510001FD0414A2168914211D03F49216029686160C8
S31510001FE06968A160A968E160E96821612969616190
S31510001FF06969A161A969E161E969216200F001F8E5
S3151000200070BD00B5FEE770B501468B69023B1A78C4
S315100020100A6070BD10B50446204600F001F810BDE8
S31510002020F0B503462D4A642B01D2002100E00121B0
S315100020302B4E94590326B443294E8D07AD0F2C43CE
S3151000204094510021264F0324D5592402A5438C0709
S31510002050A40D2543D551642B01D2002100E00121A6
S315100020601326360294590326B4438D07AD0F2C431D
S315100020701326360294512726F60194590326B443A3
S315100020808D07AD0F2C432726F601945113273F02D7
S315100020900324D5592402A5438C07A40D2543D551F5
S315100020A02727FF010324D5592402A5438C07A40D25
S315100020B02543D551642B01D8002100E00121094E9A
S315100020C034680F25AC430D072D0F2C433460F0BD3B
S315100020D00800244014140008F3F2F1F00000204028
S315100020E0C413000000002440801C800803D0401C4C
S315100020F0801EFCD100BF7047EFF3108072B6704798
S3151000210080F3108870470000F0B582B004460E4682
S315100021100025002C59D00022A25E002A03DB0022E3
S31510002120A25E082A0ADB934F934B3A689A4207D16C
S3151000213031460022A05E00F071F801E08F4A46E0B9
S315100021400023E35E6268002B1EDB02B400232188A5
S31510002150E35E8B4F9B089B00DF199207130E8A07CD
S31510002160D20E934001938A07D20EFF23934000228A
S31510002170A25E834992089200521812689A43019BF4
S315100021801A433A6002BC21E002B421887D4F0B0746
S315100021901B0F083B9B089B00DF199207130E8A073B
S315100021A0D20E934001938A07D20EFF2393400A075B
S315100021B07449120F083A92089200521812689A43FC
S315100021C0019B1A433A6002BC00E06C4D2A46104649
S315100021D002B0F0BDF0B581B0014600226A4C23680A
S315100021E00093002915D08C78009B0725AB432C4013
S315100021F0234300930D79009C64006408EB071C438D
S3151000220000940023CB5E614C9B001B19009C1C6044
S3151000221000E05A4A00BF104601B0F0BDF0B50246C4
S315100022200B46544E544D3468AC4204D1524D1446AC
S315100022301034A4006351F0BD70B502464D4C4E4BA0
S315100022402168994205D14C4C134610339B001959FD
S3151000225004E04F4C134610339B00195900BF084633
S3151000226070BDF0B502460B464A4D4B4E3468002CF5
S3151000227003D0494E356894006351F0BD30B502461F
S31510002280454B1968002904D0434C23689100C9585E
S3151000229000E00021084630BD70B501463B4B8A0070
S315100022A0D3181A680124E40722431A6070BD70B56A
S315100022B00146364B8A00D3181A68520052081A6023
S315100022C0324B8A00D218126870BD70B50346334A75
S315100022D01946072931D8084601A1095C8F4400BF69
S315100022E008141E28323C465011252D025459A405B7
S315100022F0A10D24E02A4D5459A405A10D1FE0294D26
S315100023005459A405A10D1AE0274D5459A405A10D41
S3151000231015E0264D5459A405A10D10E0244D54592D
S31510002320A405A10D0BE0234D5459A405A10D06E0FB
S31510002330214D5459A405A10D01E0204900BF00BF4D
S31510002340084670BDF0B503460C461D4D9A00561949
S315100023503268920A9202A505AD0D2A433260F0BD8D
S3151000236030B50246164B9100C91809688905890DC2
S31510002370084630BD08ED00E00015000801005600C3
S3151000238000E400E01CED00E0AC900010008020405E
S31510002390000000103814000834080008000020401F
S315100023A004110000081100000C11000010110000AB
S315100023B014110000181100001C110000FF0300008A
S315100023C040112040F0B587B003460C461546D74E4F
S315100023D0D74F3F680097D74F3F680197D64F3F6852
S315100023E00297D64F3F680397D54F3F680497002B47
S315100023F000D1FEE0002C00D1FBE0002D00D1F8E06A
S3151000240003B4217A029801273F04B843CF07FF0B84
S315100024101021089138430790029003BC03B4A17AA7
S3151000242002980127FF37B843CF07FF0D08210891FF
S3151000243038430790029003BC02B4019F032189031D
S315100024408F43019702BC02B4019F032109068F43F3
S31510002450019702BC009F1F6003B4677A03987F42FE
S31510002460791C0127FF02B843CF073F0D0B210891B6
S3151000247038430790039003BC03B427680398FF07FB
S3151000248079080127BF07B8430F461E210891384324
S315100024900790039003BC03B42168039F48087F008C
S315100024A07F0807971F21C707079808913843079099
S315100024B0039003BC019F1F6603B4049F1F218F4323
S315100024C007200743049703BC02B4039F0121FF3181
S315100024D00F43039702BC01B4039F032000021F5051
S315100024E001BC01B4207900270790002801BC00D058
S315100024F07F2701B4C12080001F5001BC01B4A77909
S3151000250004A87F00077001BC01B4E77904A87F0016
S31510002510877001BC01B4049F312000011F5001BC1B
S3151000252003B4069F1F218F4307200743069703BC5A
S3151000253002B4059F0121FF310F43059702BC02B477
S31510002540059F012109040F43059702BC01B4059F9D
S31510002550012040021F5001BC01B460790127079089
S31510002560002801BC00D0402701B4812080001F50F4
S3151000257001BC01B4734800271F5001BC01B4724856
S3151000258000271F5001BC01B4704800271F5001BC22
S3151000259001B46F4800271F5001BC01B46D480027D5
S315100025A01F5001BC002706972768FF0702D5D227C0
S315100025B0FF37069701B4684F0798D85101BC2779A1
S315100025C02F7067796F7001273F076F600027AF6024
S315100025D000276F6100272F620027EF6300272F6403
S315100025E00027EF6200272F6300276F640027AF6470
S315100025F0002600BF304607B0F0BD10B50146574A59
S315100026000A60574A0A66574A0A670822FF320323A6
S315100026101B02CA500022C1239B00CA50002231233C
S315100026201B01CA500822FF3201235B02CA50002246
S3151000263081239B00CA50434B0022CA50424B0022B2
S31510002640CA50424B0022CA50414B0022CA50414B3D
S315100026500022CA50404B0022CA5010BDF0B50346A6
S315100026600A461C68640064081C6001242407546030
S315100026700024946000241462F0BDF0B584B00746BF
S3151000268003916B46DA7000253C46039E6B46DB7859
S31510002690012B06D0022B2DD0042B3DD0082B65D054
S315100026A07BE001B42C480023235001BC02B47368AC
S315100026B0012109078B4202BC14D12368DB0506D51C
S315100026C001B4254B1220FF30E05001BC11E0314619
S315100026D02046FFF7C3FF01B41F48D223FF33235010
S315100026E001BC06E001B41C48D223FF33235001BCC1
S315100026F01D4D54E02368DB0506D501B41648D223D8
S31510002700FF33235001BC06E002B423680121C90738
S315100027100B43236002BC42E02368DB0504D501B4F9
S3151000272009480123235001BC39E000BF0120AA004B
S31510002730B0900010B4900010B8900010BC9000102B
S31510002740C0900010C80E0000880E0000C80F0000D0
S31510002750880F0000080F0000480F00000F0000034C
S31510002760883F000013102A00FF0042002368DB0593
S315100027700BD501B4C0480023235001BC01B4BF4897
S31510002780D223FF33235001BC06E002B42368012193
S31510002790C9070B43236002BC01E0B94D00BF2B46AD
S315100027A0184604B0F0BDF0B583B0074602916B46EB
S315100027B0DA7000253C46029E6B46DB78012B06D06C
S315100027C0022B23D0042B29D0082B27D027E001B4C5
S315100027D0AA480023235001BC02B4736801210907DB
S315100027E08B4202BC0AD131462046FFF737FF01B4AF
S315100027F0A248D223FF33235001BC06E001B49F4800
S31510002800D223FF33235001BC9D4D0AE002B4236846
S315100028100121C9070B43236002BC02E001E0984D79
S3151000282000BF2B46184603B0F0BDF0B58CB0044679
S315100028300B910A920027236E5B0012D5236E002B94
S315100028400FD420460A9900F0BFF803461F46032608
S3151000285036020125A3596D02AB43A351894B236759
S31510002860AEE00A9B002B00D8AAE00B9B002B00D8E9
S31510002870A6E0E1239B00643318460A9906F002FA93
S315100028800490E1239B00643318460B9906F0FAF97D
S3151000289006907D490A9806F0F5F902907B4B0B9D40
S315100028A09D4204D87A4D0095794D019510E0794BEB
S315100028B00B9D9D4206D81925AD010095E125AD0069
S315100028C0019505E09B25AD0000957D25FF35019509
S315100028D00099029806F0D6F9054600E00135029BEC
S315100028E06B43009EB34201D2102DF7D30199029883
S315100028F006F0C8F9064600E0013601B4039B73439F
S315100029000298834201BC01D2102EF5D37019049996
S3151000291006F0B8F907460023039311E0039BDB0783
S3151000292003D5102E04D2013602E0102D00D2013547
S31510002930039B013303937019049906F0A3F9074614
S31510002940069B9F4202D97319202BE7D3514B9F4206
S315100029500DD903B403231B020121E35849020B438B
S3151000296003200002235003BC4B4B23670CE003B437
S3151000297003231B020121E35849028B430320000263
S31510002980235003BC3F4B236701B46B1E206E0A9382
S31510002990F023984309900A98030709981B0E1843C9
S315100029A0206601BC03B4236E701E0F218B430840B2
S315100029B00343236603BC70190A9906F063F90746A8
S315100029C03B4618460CB0F0BDF0B506460D46326EC5
S315100029D052001CD5326E002A19D4304A954204D3BF
S315100029E02F4A954201D82B4C1EE02E4A954204D30D
S315100029F02D4A954201D8254C16E02C4A954204D30F
S31510002A002B4A954201D82B4C0EE000240CE0326E76
S31510002A10336E1206120F1B071B0F9A18971C2946A6
S31510002A20384606F02FF9044622461046F0BD70B51A
S31510002A3004460B4600BF1A6A104670BDF0B581B049
S31510002A4007460D4616461C4600BF02B401210191E9
S31510002A50002D02BC01D1002E05D0002D03D102B4E9
S31510002A600021019102BC01B40198002801BC30D1AB
S31510002A701822114922E000BF880E0000480F0000FE
S31510002A80FF00420013102A0000CA9A3BA0860100DC
S31510002A9088130000801A060003002A00E05277000F
S31510002AA020AEEA00B0A617000050C30000B3F10034
S31510002AB040084E0540420F00C4900010D44804F060
S31510002AC069FE03B4D348D449016003BC0020FFF764
S31510002AD065FA00BFA562266301B40020E06201BC5E
S31510002AE001B40020606301BC01B0F0BDF0B504462E
S31510002AF00D4600BFFFF700FB0246164600222A636A
S31510002B006A78002A0DD02A6AD2070AD58127BF0013
S31510002B100123E2591B041A43E251E2599A43E25146
S31510002B20E2593046FFF7ECFAF0BD70B504460B4695
S31510002B3000BF5A6B104670BDF0B504460A4600BF7A
S31510002B40136A8F26FF363340B44E156A3540156228
S31510002B5000BF1846F0BDF0B581B007460C461646C4
S31510002B601D4600BF02B401210191002C02BC01D107
S31510002B70002E05D0002C03D102B40021019102BC15
S31510002B8001B40198002801BC0CD11822A449A04810
S31510002B9004F000FE03B49F48A249016003BC002064
S31510002BA0FFF7FCF900BFAC632E6401B40020E863A4
S31510002BB001BC01B0F0BDF0B504460D4600BFFFF7ED
S31510002BC09BFA0246164600222A642A78002A0AD060
S31510002BD02A6AD20607D5226E0123DB031A43226620
S31510002BE0914B0022E2503046FFF78AFAF0BD70B5DD
S31510002BF004460B4600BFDA6B104670BDF0B50446AE
S31510002C000A4600BF136AE126FF363340874E156A1F
S31510002C103540156200BF1846F0BD70B504460B4628
S31510002C2000BF9A68104670BDF0B584B004460E46D3
S31510002C3015467F4F01B47F480023235001BC02B4D0
S31510002C406B68012109070B4002BC00D1A6E00123E5
S31510002C501B04AB6073682B61B368AB6100236B61B7
S31510002C600023EB61337B2B7301236B7301B41423A5
S31510002C70FF3304330F2000022350235801BC03B442
S31510002C8081239B000121E35809040B438120800016
S31510002C90235023588B432350235803BC02B46B682C
S31510002CA0012109078B4202BC0AD10023009301B40B
S31510002CB0019B02200343019301BC009BA36619E00C
S31510002CC00023009301B4019B01200343019301BC2F
S31510002CD001B4636E01989B06DB0F03930823984398
S31510002CE004900398C30704981B0F0343019301BC78
S31510002CF0009BA36603B433785B061B0E01210B43BE
S31510002D0009208001235003BC2B78002B26D02B7B67
S31510002D10002B23D1AB69022B20D302B4236E0121E1
S31510002D20FF310B43236602BC3F230293AB69802B12
S31510002D3002D8AB69023B029303B4C1239B000498EB
S31510002D40E358FF218B430006000E0343C120800089
S31510002D50235003BC09235B046B600CE003B4C1234E
S31510002D609B00E358FF218B43C1208000235003BCF6
S31510002D7011231B046B60FFF7BFF90346039301B4DD
S31510002D8029480123235001BC01B42B4B1420FF30DA
S31510002D90E05001BC0398FFF7B3F9002701B42548AA
S31510002DA0D223FF33235001BC3B46184604B0F0BD76
S31510002DB0F0B581B005460C46FFF79EF90246164659
S31510002DC0A268D2031CD5626811231B049A4204D050
S31510002DD0626809235B049A423BD12278002A0AD002
S31510002DE0114B0022EA500B2252046260124B182239
S31510002DF0FF32EA502DE0002222730122A26128E060
S31510002E000E4B62689A4224D100220092009A17E073
S31510002E10FC130008F81300080303000071FEFFFFFF
S31510002E20F1900010B6030000C80F00001FFEFFFF50
S31510002E300220AA00480F0000080F00000000101022
S31510002E4010231A430092009A08231A430092009AFC
S31510002E50AA663046FFF754F901B0F0BDF0B584B05C
S31510002E6004460E461546E74F01B4E74800232350A3
S31510002E7001BC02B46B68012109070B4002BC00D1EA
S31510002E8086E001231B04AB6073682B61B368AB61EA
S31510002E9000236B610023EB61337B2B7300236B7371
S31510002EA001B41423FF3304330F2000022350235898
S31510002EB001BC03B481239B000121E35809040B4391
S31510002EC081208000235023588B432350235803BC62
S31510002ED002B46B68012109078B4202BC0AD1002398
S31510002EE0009301B4019B02200343019301BC009B94
S31510002EF0A36619E00023009301B4019B012003434C
S31510002F00019301BC01B4636E01989B06DB0F03931A
S31510002F100823984304900398C30704981B0F034390
S31510002F20019301BC009BA36601B433785B065B0E6C
S31510002F305B0009208001235001BC05239B046B60B4
S31510002F40012302936B78002B01D04023029303B424
S31510002F5081239B000498E358FF218B430006000E43
S31510002F60034381208000235003BCFFF7C5F80346B6
S31510002F70039301B4A5480123235001BC01B4A44B0B
S31510002F801420FF30E05001BC0398FFF7B9F8002772
S31510002F9001B49D48D223FF33235001BC3B4618464B
S31510002FA004B0F0BDF0B581B004460D46FFF7A4F8A5
S31510002FB002461646AA68D20322D5944B0022E25046
S31510002FC06A78002A0AD08127BF000123E2591B0420
S31510002FD01A43E251E2599A43E251E2596A680523CB
S31510002FE09B049A4204D06A6815231B049A4217D18F
S31510002FF00B2252046A60864B1822FF32E2500FE011
S31510003000844B6A689A420BD100220092009A1023D0
S315100030101A430092009A08231A430092009AA26655
S315100030203046FFF76DF801B0F0BD70B504460B469B
S3151000303000BFDA69104670BDF0B589B00446069136
S31510003040059207930E9F6F4E01B46F4800252550C9
S3151000305001BC02B47D68012109078D4202BC61D111
S3151000306001B4089DA8002D1A40012D18ED000295F7
S3151000307001BC694D7D60059D012D00D000257D7335
S3151000308001B40825FF3510350F20000225502558AC
S3151000309001BC01B404253F2080012550255801BCF0
S315100030A003B48125AD000121655909040D43812022
S315100030B08000255025588D432550255803BC03B450
S315100030C0089D6D06290E079D0D4309208001255088
S315100030D003BC0025009501B4019D0220054301950E
S315100030E001BC009DA56600BF01B40F252D023D2031
S315100030F080016559205804900820FF30284005901B
S315100031000498C02505400598054301BC01A800F0A8
S31510003110A7FE0543002DE7D03A462946204600F083
S31510003120B3FE064603B43848D221FF31215003BC02
S3151000313000BF304609B0F0BDF0B588B00446059121
S31510003140049206930D9F2F4E02B47D680121090546
S315100031500D4002BC52D001B4079DA8002D1A4001A3
S315100031602D18ED00029501BC2B4D7D60049D012D9F
S3151000317000D000257D730025009501B4019D012026
S315100031800543019501BC01B4656E0198AD06ED0FBE
S3151000319004950825A84308900498C50708982D0F8C
S315100031A00543019501BC009DA56602B4069D6D06FA
S315100031B0290E059D0D4302BC01B40920800125503E
S315100031C001BC00BF03B40F252D023D20800108214C
S315100031D0FF31655920580D40C02108402946054643
S315100031E00D4303BC01A800F03BFE0543002DE9D0BA
S315100031F03A462946204600F047FE064600BF3046AE
S315100032000CE000BF0220AA00480F0000880F000043
S31510003210080F0000000010100000131008B0F0BDD9
S31510003220F0B584B0064603911746D04D7B68DB0295
S3151000323027D5039B9C001B1B64011B19DB00019304
S3151000324000230093009B102423430093009B082423
S3151000325023430093009BB36600BF0F231B02F45851
S315100032601223FF331C4001A800F0FAFD03461C434D
S31510003270002CF2D03A462146304600F005FE0346B1
S315100032801D462B46184604B0F0BDF0B583B0054672
S3151000329002911746B54E7B68DB021FD5029B9C0038
S315100032A01B1B64011B19DB000093AB6E1024234318
S315100032B0AB6600BF0F231B02EC581223FF331C40D2
S315100032C0684600F0CDFD03461C43002CF2D03A466A
S315100032D02146284600F0D8FD03461E4633461846BA
S315100032E003B0F0BDF0B583B00546029117469F4E68
S315100032F07B68DB021FD5029B9C001B1B64011B19FC
S31510003300DB000093AB6E08242343AB6600BF0F238C
S315100033101B02EC581223FF331C40684600F0A0FD38
S3151000332003461C43002CF2D03A462146284600F0AC
S31510003330ABFD03461E463346184603B0F0BDF0B546
S3151000334087B00446039104920593884E0C9D6D68D0
S3151000335011273F04BD424DD1059DAF00ED1B7F01E6
S31510003360ED19ED00019500BF01B40F252D020220C5
S315100033706559FF30054001BC02B43F27BF01E7592C
S3151000338004210F4001D0002700E0012702BC01A84C
S3151000339000F066FD0543002F01D0002DE4D0002F6C
S315100033A00DD103B40D20800121580698017003BC7D
S315100033B003B405213F2080012150205803BC294623
S315100033C020460C9A00F060FD0646002E12D101B47C
S315100033D00498012801BC0DD101B40020019001BC54
S315100033E003B4029804210843029003BC01B4019867
S315100033F0A06601BC00BF304607B0F0BDF0B585B081
S3151000340006466C461F46E1700392584D02B47C681E
S31510003410052189048C4202BC29D101B4049CA00068
S31510003420241A400105902418E400029401BC6C464D
S31510003430E47801B409208001345001BC00BF02B405
S315100034400F24240231590824FF34059403910C46A5
S3151000345005990C4002BC01A800F002FD0443002CA3
S31510003460EDD03A462146304600F00EFD054600BF27
S31510003470284605B0F0BDF0B505460C466268D20286
S3151000348004D52146284600F0B5FA03E02146284621
S3151000349000F001F8F0BDF0B504460E46344BE25884
S315100034A0D20704D501221D23DB01E250E258314A2E
S315100034B0A5580222FF322A400DD08023EA0501D5F5
S315100034C00123FF33326A1A4332622B4B0022E25039
S315100034D0102215430FE0EA060DD56123DB00E258F2
S315100034E0D20508D0326C002A05D9244B0122E250AD
S315100034F0214B0122E250224BE258D20708D5314621
S31510003500204600F0F6F801223F239B01E250E258D4
S31510003510EA060AD53146204600F0E8F910223D2386
S315100035209B01E250E258134AA558C0222A400DD0FA
S315100035303146204600F028F801221D23DB01E25017
S31510003540E258C0223D239B01E250E2580D4FE2594A
S3151000355041231A4008D03146204600F034F90122A2
S315100035601F23DB01E250E258F0BD00BF0220AA0083
S315100035708C0E00004C0F0000C80F0000C40F000096
S31510003580CC0F00008C0F0000F0B583B004460D463A
S315100035900127AA6C002A30D000262268D20306D54D
S315100035A0CC4AA258520601D5022600E00026226E09
S315100035B0120506D4C74AA25880231A4000D0012209
S315100035C01643002E19D03046AA6C9047024617466D
S315100035D001223F239B01E250E258012F09D110220C
S315100035E03D239B01E250E258BB4BD222FF32E25000
S315100035F003E0BA4BC222FF32E25001B4812292009C
S315100036000123A2581B041A438120800022502258FD
S315100036109A432250225801BCE766012F67D1626E89
S315100036206B46D206D20FDA706A6C002A08D06B4647
S31510003630DB780222002B00D0012210466B6C9847D3
S315100036406A46D278002A0FD0A54B5A1C6A602A6A9D
S3151000365001231A432A626A6BEA62002224235A550E
S31510003660A04B0122E25042E000229D4B6B6002B457
S315100036702B6A10210B432B6202BC01B49A4801231A
S31510003680235001BC2B78002B23D02B6C002B20D978
S3151000369002B4236E012149030B43236602BC2B6C33
S315100036A0802B08D92B6C80229A1A802A01D93F22A6
S315100036B00FE0013A0DE02B6C5A1E02B4236E012165
S315100036C0C9030B43236602BC01B487480023235069
S315100036D001BC03B4C1239B00E358FF218B431006A2
S315100036E0000E04900343C1208000235003BC03B096
S315100036F0F0BDF0B581B005460C46226C002A55D9AE
S315100037002278002A3DD0C1239B00EA581206120ED9
S31510003710561C32462846A16B00F092FC024616460D
S31510003720E26B9219E263226C921B2264A26B9219CD
S31510003730A263226C802A09D9236C8027DA1B802A7F
S3151000374001D9402300E013465A1E0EE02A6E0123CB
S31510003750DB031A432A66226C002A01D1002201E0FB
S31510003760236C5A1E604F0023EB51C1239B00EB586C
S31510003770FF27BB4317063F0E3B43C127BF00EB5144
S315100037801FE000220092009A01231A430092009A29
S31510003790EA660D27BF01A36BE66BEA599A55E26BF1
S315100037A00132E263226C013A22640AE0002200929E
S315100037B0009A02231A430092009AEA664A4B0022A4
S315100037C0EA5001B0F0BDF0B506460C4624231A5D4A
S315100037D0002A13D1226B002A10D1626C002A02D063
S315100037E00820626C9047226B002A01D0002200E06C
S315100037F0012224231A553B4B0122F25024231A5D31
S31510003800002A19D062780123002A05D03268402395
S315100038101204920F00D180231D462A46FF213046FE
S3151000382000F0E6FC02461546E26A5219E262226A86
S3151000383008231A4322624CE0226B012A16D96378B8
S315100038400122002B01D0226B013A15462A4630463A
S31510003850A16A00F06BFC02461546E26A5219E26252
S31510003860226B521B2263A26A5219A2624123DB0009
S31510003870F258D205D20D802A2BD0226B012A28D1DC
S31510003880FEF73AFC02461746A36A1A7809239B01EB
S31510003890F25040221F23DB01F250F2583846FEF751
S315100038A02FFCE26A0132E26200222263A26A01322E
S315100038B0A2620C4B4022F2506278002A09D0226A8A
S315100038C002231A432262626C002A02D00420626C20
S315100038D09047F0BD4C0F0000480F0000880E000006
S315100038E001100000880F0000C80F0000F0B581B06D
S315100038F004460D46C44B6A689A423AD16123DB00EE
S31510003900E258D20515D02A6A40231A432A622A7829
S31510003910002A0BD0C126B6000123A2591B041A4354
S31510003920A251A2599A43A251A25902E00D22920124
S31510003930A25820262A6A20231A432A622A6A1023AA
S315100039409A432A62226E0092009A01235B039A43DD
S315100039500092009A0123DB039A430092009A226692
S31510003960AA4B0022E25001223F239B01E250E2586B
S3151000397020E04126F600A259A359D205D20D1B0408
S31510003980DB0F9F18EA6AD21B6A632A6A120705D4EC
S315100039902A6BD2192A63AA6AD21BAA6210262A6A2D
S315100039A004231A432A622A6A520852002A62984B42
S315100039B00022E250974A0223A258FF331A400ED033
S315100039C022685200520822600022A266E26622682D
S315100039D00123DB071A432260226840221643012284
S315100039E012076A606A6C002A02D030466A6C9047E9
S315100039F001B0F0BDF0B582B005460C46864AAF5808
S31510003A0007225202AE58022333400CD0AA6E002A67
S31510003A1006D00022AA66A26801231B061A43A260DA
S31510003A200322D2046260F20740D504233B403DD105
S31510003A300422964302233B4023D002220F231B026B
S31510003A40EA50EA580F231B02EA58520702D4012300
S31510003A501B0501E001235B05A2681A43A260626898
S31510003A6017231B049A420CD062680B235B049A42FC
S31510003A7007D0237B0B225204002B01D00322D20441
S31510003A8062601222FF323A4010D0FA0504D5A268BD
S31510003A900123DB051A43A260FA0704D5A2680123A5
S31510003AA09B051A43A2600322D2046260320708D52E
S31510003AB02146284600F025F801223F239B01EA50B3
S31510003AC0EA580423334008D02146284600F08FF8E0
S31510003AD001221F23DB01EA50EA5862680323DB0444
S31510003AE09A4203D12146284600F0FAF862680B2361
S31510003AF05B049A4203D12146284600F08AF902B0A7
S31510003B00F0BDF0B582B005460C46626811231B0461
S31510003B109A4204D009235B049A4223D064E00D260E
S31510003B20B6012369AA591A70626901326261A269E3
S31510003B30013AA261A269002A0BD9226901322261D7
S31510003B4000220092009A04231A430092009AAA6651
S31510003B5007E0237B0B225204002B01D00322D20450
S31510003B60626042E02846A269216900F069FA0246BD
S31510003B701646626992196261A269921BA261226954
S31510003B8092192261A269022A1CD22A6E0192019A06
S31510003B900123FF339A430192019A2A66A269012AE8
S31510003BA009D1C127BF00EA59FF239A43EA511122CE
S31510003BB01204626017E0154B0022EA500B225204E1
S31510003BC0626010E0A2693F27402A01D8A269971EB9
S31510003BD0C1229200AA58FF239A433B061B0E1A4392
S31510003BE0C1239B00EA5000E000BF02B0F0BDF0B563
S31510003BF005460C46626815231B049A420ED1032211
S31510003C00D20462606BE000BF01100000C80F000014
S31510003C10880F00004C0F00000C0F0000626805238F
S31510003C209B049A425BD1A269012A16D963780122B4
S31510003C30002B01D0A269013A164632462846216960
S31510003C4000F074FA02461646626992196261A26918
S31510003C50921BA2612269921922614123DB00EA5864
S31510003C60D205D20D802A18D0A269012A15D1FEF7E5
S31510003C7043FA0246174623691A7809239B01EA502C
S31510003C8040221F23DB01EA50EA583846FEF738FA7D
S31510003C906269013262610022A261A269002A1ED104
S31510003CA0227B002A06D0CA4B4022EA501522120463
S31510003CB0626005E0C64B0022EA500B225204626095
S31510003CC06278002A0BD0A26801235B041A43A26013
S31510003CD0626C002A03D001200004626C9047F0BD8C
S31510003CE0F0B584B004460D46BA4AA2580192226E27
S31510003CF00092009A0123FF339A430092009A22669B
S31510003D00B54B0022E250B24B0022E250B34B0022D8
S31510003D10E2500122FF3217320F231B02E250E25803
S31510003D20AF4BAA681A40AA606A7B002A02D06A6959
S31510003D30EA610BE04126F600A259A359D205D20D2D
S31510003D401B04DB0F9A186B699A1AEA610123FF3379
S31510003D505A1C019B1A4027D00126226E520010D5FC
S31510003D60226E002A0DD5019B04271F4001D0012683
S31510003D7007E0019B0127FF371F4001D1002600E015
S31510003D800126002E0CD02268520052082260002212
S31510003D90A266E26622680123DB071A4322602268C4
S31510003DA0012212076A6019E02A78002A0FD0C1266C
S31510003DB0B6000123A2591B041A43A251A2599A43D1
S31510003DC0A251A25901223F239B01E250E2582B7BBC
S31510003DD001221207002B00D0824A6A606A6C002A00
S31510003DE015D06B7B01225204002B01D001229204C4
S31510003DF0174602B4AB6800221F2109050B4002BC0E
S31510003E0001D00122D204174338466A6C904704B099
S31510003E10F0BDF0B581B002460B466F4D00245451EB
S31510003E206B4D00245451946E002C04D06B4D182405
S31510003E30FF34545112E0694D1424FF3454510024B8
S31510003E400094009C10252C430094009C08252C43BC
S31510003E500094009C9466172424045C6001B0F0BDA5
S31510003E6030B504460025216800290AD90120FEF73D
S31510003E708CF82168013921602168002901D10125BA
S31510003E80ED072946084630BDF0B585B004460491C5
S31510003E901646554F00253B4601B40598C00FC0077E
S31510003EA001BC01D0012570E003B40698C02108407A
S31510003EB003BC0FD001B4A06E002801BC65D07B1DD9
S31510003EC001B40020A06601BC01B401200007706097
S31510003ED001BC5AE003B406980121FF31084003BC27
S31510003EE002D03B1D012550E001B40598C00701BC66
S31510003EF012D0FB1C03B43D497068884203BC09D13B
S31510003F00256E6D00ED17013501B4012000077060B4
S31510003F1001BC3AE0012538E003B4069802210840B6
S31510003F2003BC0DD003B43149B81C049070688842A4
S31510003F3003BC03D101B4781C039001BC029B24E09E
S31510003F4003B406981021084003BC06D0002301B420
S31510003F5001200007706001BC17E0002303B4234959
S31510003F607068884203BC10D103B405218904707BA4
S31510003F700491002803BC04D002B411210904039152
S31510003F8002BC01B40398706001BC002D13D003B4B9
S31510003F9020680121C907884320600020A066E066DA
S31510003FA0206808432060206803BC01B40120000784
S31510003FB0706001BC07E003B41821FF310F20000226
S31510003FC02150205803BC00BF184605B0F0BD00BFF5
S31510003FD0880F00000C0F0000C80F0000080F00002B
S31510003FE0FFFFFEFF000010100320AA0000001310B0
S31510003FF0F0B582B004460D46164603273F02E35934
S31510004000DB06DB0E082B0CD22F46002306E001B48C
S315100040100D2080012058F85401BC0133B342F6D369
S315100040200CE02F46002307E003B40D208001215831
S315100040305800C15303BC0133B342F5D302B0F0BDEF
S31510004040F0B505460F4616466123DB00EC58E4052D
S31510004050E40DB44200D93446224639462846FFF7C5
S31510004060C7FF23461846F0BDF0B581B0074600914C
S315100040701446009D12E0224629463846FFF7E0FF17
S3151000408003461E4603231B02FB58DB06DB0E082BDA
S3151000409001D2334600E07300ED18A41B002CEAD8B9
S315100040A001B0F0BDF0B503460D4600221C6840264F
S315100040B02404A40F00D180264127FF00DC59E40513
S315100040C0E40DA64203D00924A4011D51012200BF0C
S315100040D01046F0BDF0B582B004460D4616460127CF
S315100040E07F02E359DB06DB0E082B0ED22F46002388
S315100040F008E003B4F85C03900146092080012150C2
S3151000410003BC0133B342F4D30EE02F46002309E07B
S3151000411003B45800C05B039001460920800121506A
S3151000412003BC0133B342F3D302B0F0BDF0B505467C
S315100041300F4616462B6840241B049B0F00D1802483
S315100041404123DB00EB58DB05DB0DE41AB44200D942
S315100041503446224639462846FFF7BCFF2346184602
S31510004160F0BDF0B581B0074600911446009D12E0EF
S31510004170224629463846FFF7D9FF03461E46012335
S315100041805B02FB58DB06DB0E082B01D2334600E040
S315100041907300ED18A41B002CEAD801B0F0BDF0B5E1
S315100041A004460E460022256840232D04AD0F00D18B
S315100041B080230BE04125ED006559ED05ED0DAB4271
S315100041C0F8D0B75C0925AD0167510132B55C002DF9
S315100041D000D100E0EEE7F0BDF0B504460D461346FB
S315100041E003E00926B601A551013B002BF9D8F0BD15
S315100041F0F0B505460F4616462B6840241B049B0F48
S3151000420000D180244123DB00EB58DB05DB0DE41ADB
S31510004210B44200D93446224639462846FFF7DCFF19
S3151000422023461846F0BD0000F0B586B004460B468E
S3151000423015460027002C00D1C1E0002D00D1BEE0AC
S315100042402E68002E03D101269E40666002E00126EC
S315100042509E40A66001B42E7A01A8C6707E48261A22
S315100042607E48F6093601069030180390042B01BCDF
S315100042701AD203B4DEB2F6001F200790B0400690A3
S31510004280049805960068069907908843039002A83B
S31510004290C078C006C00EB040079006460398064385
S315100042A00498066003BC1AE003B41E1FF6B2F600AB
S315100042B01F200790B040069004980596406806990E
S315100042C007908843039002A8C078C006C00EB0407D
S315100042D007900646039806430498466003BC03B449
S315100042E001219940A06C6E6906910790884305904C
S315100042F0F607F60F9E400643A66403BC03B40121DD
S315100043009940E06CAE690691079088430590F607D0
S31510004310F60F9E400643E66403BC03B4E8695E00EC
S3151000432010360321B1400490E06C06918843059045
S31510004330014604988007800FB040079001430E464F
S31510004340E66403BC03B468689E000F21B140049074
S31510004350606C069188430590014604980007000F8B
S31510004360B040079001430E46666403BC03B4E86888
S315100043705E000321B1400490206C0691884305909D
S31510004380014604988007800FB040079001430E46FF
S31510004390266403BC666901269E406661666903B49D
S315100043A001219940A0692E690691079088430590CE
S315100043B0F607F60F9E400643A66103BC00E0284FA1
S315100043C03E46304606B0F0BDF0B581B006460F4603
S315100043D00025002E14D000240FE023011B1B9B0088
S315100043E09A191179083223011B1B9B009B19186817
S315100043F0FFF71AFF024615460134BC42EDD300E022
S31510004400174D2A46104601B0F0BDF0B581B00246F0
S315100044100B460024002A1AD0002B18D00E4D551B1F
S31510004420EE090E4D37017D19DF692F601F6A6F6027
S315100044301F6817601F6997645F69D764DF685764E0
S315100044409F681764074F57615F68976100E0044CD7
S3151000445000BF204601B0F0BD0000314000003040E2
S3151000446001005A00FF010000F0B505460A46012377
S315100044705B03002D01D0002A01D1BE4C34E0BE4EA4
S315100044802C46B44209D2BD4EB44210D0BC4EB442F2
S3151000449011D0BC4EB44212D023E0B74EB44213D062
S315100044A0B94EB44214D0B94EB44215D019E0002416
S315100044B01480536017E01C461480536013E00124E7
S315100044C0A403148053600EE00024148053600AE0A5
S315100044D01C461480536006E00124A4031480536024
S315100044E001E0A44C00E000242046F0BD70B505465E
S315100044F0A74C00220DE09300991AC9000919096802
S315100045008D4205D19100881AC0000019043003E0CD
S315100045100132062AEFD3002070BDF0B503460C46D3
S315100045203F2C01D9002214E01D0C2D04012636045F
S31510004530AA19AC26F5582D04AD0CAD005219BC279E
S31510004540FD58944E6D056D0F755D02356543AD00D2
S31510004550521900BF1046F0BDF0B503460C461F2C8D
S3151000456001D9002214E01D0C2D0401263604AA19C7
S31510004570C026F5582D04AD0CAD005219C827FD58AC
S31510004580844E6D076D0F755D02356543AD0052198A
S3151000459000BF1046F0BDF0B581B005460E46174671
S315100045A0012E01D9002324E02C0C240401231B0422
S315100045B0E318002E04D1A02464592404A40C03E0AB
S315100045C0B02464592404A40CA4001B19002E04D191
S315100045D0BC2464596407640F03E0BC246459640660
S315100045E0640F02B46B490C5D02347C43A4001B19A2
S315100045F002BC00BF184601B0F0BD30B50246614B93
S3151000460000219A4200D9032113045B0EC918C9B2BE
S3151000461000BF084630BDF0B505465F4E0024002D9C
S3151000462000D129E02846FFF7E8FF01460C46296D20
S31510004630890002D5610001228A53296DC90002D56D
S31510004640610002228A53296D090102D561000322F5
S315100046508A53296D490102D5610004228A53296DB6
S31510004660890102D5610005228A53296D890202D576
S31510004670610006228A5300BFF0BDF0B582B0054630
S315100046800B4600220024002D00D136E02E6876005D
S31510004690F60F1E721E7A002E04D12E68F600760DC5
S315100046A05E6003E02E68F600F6085E606E68B6027D
S315100046B0F60F1E706E683603360F4C27FE544C27C5
S315100046C0FE5C082E01D2002404E04C24E65C082788
S315100046D0F41BA4B200220CE002B496001F460C375D
S315100046E001972946083177580199775002BC013253
S315100046F092B2284E365DB242EED302B0F0BDF0B59E
S31510004700AAB00390002600270398FFF7EFFE014694
S3151000471002910299002900D137E1039D1F4A296DA4
S31510004720114002D00398FFF776FF296D090369D56A
S31510004730296D0122D2041143296598225159002965
S315100047402ED0002412E00121A14098235A5911407D
S315100047500AD021460398FFF7E0FE01460E460121D6
S31510004760A140982251513AE00134E4B2202CEAD308
S3151000477035E000BF010062000000544000005240C6
S3151000478000025240000452400002544000045440BB
S315100047901C0E0008209100103C140008EEE0F73FB4
S315100047A09C22515900291AD0002416E00121A1405B
S315100047B09C235A5911400ED02034E4B22146039856
S315100047C0FFF7ABFE01460E462146203901228A40EC
S315100047D09C235A5103E00134E4B2202CE6D3002E78
S315100047E000D1D2E016A93046FFF747FF029A51686A
S315100047F0002900D1C9E00298436816AA2146002074
S315100048009847C2E0296DC90756D5296D0122114373
S3151000481029654CE0039A8123FF33D158C90720D567
S31510004820039BBC331968CA4A4907490F515C8F1C50
S31510004830FFB2002408E0039B04AAA921FF315B58AC
S31510004840A1008B500134E4B2BC42F4D3029A9168B1
S3151000485000292CD00298836804AA3946002098476C
S3151000486025E0A422515900910099039889048A0ED3
S315100048700021FFF790FE01460E46002E17D016A90E
S315100048803046FFF7FAFE00998904A82252593F23B1
S315100048909A438B0E1A43A8214A51029A516800294D
S315100048A005D00298436816AA002101209847A42231
S315100048B051594906AED168E0296DC90656D5296DFC
S315100048C01022114329654CE0039A8123FF33D158F6
S315100048D0890720D5039BBC3319689D4A4906490FA1
S315100048E0515C8F1CFFB2002408E0039B04AAB92177
S315100048F0FF315B58A1008B500134E4B2BC42F4D3B3
S31510004900029A916800292CD00298836804AA394625
S315100049100120984725E0B422515901910199039835
S3151000492089048A0E0121FFF736FE01460E46002E37
S3151000493017D016A93046FFF7A0FE01998904B822B0
S3151000494052593F239A438B0E1A43B8214A51029A61
S315100049505168002905D00298436816AA0121084615
S315100049609847B42251594906AED10EE0296D8905F2
S315100049700BD5296D0122520211432965029A11683D
S31510004980002902D0029A116888472AB0F0BDF0B506
S315100049909DB007460C466F4B1A6800926E4B1A680C
S315100049A001926E4B1A6802926D4B1A6803926D4B08
S315100049B01A6804926C4B1A6805926C4B1A68069228
S315100049C06B4B1A6807926B4B1A6808926A4B1A68F7
S315100049D009926A4B1A680A92694B1A680B92694BCC
S315100049E01A680C92684B1A680D92684B1A680E92E8
S315100049F0674B1A680F92674B1A681092664B1A68C3
S31510004A001192664B1A681292002F0FD0002C0DD0FF
S31510004A1028231A5D002A02D0E26A002A06D0302323
S31510004A201A5D002A04D0626B002A01D15C4AF2E3B7
S31510004A303846FFF75BFD02461392139A002A01D1FE
S31510004A40574AE8E3139B22681A60139B62685A6000
S31510004A50139BA2689A60139BE268DA60139B226923
S31510004A601A613D460122AA61AA69D207FCD5032222
S31510004A70AA611BA93846FFF7F7FC002801D0484A5F
S31510004A80C9E328231A5D6B469A701BAA12889610E2
S31510004A90444A009B9343B20013430093009A842325
S31510004AA05A513022019B165D7F22120493437206DF
S31510004AB0520A1343019384225259920828231B5DEC
S31510004AC0D618384A019B9343B204120C1343019330
S31510004AD0019A88235A51A66B029A520F5207F30075
S31510004AE0DB081A430292029A90235A5140220D9BD8
S31510004AF0165D0722120293437207520D13430D934C
S31510004B0041220D9B165D702293437207520E13437A
S31510004B100D934222135D0D9A0726B24333401A4372
S31510004B200D920D9ABC235A514422039B165D5B00CD
S31510004B305B08F207134303934522039B165D7F22FE
S31510004B4012069343720652081343039346222BE030
S31510004B5020910010289100102C9100103091001017
S31510004B6034910010389100103C91001040910010C3
S31510004B7044910010489100104C9100105091001073
S31510004B8054910010589100105C9100106091001023
S31510004B9064910010689100106C91001070910010D3
S31510004BA001006200FCFF0000039B165D7F221204C9
S31510004BB093437206520A134303933022125D530035
S31510004BC0882252599208D618E84A039B9343B20496
S31510004BD0120C13430393039AA0235A514822049BA1
S31510004BE0165D5B005B08F207134304934922049B8E
S31510004BF0165D7F22120693437206520813430493DE
S31510004C004A22049B165D7F22120493437206520AAF
S31510004C1013430493D64A42231B5DD25C02324623C9
S31510004C201B5D5343A02252599208D618CF4A049BB3
S31510004C309343B204120C13430493049AB0235A51AB
S31510004C404722135D129A0126B24333401A43129239
S31510004C504B22135D129A0226B243DB079B0F1A43AF
S31510004C601292129A8123FF33FA50C14A41231B5DD7
S31510004C70D25C02324A231B5D5343B022525992082A
S31510004C80D618BA4A059B9343B204120C13430593E4
S31510004C90059AAC235A514322135D0E9A0726B24346
S31510004CA033401A430E920E9AC8235A51069A3F233E
S31510004CB01B069A430692069A3F231B049A430692B2
S31510004CC0AB4A40231B5DD25C02324C231B5D53431F
S31510004CD0AC2252599208D618A44A069B9343B204A2
S31510004CE0120C13430693069AF0235A51079A01237E
S31510004CF09B079A430792079A3F231B069A430792EC
S31510004D004D22079B165D3F2212049343B206920A68
S31510004D1013430793F022079B52599608934A143669
S31510004D209343B204120C13430793079AC0235A51A4
S31510004D301BAE33883A0C12049A1801231B04D6189A
S31510004D4014961C9A93081593002605E0149A131DC1
S31510004D501493002313600136159A9642F6D3089AD7
S31510004D6001231A430892089A02231A430892089AB2
S31510004D7001239B039A430892227D089B18920122D5
S31510004D8052029343189AD207920D13430893227D29
S31510004D90089B18920122FF329343189AD207D20D1C
S31510004DA013430893089A80239A430892089A40233B
S31510004DB09A430892089A20239A430892089A102335
S31510004DC09A430892089A04239A430892089AAA6169
S31510004DD0E28A1892674A099B9343189AD205D20918
S31510004DE013430993227E09AB5A70627E1892099A70
S31510004DF07F239A43189B5B065B0E1A430992A27E89
S31510004E00099BDB01DB09520613430993099AEA61F0
S31510004E10227D002A51D0A28B0A9B18921F221204BF
S31510004E209343189AD206D20A13430A93A27F0A9B77
S31510004E3018921F2212029343189AD206D20C1343C9
S31510004E400A93E27F0A9B1892F0229343189A12074C
S31510004E50120E13430A932022125D18920A9A0F23F8
S31510004E609A43189B1B071B0F1A430A922222125DA4
S31510004E700A9B18920122D2059343189AD207120A56
S31510004E8013430A930A9AEA602322125D0B9B189227
S31510004E907F2212029343189A5206520C13430B9315
S31510004EA02422125D18920B9A7F239A43189B5B0655
S31510004EB05B0E1A430B920B9AAA643C22125D0C9B52
S31510004EC0189230229343189A9207920E13430C931A
S31510004ED03D22125D0C9B18920C229343189A92074E
S31510004EE0120F13430C9301B43E22135D0D9A022048
S31510004EF08243DB079B0F1A430D9201BC01B43F227C
S31510004F00135D0D9A01208243DB07DB0F1A430D92C6
S31510004F1001BC0C9A80235A513B0C1B048422525913
S31510004F201204920C92009A1801231B04D21816929E
S31510004F30002609E001B4179BE06AB200D3181218D4
S31510004F4012681A6001BC013628231A5D9642F1D305
S31510004F503B0C1B04882252591204920C92009A1888
S31510004F6001231B04D2181792002613E0FCFF000041
S31510004F70209100100000FF0101B4189B606BF20035
S31510004F809B181990821810681990526818605A6008
S31510004F9001BC013630231A5D9642EDD30F9A0123D8
S31510004FA05B079A430F920F9A01231B079A430F929E
S31510004FB00F9A0123DB069A430F920F9A01239B0641
S31510004FC09A430F920F9A01235B069A430F920F9AF8
S31510004FD001231B069A430F920F9A0123DB059A436E
S31510004FE00F920F9A01239B059A430F920F9A012352
S31510004FF05B059A430F920F9A01231B059A430F9252
S315100050000F9A0123DB041A430F920F9A01239B0474
S315100050109A430F920F9A01235B049A430F920F9AA9
S3151000502001231B049A430F920F9A0123DB039A4321
S315100050300F920F9A01239B039A430F920F9A012303
S315100050405B039A430F920F9A01231B039A430F9205
S315100050500F9A0123DB029A430F920F9A01239B02A8
S315100050609A430F920F9A01235B029A430F920F9A5B
S315100050700123FF339A430F920F9A80239A430F927C
S315100050800F9A40239A430F920F9A20239A430F9216
S315100050900F9A10231A430F920F9A08239A430F92CE
S315100050A00F9A04239A430F920F9A02239A430F9250
S315100050B00F9A01231A430F920F9A6A65109A0123C9
S315100050C05B079A431092109A01231B079A4310927A
S315100050D0109A0123DB069A431092109A01239B061D
S315100050E09A431092109A01235B069A431092109AD3
S315100050F001231B069A431092109A0123DB059A434B
S315100051001092109A01239B059A431092109A01232C
S315100051105B059A431092109A01231B059A4310922D
S31510005120109A0123DB049A431092109A01239B04D0
S315100051309A431092109A01235B049A431092109A84
S3151000514001231B049A431092109A0123DB039A43FE
S315100051501092109A01239B039A431092109A0123DE
S315100051605B039A431092109A01231B039A431092E1
S31510005170109A0123DB029A431092109A01239B0284
S315100051809A431092109A01235B029A431092109A36
S315100051900123FF339A431092109A80239A43109258
S315100051A0109A40239A431092109A20239A431092F1
S315100051B0109A10239A431092109A08239A43109229
S315100051C0109A04239A431092109A02239A4310922B
S315100051D0109A01239A431092109AAA65119A0123E4
S315100051E01A431192119A02239A431192119AEA655F
S315100051F03846FFF702FA01B4B94B42000020D052EC
S3151000520001BC089A01239A430892089AAA61AA69CE
S31510005210D207FCD4002210461DB0F0BDF0B585B003
S315100052200546002D01D1AF4974E02846FFF75EF917
S3151000523001460E46002E01D1AA496BE000213160CD
S31510005240002171600021F160002131612C4601219D
S31510005250A161A169C907FCD50321A16103A928464B
S31510005260FFF702F9002801D09E4953E0002184225D
S3151000527011510021882211519B4990221151002170
S31510005280BC2211510021A02211510021B02211512E
S3151000529000218122FF32A9500021AC221151002198
S315100052A0C82211510021F02211510021C0221151A2
S315100052B003AB1A88290C09045118012212048F18FD
S315100052C004998A0802920022009206E039460437B1
S315100052D000220A600099013100910099029A9142C8
S315100052E0F4D30321A1618149E1618149E160002183
S315100052F0A164002180221151002161650021A16560
S315100053000021E1652846FFF778F9754A4100002328
S315100053108B520021084605B0F0BDF0B588B0079055
S315100053206B461546D970079B002B01D0002D01D175
S315100053306C4E9DE06B46DB781F2B01D9694E97E0CA
S315100053400798FFF7D3F803460393039B002B01D16D
S31510005350644E8DE0079B0293029CA369DB0708D479
S315100053606E46F6780123B340029ECC36346823404D
S3151000537001D05C4E7CE06846C1780798FFF7ECF8E0
S3151000538003461C46002C01D1564E71E023680126B7
S315100053907607B34323602F7A266801239B079E4323
S315100053A0FB075B081E43266023685B0002D46B680C
S315100053B09F0400E06F6823685B0F5B07FE00F6082A
S315100053C03343236063680126F605B343636063685D
S315100053D01B021B0A63604C2366685F5D0F231B0468
S315100053E09E433B071B0B1E4366602F78666801239E
S315100053F05B059E43FB079B0A1E4366602F78666813
S3151000540001231B059E43FB07DB0A1E4366604C26E1
S31510005410735D082B01D2002704E04C235B5D082640
S315100054209F1BBFB2334BDE5D6B469E70002311E0AF
S3151000543003B49E00214608310791069629460C3181
S31510005440089170580799089070180899016003BC64
S3151000545001339BB26E46B678B342E9D301B401A8C4
S31510005460C078012686400398D030066001BC00261D
S31510005470304608B0F0BDF0B505460B46002D01D0FC
S315100054801F2B01D9002221E02C46002201269E4026
S31510005490CC273F593E4009D001269E40D4273F597C
S315100054A03E4001D1012210E003220EE001269E406B
S315100054B0D8273F593E4001D0022206E001269E40E1
S315100054C0DC273F593E4000D0042200BF1046F0BDF5
S315100054D0F0B504460D46164600231846F0BD00BF2B
S315100054E03C14000801006200FFFFFF1F030A0006BC
S315100054F0330A000020910010F0B590B00D900C9179
S315100055000E920F93A84D2C68002C03D503256C46DC
S31510005510E5701CE20D9802F0A1FBA44902F038FDDB
S31510005520044604940C9802F099FB0446A04804998A
S3151000553002F009FC214602F006FC04460E9802F021
S315100055408DFB0121890702F0FEFB06460F9802F03B
S3151000555085FB314602F01CFD02F04CFB02F02EF9E1
S3151000556002F0F8FA934902F0EEFB214602F010FD24
S31510005570044625460C9802F071FB04460C9802F07E
S315100055806DFB0646159802F069FB8B4902F0DBFBB2
S31510005590049902F0D8FB049902F0D5FB314602F0CB
S315100055A0D2FB214602F0CFFB844902F0F1FC0446FF
S315100055B003943F242406A54204DB814CA54201DA5C
S315100055C004243FE07F4CA54201DA05243AE07E4CE4
S315100055D0A54201DA062435E07C4CA54201DA0724FF
S315100055E030E0FD24A405A54201DA08242AE0784C0F
S315100055F0A54201DA092425E0764CA54201DA0A24EF
S3151000560020E0754CA54201DA0B241BE0734CA54231
S3151000561001DA0C2416E07F24E405A54201DA0D24F4
S3151000562010E06F4CA54201DA0E240BE06D4CA5423A
S3151000563001DA0F2406E06B4CA54201DB002401E0E1
S315100056400024E443661C03D101276E46F7707EE101
S315100056503F263606B54205DB624EB54202DA012711
S31510005660059708E05F4EB54202DB0027059702E07A
S315100056700027FF430597059F013703D101276E4683
S31510005680F77064E13F263606B54204DB4D4EB5424F
S3151000569001DA022720E04D4EB54201DA03271BE05E
S315100056A04B4EB54201DA042716E04B4EB54201DAED
S315100056B0052711E07F26F605B54201DA06270BE02D
S315100056C0484EB54201DA072706E0464EB54201DBE1
S315100056D0072701E00027FF437E1C05D101B40120F6
S315100056E001AEF07001BC32E101B404980126F60750
S315100056F0B04201BC07D801B43B4E0498B04201BC7D
S3151000570001DA01263AE001B4384E0498B04201BCE1
S3151000571001DA022632E001B4354E0498B04201BCDB
S3151000572001DA03262AE001B4324E0498B04201BCD5
S3151000573001DA042622E001B42F4E0498B04201BCCF
S3151000574001DA05261AE001B42C4E0498B04201BCC9
S3151000575001DA062612E001B4294E0498B04201BCC3
S3151000576001DA07260AE001B4264E0498B04201BCBD
S3151000577002DA0026F64301E00026F64302B4711C55
S3151000578002BC05D103B4012102A8C17003BCDEE03E
S3151000579003B41D4906980B91884203BC36DD02B44A
S315100057A00021039102BC58E01C15264000247449C0
S315100057B0DB0F494000007A44E6E91D43286B6E4E24
S315100057C0CDCC0C3F9A99193F6666263F3333333F4B
S315100057D0CDCC4C3F9A99593F6666663F3333733F3B
S315100057E06666863FCDCC8C3FCDCC0C40CDCC8C4064
S315100057F03333D340CDCC0C410000304133335341C9
S3151000580066667641CDCC8C41CDCCE44103B4CB4910
S3151000581006980B91884203BC04DD02B40121039162
S3151000582002BC1AE003B4C64906980B91884203BC21
S3151000583004DD02B40221039102BC0EE001B4059806
S31510005840002801BC04DD02B40321039102BC04E06C
S3151000585002B40021C943039102BC03B40021C94319
S3151000586004980B91013003BC05D103B4012102A8A1
S31510005870C17003BC6BE002B40321099102BC01B4F0
S31510005880B0480068029001BC03B40398072188430E
S315100058907907490F0B9108430990039003BC03B491
S315100058A00398F02188432107090E0B9108430990AC
S315100058B0039003BC03B4039803210902884309909B
S315100058C00A98800708210B91810D099808910843C1
S315100058D00990039003BC03B40398032189028843FB
S315100058E00990049880070A210B91010D09980891D7
S315100058F008430990039003BC03B4039807210903D6
S315100059008843099070070C210B91410C0998089156
S3151000591008430990039003BC03B48A4803990B917A
S31510005920016003BC03B488480068022188430990CB
S315100059300798C007810F09980B9101438248099176
S31510005940016003BC03B4002102A8C17003BC6A46FF
S31510005950D07810B0F0BDF0B583B006460F461546A8
S315100059600293A9006818029B00902A4639463046D1
S31510005970FFF7C2FD0446204603B0F0BD70B50446DD
S31510005980724D734AA958002901D5032114E0704BB2
S31510005990E9585A071143E95003E00120FCF7F5FADC
S315100059A0013C6C4AA958C90701D4002CF5D1002135
S315100059B0002C00D1022100BF084670BD30B5044648
S315100059C0614B1968012212071143196007E0002C78
S315100059D001D1022108E00120FCF7D7FA013C5E4A0A
S315100059E01168C907F3D50021084630BD30B5044605
S315100059F0554B19680122D2061143196007E0002C95
S31510005A0001D1022108E00120FCF7BFFA013C524AFD
S31510005A101168C907F3D40021084630BDF0B587B028
S31510005A2003900491039A150E14020023201C291CBE
S31510005A30049A02F0B5FD021C0B1C161C1F1C02B4A6
S31510005A403B1C0122FF32002196428B4102BC07D239
S31510005A50012292040023B242BB4101D201221DE071
S31510005A60334603B43C4A126804A802929A03920D74
S31510005A70013A4280394A02989043039004A840881C
S31510005A80820592091021039804911043029002AAEC
S31510005A9031485370029A026003BC0022104607B0C8
S31510005AA0F0BD10B52C4A106811680004000E89016B
S31510005AB0890D013109020C18204602F0CFF8772122
S31510005AC0C90502F040F910BDF0B581B003460A468B
S31510005AD00125FF35042B07D2042A01DDAA4203DB78
S31510005AE02C461434A24201DD012424E0AA4217DB1D
S31510005AF01B4E9C00A719D406E40E00943C681F2682
S31510005B00B443009EF606F60E34433C60154E9C00D8
S31510005B10A61934680727BC4304273C43346009E0C0
S31510005B20104E9C00A61934680727BC4357077F0FF1
S31510005B303C4334600024204601B0F0BDD7A3BA41DF
S31510005B4000008441441526401C15264000002640BE
S31510005B501C15000024150000201526400000FF0328
S31510005B600001264000122640F0B504460125FF35F7
S31510005B70042C0BD31822CC49CC4801F00BFECC4A8E
S31510005B809321FF3111600020FCF708FA00BFC94BC2
S31510005B90A200D21812685107490F042906D1C64B24
S31510005BA0A200D2181268D106C90E294300BF0846B2
S31510005BB0F0BDF0B58FB004460E461746BF4D2B68A4
S31510005BC0002B01D5032309E1BD4B9E4202D3BD4BE9
S31510005BD09E4201D9032301E1204602F03FF8054613
S31510005BE0304602F03BF8294602F0D2F9B64DA842EB
S31510005BF001DA0323F2E0022F0BD1B44B1D68032305
S31510005C001B079D43BB079B081D43B04B1D6000231C
S31510005C10E4E0182209A8002102F048FA0DAB1F7023
S31510005C2000230AADEB700AABDB78354601335D43D2
S31510005C30A74B9D4205D301B404230BA8837001BC66
S31510005C401FE0A44B9D4205D301B403230BA8837018
S31510005C5001BC16E0A04B9D4205D301B402230BA84C
S31510005C60837001BC0DE09D4B9D4205D301B4012309
S31510005C700BA8837001BC04E001B400230BA8837049
S31510005C8001BCFA2363433046591E02F0FBFF01B4F0
S31510005C90431C0BA8038001BC0795002108910AAB91
S31510005CA01A8828460B4602F04AFF0B466108002266
S31510005CB04018534119461346224602F071FC03461A
S31510005CC00993099B591E642002F0DCFF01B4431CA2
S31510005CD00CA8438001BC01B40CA84388143303807C
S31510005CE001BC0AAA93787E499B000391C958937800
S31510005CF07C489B000390C05802F025F80346029397
S31510005D000AA8008801F0AAFF029902F01CF8039075
S31510005D10204601F0A3FF744902F015F8039902F02A
S31510005D2037F9724902F034F90346019301B40B2393
S31510005D300DA8037001BC0FE00CA803786C480199FC
S31510005D409B00C05802F00AF900DA09E001B40DA868
S31510005D500378013B037001BC0CAB1B78002BEBD115
S31510005D6001B40B230DA8437001BC17E00CA90B78E6
S31510005D705F4901989B00595802F066F801460CA835
S31510005D8043785B489B00C05802F0E8F800DA09E057
S31510005D9001B40DA84378013B437001BC0CAB5B7892
S31510005DA0002BE3D101B400230FA8037001BC2046D9
S31510005DB001F054FF4F4902F0EBF801F078FF01B4FF
S31510005DC003460DA8438001BC09A800F00AF801B4E7
S31510005DD0034601A8C37001BC6B46DB7818460FB0AA
S31510005DE0F0BDF0B584B00146434A0023434D5459E3
S31510005DF0002C00D50323002B00D0A6E03F4D5459AC
S31510005E0000940E68009CA40CA404B503AD0B2C439F
S31510005E100094CE79009D01242406A543F407E409D5
S31510005E2025430095354D009C5451354D54590194D8
S31510005E308E88019C640B6403F504ED0C2C430194CD
S31510005E400C8901ADAC704C8901ADEC702C4D019CE8
S31510005E5054512C4D545902940E7B029C0F25AC4381
S31510005E6035072D0F2C4302944E7B029DF024A5433B
S31510005E703407240E25430295234CCE89029DA54353
S31510005E80F404E40A254302950E7C029D032424079C
S31510005E90A543B407A408254302951A4D029C5451F4
S31510005EA01A4D5459039433E074910010FC130008F2
S31510005EB0F81300080012264000012640301526402F
S31510005EC0006CDC0200688909CDCC0C4038152640E0
S31510005ED080FEF508E462BC0616534605F05BCE0359
S31510005EE09C910010B09100109A99593F00007A4485
S31510005EF0C49100100024744900002640301500009B
S31510005F00341500003815000000FF1F003C15000076
S31510005F108E79039D07242402A5437407640D254337
S31510005F200395C74C4E8A039DA543F405E409254302
S31510005F3003950E7D039D0124A407A543F407640869
S31510005F4025430395BF4D039C545100BF184604B01A
S31510005F50F0BD30B584B00146BB4ABC4C1359009312
S31510005F60009B9B039B0B0B60009BDB01DB0FCB7134
S31510005F70B74C13590193019BDB04DB0C8B8001ACEE
S31510005F80A3780B8101ACA3784B81B24C13590293C1
S31510005F90029B1B071B0F0B73029B1B061B0F4B73DE
S31510005FA0029BDB02DB0CCB81029B9B009B0F0B74CD
S31510005FB0A44C13590393039B5B055B0F8B71039BD7
S31510005FC0DB01DB0D4B82039B5B00DB0F0B7504B013
S31510005FD030BD70B505469C4C9A4BE1585A07114393
S31510005FE0E15011E0002D0BD1984BE15849004908BA
S31510005FF0E150944BE15849004908E15002213DE037
S315100060000120FBF7C2FF013D55229201A158490715
S31510006010E8D5904B0322E15812079143012252070B
S315100060201143E150894BE158DA061143E15011E072
S31510006030002D0BD1854BE15849004908E150814BA1
S31510006040E15849004908E150022117E00120FBF709
S315100060509CFF013D55229201A158C907E8D555224A
S315100060609201A1580222114355229201A150794B57
S315100060700322E15812071143E1500021084670BD72
S31510006080F0B504467049734D03234A591B079A43CA
S3151000609001235B071A434A516E4A8A58002200E0D0
S315100060A00132A242FCD3694E8B595B005B088B51BF
S315100060B0644E8B595B005B088B51664E03258B59DA
S315100060C02D07AB438B51634BCB5800231846F0BDBD
S315100060D0F0B592B007900C46079A002A02D0079A9C
S315100060E0012A01D90122DDE0079B5A1E5A4B920064
S315100060F0D2181268002A01D50322D3E0574B226822
S315100061009A4203D3564B22689A4201D90122C9E01A
S31510006110237A544A002B00D0534A6368934203D320
S31510006120524B62689A4201D90122BBE0504A136869
S315100061300E9353680F9393681093D2681192627AF4
S31510006140022A00D1A0E00027FF430023DB4302937D
S31510006150012596E0237A1622002B00D013220192F5
S3151000616062E00023191C2068019A02F0E8FC021C68
S315100061700B1C0C920D932A1C00230C980D9902F0FF
S315100061800FFA02460392237A3A4A002B00D03A4A73
S31510006190039B934207D3237A384A002B00D0354A03
S315100061A0039B9A4200D23CE00023191C2A1C60680B
S315100061B002F0C5FC4008CA0702434B080C990D981B
S315100061C05618434160680B930023191C2A1C02F0D1
S315100061D0B6FC021C0B1C30460B9902F0E1F9024684
S315100061E01646022E00D20226102E00D910260C9822
S315100061F00D992A467243002302F0D2F90246049200
S31510006200049A6368D71AFB175F40FF1A029A9742DF
S3151000621007D2019A0E920F9510960297002F00D171
S315100062200AE0019A01320192237A7022002B00D0E3
S315100062303822019B934294D9002F21D124E000BF2C
S315100062400000FF013C15000000002640301500003C
S3151000625034150000381500000016264020DA3C00E0
S3151000626060BAFC0120BCBE00E81FA20000688909C4
S31510006270F491001000C2EB0B80FE210A0084D717A0
S315100062800135122D00D865E7227A11AB1A70627AA1
S3151000629011AB5A700EA9079800F007F86B46D87024
S315100062A06B46DA78104612B0F0BDF0B581B00446F0
S315100062B00A46002C01D0012C01D901236CE0936809
S315100062C0022B02D39368102B01D9012364E0536883
S315100062D0002B02D05368122B01D901235CE0137BEB
S315100062E0002B01D0132304E0157B1623002D00D0BC
S315100062F0132315689D420CD3137B002B01D0382332
S3151000630004E0157B7023002D00D038231568AB42AE
S3151000631001D2012340E0D84D631E9B005B191B6818
S315100063200093009B002B01D5032335E0537B022BF2
S3151000633022D01668009B7F25AB4375066D0E2B4346
S3151000634000935668009D1F231B029D43F306DB0C2A
S315100063501D4300959668009D1F231B049D43F3065D
S31510006360DB0A1D430095167B009D0123DB069D432A
S31510006370F3071B091D430095567B009D03231B073E
S315100063809D43B3079B081D430095BB4D631E9B00A1
S315100063905B19009D1D600023184601B0F0BDF0B5D5
S315100063A081B004460A460123002C1CD0012C1AD8B1
S315100063B0B14E651EAD00AD192D680095009D6D0698
S315100063C06D0E1560009DED04ED0E5560009DED02FD
S315100063D0ED0E9560009DAD00AD0F5573009D2D011E
S315100063E0ED0F1573002300BF184601B0F0BDF0B5D0
S315100063F004460D460126002C1CD0012C1AD8013C4F
S315100064009D4BA200D3181A680127FF073A431A605A
S3151000641003E00120FBF7B9FD013D984BA200D2180D
S315100064201268D20701D4002DF3D10022002D00D11D
S315100064300222164632461046F0BDF0B583B0054628
S31510006440029116468E4C8F4B03277F0203228E48ED
S315100064500299814203D9002060600120EAE0029887
S31510006460002803D1002060600120E3E0A078002816
S3151000647005D04921FF315858002800D4D9E001220F
S3151000648038461030854200DBD1E03846103086425F
S3151000649000DBCCE0012060700120FF30854215DA68
S315100064A04520FF3018580F2188432907090F084344
S315100064B04521FF3158504120FF3018580F2188438D
S315100064C0072108434121FF31585040E005200002C2
S315100064D085420BDA4120FF3018580F2188432907CF
S315100064E0090F08434121FF31585030E02805010FAC
S315100064F001914120FF3018580F218843019909074F
S31510006500090F08434121FF315850BD420FDA2907C0
S31510006510090F01914120FF301958F020814301984D
S315100065200007000E01434120FF3019500FE02907E4
S31510006530090F01914120FF3019580F2000028143A5
S3151000654001980007000D01434120FF30195001202A
S31510006550FF30864217DA4520FF301958F020814364
S315100065603007000E01434520FF3019504120FF30FF
S315100065700F211858090488430721090408434121AB
S31510006580FF31585043E00520000286420CDA4120C4
S31510006590FF3019580F20000481433007000B0143C8
S315100065A04120FF30195032E03005010F0191412092
S315100065B0FF3019580F200004814301980007000B83
S315100065C001434120FF301950BE4210DA3107090F3E
S315100065D001914120FF3019580F2000058143019881
S315100065E00007000A01434120FF3019500FE0310720
S315100065F0090F01914120FF3019580F2000068143E1
S3151000660001980007000901434120FF30195000226C
S31510006610029860604920FF3061681858000E000625
S315100066200902090A08434921FF31585001E00020A8
S315100066306060104603B0F0BDF0B581B0074600911A
S315100066400F4C12490868002801D403202BE060681B
S31510006650002801D1032026E00D490D68FF21090607
S315100066608D430026002060700023281C311C009AE0
S3151000667002F065FA64680DE00016264040162640C2
S315100066804814000800002640FFFFFF00480126407E
S315100066904C0126406208002380185941224601F019
S315100066A07FFF3860002001B0F0BDF0B58AB0074614
S315100066B06A46B74ED170002500240123DB03FA1A6F
S315100066C0D3175A400192D21A0192019BED22FF3242
S315100066D0934250D36A46D278002A04D1AD4AB458B0
S315100066E0A406A40E03E0AC4AB458A406A40E0122D4
S315100066F0D203974211D90121C9037A1A0023F6321F
S31510006700A6484341101C191CED22FF32002301F04C
S3151000671047FF021C23469D1A10E00121C903CA1B1C
S315100067200023F6329D484341101C191CED22FF32FE
S31510006730002301F035FF021C2346D5186A46D2788D
S31510006740002A0FD1964B1A68920701D0032213E044
S31510006750904AB2583F239A43AB069B0E1A438D4B71
S31510006760F25008E08C4AB2583F239A43AB069B0E70
S315100067701A43894BF250621B10460AB0F0BDF0B5B1
S3151000678085B0884A0490824F0292002101910498A4
S31510006790017801293AD102984178002902D082491C
S315100067A001919FE002980021018100241FE0002C36
S315100067B003D17E483958C90F05E07D4A611E89000C
S315100067C089180968C90F002910D02046FFF7CCF99F
S315100067D002280BD120460021FFF776F9029A0121F3
S315100067E0A1408BB208321188194311800134022C52
S315100067F0DDD37048032239581207914301225207FC
S31510006800114339500298012181706BE00498017888
S31510006810082967D10298018900295AD06649009142
S3151000682002E0009801380090009800280BD06348C9
S315100068303958890704D461483958C907C90F00E087
S3151000684002210229EDD10098002802D05C4901915D
S315100068503FE000243BE0002C03D154483958C90FBF
S3151000686005E0534A611E890089180968C90F002975
S315100068702CD0029802890121A14089B2114003D07F
S3151000688020460221FFF720F94B4E19E0002C05D1C6
S31510006890552080013958C907C90F0DE0FF25611E23
S315100068A009D0611E012906D8464AA11E89008918F9
S315100068B00968CD07ED0F2946012900D102E0013EF6
S315100068C0002EE3D1002E01D03D4901910134022C56
S315100068D0C1D3384803223958120711433950029848
S315100068E000218170019805B0F0BD70B503460C46C5
S315100068F00322104670BD30B50146334A0B6813604B
S315100069004B6853608B689360CB68D3600B691361D7
S315100069104B6953612D4B01221A700022104630BD6F
S3151000692010B502462A4B1968002903D400211160BC
S3151000693003210BE0254B1978002904D0224B196846
S315100069401160002102E0002111600321084610BDEC
S3151000695010B502461F4B1968890704D41D4B1968D8
S31510006960C907C90F00E00221002903D100211160D7
S3151000697003210BE0154B1978002904D0124B9968A6
S315100069801160002102E0002111600321084610BDAC
S3151000699000002640143000002032000000000000E5
S315100069A040C0264048140008FF0042003015000081
S315100069B00016264038150000404B4C0024150000E8
S315100069C002004200401626405414000848140008DD
S315100069D0181526402415264010B50246B34B1978D3
S315100069E0002904D0B24B59681160002102E0002141
S315100069F011600321084610BD10B50246AD4B19684B
S31510006A00002903D40021116003210BE0A74B19784C
S31510006A10002904D0A64BD9681160002102E000219C
S31510006A2011600321084610BD10B50246A24B196825
S31510006A30002903D40021116003210BE09B4B197828
S31510006A40002904D09A4B19691160002102E0002137
S31510006A5011600321084610BD10B50246974B196800
S31510006A60490703D40021116003210BE08F4B1978DD
S31510006A70002904D08E4B59691160002102E00021D3
S31510006A8011600321084610BD10B504468C4A1168E2
S31510006A904907490F012903D307D002290AD00EE06E
S31510006AA02046FFF73DFF01460CE02046FFF794FF16
S31510006AB0014607E02046FFF74BFF014602E00021A2
S31510006AC021600321084610BD70B505460C462846C0
S31510006AD0FFF74AF802461123FF339A4205D2012ADC
S31510006AE00DD311D0022A14D027E01223FF339A4275
S31510006AF014D318D01523FF339A4219D01DE020461F
S31510006B00FFF70EFF02461BE02046FFF765FF024621
S31510006B1016E02046FFF71CFF024611E02046FFF75D
S31510006B206BFF02460CE02046FFF796FF024607E091
S31510006B302046FFF779FF024602E000222260032278
S31510006B40104670BD10B5044621460020FFF7BCFF65
S31510006B500146084610BDF0B504460D460026B4425F
S31510006B6003D900222A60012205E02946621CD0B210
S31510006B70FFF7AAFF02461046F0BDF0B587B00446EF
S31510006B806846FFF7DFFF01460D46002D03D00021B2
S31510006B90216029462CE001A8FFF7DBF905AA117838
S31510006BA0022903D100992160002121E0454A11688C
S31510006BB0002903D400992160002119E0424A116886
S31510006BC0CE07F60F002E03D10021216003210FE01E
S31510006BD002AB0199009A1888514302F053F802ABA0
S31510006BE0DA780146501C02F04DF80146216000216A
S31510006BF0084607B0F0BDF0B587B004460D4600262E
S31510006C0001A92046FFF7A7FF02461746002F02D01C
S31510006C102E603A4646E003A9601CFFF7C0FB06ABA0
S31510006C205A78022A03D1019A2A6000223AE00023F8
S31510006C306A4693706A469278944202D92E6001226F
S31510006C4030E0FF22631C08D0631C012B05D81F4AB5
S31510006C50A3009B181B68DA07D20F0023002A00D066
S31510006C6001236A46D3706A46D278002A02D12E6072
S31510006C70032217E0164BA200D2181268002A02D47B
S31510006C802E6003220EE0039A019B5A430498114684
S31510006C9001F0F8FF059B0146184601F0F3FF024686
S31510006CA02A600022104607B0F0BD00BF4814000845
S31510006CB054140008081526400C15264010002740CD
S31510006CC0001726403015264040152640401626400F
S31510006CD000162640F0B505460E4600276C1EE4B297
S31510006CE0002D04D13046FFF748FF02460CE0BC42A7
S31510006CF005D831462046FFF77EFF024604E03146AE
S31510006D002846FFF7E1FE02461046F0BDF0B583B007
S31510006D1005460C461B27BF01032D09D31822C0496F
S31510006D20C04800F037FDC04B00201F60FBF736F956
S31510006D30BE4BAA00D218126813071B0F6A46D370EF
S31510006D4001A96B46D878FFF7C5FF02461646002EF6
S31510006D5003D00022226032462FE0032D0BD31822D7
S31510006D60B349B04800F016FDAF4B3A462E3200201C
S31510006D701A60FBF713F9AD4BAA00D21812689206E7
S31510006D80930F1A46012A04D306D0032A08D30BD030
S31510006D900EE0019A22600FE0019A520822600BE081
S31510006DA0019A9208226007E0019AD208226003E055
S31510006DB000222260032200E00022104603B0F0BD3C
S31510006DC010B504462046FFF717FE0146084610BDCB
S31510006DD030B50446974A116889058D0F2946012951
S31510006DE003D307D0022909D00DE02046FFF734FE61
S31510006DF001460BE000212160012107E02046FFF744
S31510006E00FBFD014602E0002121600321084630BD4A
S31510006E10F0B581B00646884A1168C90701D4032126
S31510006E2017E06846FFF794FD01460C46002C01D08A
S31510006E3021460EE0FEF735FE01460D46009800F09D
S31510006E400DFF294601F0A4F800F031FF014631602C
S31510006E500021084601B0F0BD30B50446774A1168E6
S31510006E604D076D0F2946012905D309D004290CD0E9
S31510006E7005290FD013E02046FFF7BEFD014611E0AD
S31510006E802046FFF7E9FD01460CE02046FFF7CCFD52
S31510006E90014607E02046FFF7BBFF014602E000214E
S31510006EA021600321084630BD10B504462046FFF781
S31510006EB0D3FF0146084610BDF0B581B00646604FB7
S31510006EC0604AB958002901D4032152E05D4B5E4A4D
S31510006ED0FD581540294601290BD310D00222FF3246
S31510006EE0914213D0594A91421AD0574A914221D011
S31510006EF02AE06846FFF714FD01460C4628E069466D
S31510006F000020FFF703FF01460C4621E069460020EA
S31510006F10FFF7FCFE01460C4600994908009117E060
S31510006F2069460020FFF7F2FE01460C4600998908D3
S31510006F3000910DE069460020FFF7E8FE01460C4679
S31510006F400099C908009103E000213160032110E087
S31510006F50002C03D00021316021460AE0394BF95844
S31510006F600902090E481C009901F08CFE0146316099
S31510006F700021084601B0F0BD70B581B005466946DE
S31510006F800020FFF7C3FE01460C46002C03D000215B
S31510006F90296021460AE02E4B19680904090E481C7F
S31510006FA0009901F06FFE014629600021084601B0E4
S31510006FB070BD70B581B0054669460020FFF7A6FE84
S31510006FC001460C46002C03D000212960214609E019
S31510006FD0204B1968090E481C009901F053FE014612
S31510006FE029600021084601B070BD70B581B0054614
S31510006FF06846FFF7DEFF01460C46002C01D02146FD
S315100070000AE0144B19680904090E481C009901F08E
S3151000701039FE014629600021084601B070BD00BF47
S3151000702029920010FC130008F8130008401226409D
S315100070300492001000002740201526400015264017
S3151000704000002640041500000103000001020000A4
S31510007050080020400810204010B504462046FFF7CF
S31510007060C4FF0146084610BD30B50446FAF7BBFE0C
S3151000707001460D462946012906D30AD003290DD308
S3151000708011D0042914D018E02046FFF7E5FE01467A
S3151000709016E02046FFF744FC014611E02046FFF7B4
S315100070A057FC01460CE02046FFF706FF014607E0B5
S315100070B02046FFF7D1FF014602E00021216003219F
S315100070C0084630BDF0B506460C463246032A05D0B2
S315100070D0052A1CD3062A01D9092A18D12046FFF7FA
S315100070E068FF02461546002D03D0002222602A466C
S315100070F010E02168C04B7201D21812681204120EE9
S31510007100501C01F0BFFD02462260002202E0002260
S31510007110226001221046F0BD70B581B00546694661
S315100071200020FFF7F3FD01460C46002C03D000218A
S31510007130296021460AE0B14B19680907090F481C56
S31510007140009901F09FFD014629600021084601B013
S3151000715070BDF0B581B006460C4669460020FFF7B3
S31510007160D5FD02461546002D03D0002222602A4680
S315100071701EE0002E0AD1A24F00993A689205920F8E
S31510007180501C01F07FFD0246226010E0012E0AD14C
S315100071909C4F00993A689205920F501C01F072FDAF
S315100071A00246226003E000222260012200E0002253
S315100071B0104601B0F0BDF0B581B006460C466946E2
S315100071C00020FFF7A3FD02461546002D03D000222E
S315100071D022602A461EE0002E0AD1894F00993A688D
S315100071E09207920F501C01F04DFD0246226010E0EE
S315100071F0012E0AD1834F00993A689207920F501CBC
S3151000720001F040FD0246226003E0002222600122C6
S3151000721000E00022104601B0F0BD70B581B0054601
S3151000722069460020FFF772FD01460C46002C03D07C
S315100072300021296021460AE0734B19688905890FD8
S31510007240481C009901F01EFD0146296000210846E0
S3151000725001B070BD70B581B0054669460020FFF7D4
S3151000726055FD01460C46002C03D00021296021460D
S315100072700AE0654B19688907890F481C009901F0C7
S3151000728001FD014629600021084601B070BDF0B528
S3151000729087B06A46D07004915C4A14686A46D27800
S315100072A06E2A0AD318225A495A4800F073FA5A4BD2
S315100072B05A4A00201A60FAF771FE6B46DA78584B74
S315100072C09200D21812686E469205920F7270F2787A
S315100072D09200D21817683F063F0E6B465A78022A5C
S315100072E004D353D0032A00D1E1E04DE16A463D466E
S315100072F056783246012A03D306D0032A08D00BE06B
S31510007300202D0BD301220AE0102D07D3012206E00F
S31510007310082D03D3012202E0012200E00022002AF8
S315100073200AD018223F493B4800F034FA3A4B3E48FF
S3151000733018600020FAF732FE002E06D1AB003B4D46
S315100073405B191A681204120E14E0012E06D1AB0056
S31510007350374D5B191A681202120C0BE018223149CC
S315100073602C4800F017FA304A2B4B0C3200201A60CA
S31510007370FAF714FE2F4B25469D431304DB0A1D43D3
S315100073802C4622461F239A4314460AE16A463D4676
S3151000739056783246012A03D306D0032A08D00BE0CA
S315100073A0202D0BD301220AE0102D07D3012206E06F
S315100073B0082D03D3012202E0012200E00022002A58
S315100073C00BD018221C49134800F0E4F9164A124B48
S315100073D0673200201A60FAF7E1FD00220122002A26
S315100073E02FD1182214490B4800F0D4F90E4A0A4B33
S315100073F06832002022E000BF004000400000244018
S315100074000013204080132040C4132040C092001067
S3151000741098920010FC130008F8130008F3080000F7
S31510007420000C004073920010F90700000010004095
S3151000743000140040E0FF1F004E9200101A60FAF789
S31510007440ADFD022E0BD1C84BAA00D2181668360213
S31510007450360CAA00D21815682D06ED0E18E0032E6C
S315100074600AD1C24BAA00D2181668360AAA00D21838
S3151000747015682D06ED0E0BE01822BD49BD4800F02B
S3151000748089F9BD4ABD4B763200201A60FAF786FD9F
S31510007490BB4A234693433204D20A13431C46224660
S315100074A01F239A43EB06DB0E1A43144679E06A460D
S315100074B03D4656783246012A03D306D0032A08D011
S315100074C00BE0202D0BD301220AE0102D07D3012249
S315100074D006E0082D03D3012202E0012200E000227B
S315100074E0002A0BD01822A249A24800F053F9A24A4A
S315100074F0A24B673200201A60FAF750FD00220122D3
S31510007500002A0BD118229A499A4800F043F99A4A50
S315100075109A4B683200201A60FAF740FD022E0BD102
S31510007520914BAA00D21816683602360CAA00D21849
S3151000753015682D06ED0E18E0032E0AD18B4BAA0006
S31510007540D2181668360AAA00D21815682D06ED0E3E
S315100075500BE018228649874800F01CF9864A874BAB
S31510007560763200201A60FAF719FD864A23469343AD
S315100075703202D20813431C4622461F239A43EB06B7
S31510007580DB0E1A4314460CE018227F49794800F0A6
S3151000759001F97A4B7D4A1A600020FAF7FFFC00BF0A
S315100075A000BF01A8FFF705FD6B4698706A469278F2
S315100075B0002A02D06B469A7809E0019A0023D10E70
S315100075C05001221C00F0ECFF049B186000221046AC
S315100075D007B0F0BDF0B58EB06D460C46E870079258
S315100075E006936E46F578012D03D306D0032D08D0E9
S315100075F00BE0202C0BD301250AE0102C07D3012514
S3151000760006E0082C03D3012502E0012500E0002541
S31510007610012D01D10125A4E001A8FFF7CAFC019DA7
S31510007620EF0E0D976D010C950023079A0C980D9986
S3151000763000F0B6FF061C0F1C02966D46ED78022D63
S3151000764040D108B400233D46202E9D4108BC09D2E6
S3151000765002B401256D050021B542B94102BC01D223
S3151000766001257EE003B44049A00041180498069114
S31510007670C5022D0C681E464D07900868A843059054
S31510007680079805042D0A08210598079128430590A7
S3151000769001460698016003BC03B43349A0004118A3
S315100076A004980691C006C00E07900868F821884312
S315100076B001460798C50606982D0E0D4305950560DB
S315100076C003BC42E06D46ED78032D3CD108B400238F
S315100076D03D46202E9D4108BC09D202B401256D07F6
S315100076E00021B542B94102BC01D2012539E003B4EB
S315100076F01E49A000411804980691C5002D0A681E5F
S315100077000790050208680006000E08210791284315
S31510007710059001460698016003BC03B41349A00006
S31510007720411804980691C006C00E07900868F82103
S31510007730884301460798C50606982D0E0D430595F4
S31510007740056003BC01E001250BE0069D002D07D066
S31510007750321C3B1C0C980D9900F022FF069D2860E8
S31510007760002528460EB0F0BD00180040001C004051
S315100077704E920010FC130008F9070000F8130008D9
S31510007780E0FF1F00E0FFFF1FC49200102F0B000048
S3151000779000FFFF0020B5002A0FD0031C0D781D70C6
S315100077A00133002D01D1013B03E00131013AF5D13E
S315100077B003E01D700133013AFBD120BDE0B592B054
S315100077C0109011910B1C021C051C0D4300D1B4E145
S315100077D0D34DA94200D3A9E1C802D249400F1E15C4
S315100077E00D5CD802570D0743D0020090002E03D02F
S315100077F00120C007074317E00126002F06D11E26D9
S31510007800009FF64300210091002F0FD0381C01F085
S31510007810F3F9361A3A1C0099824020231B1A0F1CC2
S31510007820DF40174381400091F00705D5009A5008B4
S31510007830F907084300907F08BB4AB61A76089619CE
S31510007840013E3605ED050122D2071543391C281CC9
S3151000785001F0EAF9011C281C01F0E6F9032292074F
S31510007860111A281C01F0E0F94500391C281C01F0FA
S31510007870DBF9011C281C01F0D7F903229207111A13
S31510007880281C01F0D1F94500391C281C01F0CCF94F
S31510007890011C281C01F0C8F903229207111A281C92
S315100078A001F0C2F94500391C281C01F0BDF90490FD
S315100078B0281C784300990990281C01F0B5F9099AFB
S315100078C0121882420498099201D3002200E0012284
S315100078D081180491281C01F0A7F90C900498291C12
S315100078E04143281C0591099901F09EF9059A0C99B6
S315100078F012180592824201D3002200E00122891853
S31510007900059A0C9150420890CA430023002800D1D2
S3151000791001239A1803239B07D1180691281C01F0FE
S3151000792083F90B900698291C4143281C039108994A
S3151000793001F07AF9039A0B9912180392824201D335
S31510007940002200E0012289180B914A000399CB0FFF
S315100079501343079348000A90009901F065F90A9AB3
S315100079607A43009D07998018824201D8002200E0D0
S3151000797001220B1C6B43C018834201D8002300E080
S315100079800123D218794355180020954200D20120C0
S315100079900F90391C0A9801F047F92D1885420F9857
S315100079A001D3002200E00122009980180F90079859
S315100079B001F03AF92D1885420F9801D3002200E004
S315100079C0012280180F90391C079801F02DF9071C19
S315100079D00F983F18291C0A9801F026F90A990B1CD2
S315100079E07B43C0189842079B01D3002200E0012276
S315100079F06B43C018834201D8002300E00123D2183C
S31510007A00079B7B43D31802930020934200D2012098
S31510007A100E90081C391C01F007F9029A12188242BE
S31510007A200E98029201D3002200E0012280180E90D7
S31510007A30291C079801F0F8F8029A121882420E983B
S31510007A40029201D3002200E0012280180E90391C08
S31510007A50079801F0E9F80E994018029949420891E1
S31510007A60C2430023002900D101239A1803239B0740
S31510007A70D0180690281C01F0D7F820B407994D436A
S31510007A804019A842099D01D3002200E001223B1CA7
S31510007A906B43C018834201D8002300E00123D2189B
S31510007AA03B1C4B43D5180295954201D3002500E0A7
S31510007AB001250E9501BC01F0B7F8019A0899121824
S31510007AC00192824201D3002200E00122AD18381C37
S31510007AD001F0AAF8019A069912180192824201D36E
S31510007AE0002200E00122AA180D92381C01F09CF821
S31510007AF00D99019A40180121FF3151180122FF32C8
S31510007B008A4201D8002200E001221018490AC20553
S31510007B101143400A821911921091081C111C0CE095
S31510007B200000F07FEC920010FF030000002904DC37
S31510007B304B001A4301D000F003F812B0E0BD00006C
S31510007B4000B5212000F0C2FC0020014900BDC0464E
S31510007B500000F87F60B50A1C031CC80FC10750004F
S31510007B60400D41D0214DA84236D05D0DD2022A4398
S31510007B700125ED072A43DB0200D001231A431C4BD3
S31510007B80C018FE2825DA082500280BDA2D1A002041
S31510007B90202D07D301D9021C04E05308D207D20FB7
S31510007BA01A431F2520235E1B131CB340EA40C00551
S31510007BB01218D80F12180120C007984201D00020C1
S31510007BC000E001208243D01500D500220A43101C84
S31510007BD00BE0FF22D205F9E710014008014310031C
S31510007BE002D1002B00D00131081C60BDFF07000038
S31510007BF07FFCFFFF20B5C20F4300180E19020028A4
S31510007C001BD1002B1FD01E20C0430D1C0B0C02D005
S31510007C100E20C0431D1C2B0A01D008301D1C2B0939
S31510007C2001D004301D1CAB0801D002301D1C6B089E
S31510007C3000D0013001252B1A9940FF2800D10648A3
S31510007C400723DB01C0180B05090B0005D2071043EB
S31510007C500143181C20BDC0467F040000002203E02B
S31510007C60C2175040801AD2079D21030C01D110393A
S31510007C700004030E01D108390002030F01D10439A3
S31510007C800001830F01D102398000C30F02D10139DF
S31510007C9040000BD00306000AC90540181043D90F3F
S31510007CA040185B0002D301D101218843704700B50B
S31510007CB00321C94300F01CF800BD00B5002100F0F7
S31510007CC017F800BD00B50221C94300F011F800BD38
S31510007CD000B5012100F00CF800BD00B50021C94324
S31510007CE000F006F800BD00B5032100F001F800BD54
S31510007CF0E0B5C31702020125ED072A434000000E26
S31510007D009E26361A101CF040202E00DB0020CF07CE
S31510007D100FD5371C093F172F0BD82027BF1BBA408A
S31510007D20D70FC01902270F4003D0AA4201D140082D
S31510007D30400089104A1C964202DAD843684008432C
S31510007D405840C01AE0BDE0B581B0021C0B1C414082
S31510007D50CD0FED070105180552005B00160E0096B3
S31510007D60FF263606002B5AD0090D000D1F0E002ACD
S31510007D705BD0FF2F5ED0009EFF2E60D0BE197F3ED7
S31510007D8012021B02520D5F0D0123DB021A431F4321
S31510007D900B1C434350437943081819130918101C38
S31510007DA078430A13101800020A05120E10431A051A
S31510007DB00907090F114300D001210843C10F012201
S31510007DC05140761AFE2E27DA884001D1061C051C72
S31510007DD00822002E0BDA921B0026202A07D301D97F
S31510007DE0301C04E04108C007C00F08431F222021A1
S31510007DF08B1A011C9940D040F2058018CA0F8018C2
S31510007E000122D207914201D0002100E001218843CE
S31510007E10C61515D5002013E0FF20C00510E0B242AC
S31510007E200CD30120C005024309E0B34207D3012059
S31510007E30C0050343180201D1B24200D81A1C5008DB
S31510007E40284301B0E0BD00000122D2075140E0B541
S31510007E5085B004910F1C00220392021C0B1C051CFA
S31510007E60490046008E4206D23D1C01210391434033
S31510007E705A40534059000127FF07002957D0550093
S31510007E802E0E15023D436D08090E0191190253403D
S31510007E90DB17FF2E52D039434908D00FC20701987D
S31510007EA00092321A0020202A06DA02B4081CD040AA
S31510007EB020218A1A02BC9140002900D001210843D2
S31510007EC0002B19D12D18E80F012148408540311A91
S31510007ED028062D0AC20FAD18B84201D0002000E0C6
S31510007EE001208543C8052D18E80DFF2801DBFF2565
S31510007EF0ED05009868402DE02D1A281C00F07CFE38
S31510007F008540361A002D01D100952E1C28062D0A03
S31510007F10C20FAD18B84201D0002000E00120854301
S31510007F20F0052D1800D500250098284312E0BA4216
S31510007F3002D1002B00D10D1C281C0BE0039900293F
S31510007F4000D00498AA0005D10199FF2902D1002B6F
S31510007F5000D0014805B0E0BD0002807F20B5021CAC
S31510007F604B004000984209D10220FF252D06AB4256
S31510007F700DD800208A420AD0002B08D000208A4251
S31510007F8000DD01201140C90F48404000013820BDD6
S31510007F90E0B583B00A1C4240D20FD70743004A000F
S31510007FA0FF252D06002A62D0002B68D01E0E0196E2
S31510007FB006020120C00706430902014301980296F2
S31510007FC00091FF2860D0160EFF2E66D0019A0099F8
S31510007FD0951B7E357F2636064E403009361A301CE4
S31510007FE000F022FEC143301C00F01EFE4600009930
S31510007FF0301C00F019FEC143301C00F015FE46007F
S315100080000099301C00F010FEC143301C00F00CFE2D
S31510008010011C029800F008FE4000C10F01225140D9
S315100080206D1AFE2D20DA884001D1051C071C082187
S31510008030002D0BDA491B0025202907D301D9281C4E
S3151000804004E04108C007C00F08431F212022521A1E
S31510008050031C9340C840E9054018D90F4018C515B0
S3151000806000D5002038431DE0FF20C005FAE7FF20A9
S31510008070C0050743002B0BD0AB420CD908E0AA422F
S3151000808009D90948074306E058080743AA4202D30C
S31510008090012080020743381C04E0AA4200D10022C6
S315100080A05008384303B0E0BD0004807F8446830740
S315100080B004D0013A13D301700130F8E7083A08D317
S315100080C009060B0A19430B0C19430B1C0AC0083A74
S315100080D0FCD2083203D001700130013AFBD1604660
S315100080E07047E1B4121F39DB850713D0AD0F0B783B
S315100080F0491C0370401C022D09D80B78491C0370CB
S31510008100401C022D03D00B78491C0370401C5219D9
S31510008110121F23DB8D072ED1083A13DB143A0BDB23
S31510008120E8C9E8C0E8C9E8C0203AF9DA131C1033E8
S3151000813002DBE8C9E8C0103A143203DBA8C9A8C0AC
S315100081400C3AFBDA083209DB121F04DA0B68091D38
S315100081500360001D02E028C928C0121F121D60D03E
S315100081600B780370022A5CDB4B784370022A58DDC9
S315100081708B78837055E0AD0F0326B1430E68091D49
S31510008180022D1ADC33D00C2A0CDB0C3A330A60C9E8
S315100081902F063B432D0A37063D4328C0083AF5DA29
S315100081A00C3208DB350A0E68091D37063D4305609B
S315100081B0001D121FF6DAC91ED0E70C2A0CDB0C3A8A
S315100081C0330E60C92F023B432D0E37023D4328C0A4
S315100081D0083AF5DA0C3208DB350E0E68091D37023F
S315100081E03D430560001D121FF6DA491EB6E70C2A3C
S315100081F00CDB0C3A330C60C92F043B432D0C3704AF
S315100082003D4328C0083AF5DA0C3208DB350C0E6807
S31510008210091D37043D430560001D121FF6DA891E3D
S315100082209CE7E1BC7047000080B593B00F1C0E921E
S31510008230002200928E4A0BA98CC18E4A8E4B8F4912
S31510008240069208AA1F1C8AC283688D4AC16887696C
S315100082500593436902924268079101690193C369C4
S3151000826000200F90039010901190049012909F424E
S3151000827025D0844A781ABA4201D3934201D8424291
S3151000828000927C4ABA4201D393420CD883180693C3
S31510008290089B7B4FC218099B0892C2180A92002F9E
S315100082A001D0C21902920B9F8F4202D3019ABA4291
S315100082B012D8019A91420FD0391A0B910CE07248DC
S315100082C0811A0391714810910599401A11907048BE
S315100082D00799431A049312936E48009947186E48EB
S315100082E042186E480192002801D0091800E0111CAE
S315100082F00498059107900DE007CF079B1818069B69
S315100083009C4600F086FD05988742F5D1019800211C
S315100083100791059001988742F5D161480099471851
S315100083206048421860480692421807921DE0069867
S31510008330874201D2049B00E0039B01CF1B180593D3
S3151000834005CF03990918181C089B01929C4600F04A
S3151000835060FD0298002808D00698874205D3029A35
S3151000836001990598944600F054FD07988742DED18E
S315100083700998002829D04D48009947184C484218AA
S315100083804C480892421809921CE00898874201D27C
S31510008390049B00E0039B01CF1B18079305CF03999D
S315100083A00918181C0A9B9C4600F033FD011C029804
S315100083B0002807D00898874204D3029A0798944653
S315100083C000F027FD09988742DFD13B48002844D0AA
S315100083D03A48009943183A48089347183948099774
S315100083E042180A929F4238D037480499081A38180A
S315100083F009902EE00A980FAA017801300A90880693
S31510008400800F8000825801CB08931318D8789A7879
S315100084105F78000612043F023A431F781043074361
S31510008420080601D5002F14D08807000F0FAA82580E
S31510008430002A0ED00820084000D0BF00BF18002820
S3151000844000D0BF101F703F0A5F703F0A9F703F0A2F
S31510008450DF70089B09998B42CCD10CA88CC8391CAB
S31510008460181C0B9B9C4600F0D4FC13B080BDC04674
S31510008470E1840010AD80001000000000E3800010C1
S3151000848000000000188E001080000010548E00109E
S3151000849000080008188E0010308E0010308E001064
S315100084A0308E0010488E0010548E0010548E00101E
S315100084B0548E0010548E001000000000188E00100C
S315100084C0188E0010188E0010000000000349086076
S315100084D07047024870470149086870476C140008D5
S315100084E080B58AB0071C244802910192002801D059
S315100084F0C046C0462148002801D000F089FC20481B
S31510008500002801D0C046C0461E48002801D0C046EB
S31510008510C0461D48002801D0C046C0461B4800284A
S3151000852001D0C046C0461A48002801D0C046C046F1
S315100085301848002801D0C046C0461748002801D068
S31510008540C046C046002F0DD169468F70CF70C81C2B
S315100085508A1C3B1C391C03AF0FC703AA01920832B1
S31510008560029201270D4B019A0299381C1A60F7F7EF
S31510008570D1FE00F0E7FBC04600000000118E00108F
S3151000858000000000000000000000000000000000D5
S315100085900000000000000000000000007014000839
S315100085A020B5051C002902D000F00AF807E0081CC7
S315100085B0002B04D1291C101C00F064FB002120BDE7
S315100085C0E0B59BB0179018911E1C151C1A4300D1CC
S315100085D0B3E21193159500221692002B01D0301C90
S315100085E000E0281C00F008FB331C01D0002200E03C
S315100085F0202217186A1EE14883412A40334013434C
S31510008600189B06D13F22D21B1798191C00F082FB2B
S3151000861093E2179AAA42B34102D20020011C8CE2BF
S31510008620391C01D1012088E2189A202F00DAECE0DB
S31510008630002A4ED1179A159E0B924022D71B202244
S31510008640D21B964001D1012038E0CD4B9D1B311C29
S31510008650281C00F0E9FA4142281C00F0E5FA450012
S31510008660311C281C00F0E0FA4142281C00F0DCFA0C
S315100086704500311C281C00F0D7FA4142281C00F096
S31510008680D3FA4500311C281C00F0CEFA4142281CB2
S3151000869000F0CAFA8500033D311C281C00F0C4FA0C
S315100086A03218AD1A311C281C00F0BEFA3218AD1A59
S315100086B0311C281C00F0B8FA3218A81A7E1E0B9925
S315100086C000F0B2FA0B9B1A1A52088018F0400021DB
S315100086D033E2302F00DA98E0100C00901004179A4D
S315100086E0000C0190100C03901004159A000C0490C5
S315100086F01004060C0E964022D71B2022D21B964041
S3151000870001D1012538E09E4B9D1B311C281C00F021
S315100087108BFA4142281C00F087FA4500311C281CB0
S3151000872000F082FA4142281C00F07EFA4500311C06
S31510008730281C00F079FA4142281C00F075FA450011
S31510008740311C281C00F070FA4142281C00F06CFA0B
S315100087508500033D311C281C00F066FA3218AD1A4C
S31510008760311C281C00F060FA3218AD1A311C281C76
S3151000877000F05AFA3218AD1A00997E1E281C0A917A
S3151000878000F052FA0A9A0E9B121A52088218F240F8
S315100087901204120C0F925A43009901988A1A170460
S315100087A00743391C281C00F03FFA3A1A520882185F
S315100087B0F2400E9B1204120C06925A430399BA1AEF
S315100087C0120411431491281C00F02EFA14990E9BD2
S315100087D00A1A52088218F240171C5A438A1A049928
S315100087E0120411431391281C00F01EFA13990A1A49
S315100087F052088218F2401204120C0F9906983B0484
S315100088001A4309040143101C97E1381112900421F0
S31510008810081A0890002F19D0002F13D0159D1F2F5E
S3151000882006D93B1C203B9D4000212E1C0D1C09E047
S31510008830119E2B1CBE40291C2025ED1BE9400E4322
S31510008840BB401D1C15950023169311963D072D0F41
S31510008850130C20D11798002D01D118990FE0031C85
S315100088601F2D04D9203DAB40191C002007E0AA405B
S315100088702026761BF0400243111CAB40181C129E9A
S31510008880013E12960B1C0A0C010C0604360C01A8AC
S3151000889046C000202AE000210291002D1ED010268D
S315100088A0761BF3401804000C02901798002D01D186
S315100088B018990FE0031C1F2D04D9203DAB40191C3D
S315100088C0002007E0111CA9402022521BD040014372
S315100088D0AB40181C179018910A1C0B0C1004179A11
S315100088E0000C0190100C03901004000C0490180456
S315100088F0000C00901198159A050C05950104090CA9
S315100089000991100C0D901004000C0E900021199175
S315100089101A9112986A1E2A4001D0102100E00F21E8
S3151000892010912022521A9540079001D1012140E062
S31510008930134B5E1B291C301C00F076F94142301C8B
S3151000894000F072F94600291C301C00F06DF9414206
S31510008950301C00F069F94600291C301C00F064F93F
S315100089604142301C00F060F94600291C301C00F012
S315100089705BF94142301C00F057F903E0000000009B
S31510008980FFFFFF7F8600F01E0C90291C00F04CF9AB
S315100089900C9B2A18981A0C90291C00F045F90C9B70
S315100089A02A18981A0C90291C00F03EF90C9B2A18CC
S315100089B0991A07980C910501029805998842009911
S315100089C003D101231B040E1C16E0060410980E4357
S315100089D0471E311C0C9800F027F9331A5B08C31890
S315100089E00598FB401F1C4743F61B099F01985F43E0
S315100089F032040243974208D90598013B36180120E4
S31510008A0000048642F1D3099F5F430898002604218B
S31510008A1001400AD00E9E5E430498861B3004000C5B
S31510008A200490360C76423604360C0898052101401F
S31510008A300BD00D9A5A430398821A961B3004000CD9
S31510008A400390360C76423604360C0198C21B911BE5
S31510008A500804000C01900A0C059F56423604360C89
S31510008A605F430098C21B961B3004000C0090320C1A
S31510008A70029856423604360C861B320C2AD00798BA
S31510008A80013B002826D008980421014007D00E98F3
S31510008A9004994218B6183004000C0490360C089845
S31510008AA00521014007D00D9803994218B6183004D5
S31510008AB0000C0390360C099801994218B618300428
S31510008AC0000C019005980099360C4218B61830041F
S31510008AD0000C00901E1C0027002D0DD01F2D05D94F
S31510008AE02A1C203A93401F1C002605E02022501B0A
S31510008AF01F1CC740AB401E1C199B33431A9E00987F
S31510008B003E430004000C02900198079A0004000CE2
S31510008B100090039819930004000C019004981A967B
S31510008B200004000C039000210491103D501E079084
S31510008B30002A00D040E7181C311C1BB0E0BDE0B580
S31510008B408BB0059006910004000C160C1104090C4C
S31510008B50051C4D4309920A932A04120C2B0C051C72
S31510008B60754303962E04360C9B192F0C0A9D2E0462
S31510008B70360C051C754304962E04360CBF192E0CA4
S31510008B800A9D2D0C45437619059D280C03B40D1C22
S31510008B9045432904090C02915B182D0C7F19059980
S31510008BA0051C4D4306992804000C03903F182D0C04
S31510008BB0761901BC484336180798009D0004000C2E
S31510008BC045432904090C03917F182D0C0499761935
S31510008BD0484336180798050C02BC4D4376191D0CF0
S31510008BE07F193D0C76193F043F0C31043943089127
S31510008BF0180410430BB0E0BD002801D1202012E06C
S31510008C001F22010C01D0081C103A010A01D0081CC1
S31510008C10083A010901D0081C121F810801D0081C4E
S31510008C20921E4108501A704760B50204120C0B04CC
S31510008C301B0C090C151C4D43000C061C5E435A43B5
S31510008C40120C33041B0C9A182B041B0C9A18120CBA
S31510008C5048438018310C0818290C081860BD00000C
S31510008C6000B5011C0A2000F031F808BC184700B501
S31510008C70011C0A2000F02AF8021C081C111C08BC52
S31510008C801847000060B400230125021C04D10E4AC7
S31510008C90002A10D060BC1047914207D3891A5B197D
S31510008CA04E08B242F8D252006D00F5E7012D02D0FF
S31510008CB052086D08F0E7181C60BC704700B5FFF746
S31510008CC0E1FF081C08BC18470000000060B50E1C28
S31510008CD000DC4942051C00DC4042FFF7D3FF002EA2
S31510008CE000DA4942F60FED0FAE4200D0404260BCAA
S31510008CF008BC184700B5FFF7E9FF081C08BC184761
S31510008D0020B5151C002B00D001235A422A4300F02F
S31510008D1001F820BD60B50D1C011C0023181C402A4B
S31510008D200CD2161C203E2B1CF340002E06DA281CF3
S31510008D30D0400B1CD34071428D402B43011C181C94
S31510008D4060BD000020B5051C0748002802D0281C6D
S31510008D50C046C0460548002801D0C046C046281C5B
S31510008D6000F006F820BDC04600000000000000001C
S31510008D7060B582B0061C00F049F810490D6803E092
S31510008D80286800F047F86D68002DF9D10C480028C6
S31510008D9001D0C046C04600F03AF8311C022000F05F
S31510008DA011F8FEE760B5061C044D00F02FF8286890
S31510008DB02E60706000F02BF860BDC0467414000879
S31510008DC00000000080B5074FBC467F46FF1DBE461B
S31510008DD00027604702D3FFF779FBF84380BC08BC35
S31510008DE01847C0468115000880B5074FBC467F4618
S31510008DF0FF1DBE460027604703D3FFF767FBF84306
S31510008E00F94380BC08BC18478115000870477047A5
S31510008E107047604700470847B00E00080000000082
S31510008E20C8050000781400080000000000000000CB
S31510008E300008000800930010AD060000AD0E0008F3
S31510008E40AD9900100000000080150008F89200107F
S31510008E500400000000080008FFFF000800000000E2
S31510008E6000000000000000000000000000000000EC
S31510008E7000000000000000000000000000127A0050
S31510008E80000000000024F4000080000000800000B4
S31510008E90008000002E2E5C2E2E5C7372635C73793C
S31510008EA07374656D5C7265765F645C7379737465F3
S31510008EB06D5F747669696265316D5F636D30706C74
S31510008EC075732E63000000002E2E5C2E2E5C7372BE
S31510008ED0635C6170706C69636174696F6E5C546118
S31510008EE0736B5363686564756C65722E630000005E
S31510008EF063000000010000000000000000000000F8
S31510008F00000000000000000000000000000000004B
S31510008F100000000003000000000000000000000038
S31510008F200000000000000000030000000000000028
S31510008F300300000000000000030000000000000015
S31510008F400300000000000000030000000100000004
S31510008F500000000000000000020000000101606037
S31510008F600000000000063140010000000000000073
S31510008F7008000000150000000000000000000000BE
S31510008F8000000000000000000000000000000000CB
S31510008F9000000000000000000000000000000000BB
S31510008FA00006314000000000010000000E00000025
S31510008FB01500000000000000000000000000000086
S31510008FC0000000000000000000000000000000008B
S31510008FD00000000000000000000000003B0003003D
S31510008FE001000000000020BC010020B8100001E0C4
S31510008FF002000080200001E0030000800000000055
S31510009000E80300000000000000000000000000005F
S3151000901000000000000000002E2E5C2E2E5C2E2E6E
S315100090205C636F6D6D6F6E5C7372635C6472697690
S315100090306572735C7379737469636B5C63795F7360
S3151000904079737469636B2E63002E2E5C2E2E5C2E44
S315100090502E5C636F6D6D6F6E5C7372635C647269A8
S31510009060766572735C7379737469636B5C63795F2D
S315100090707379737469636B2E63002E2E5C2E2E5CCF
S315100090802E2E5C636F6D6D6F6E5C7372635C6472B3
S3151000909069766572735C7379737469636B5C6379F3
S315100090A05F7379737469636B2E63000000000000B0
S315100090B0000000000000000000000000000000009A
S315100090C0000000002E2E5C2E2E5C2E2E5C636F6D23
S315100090D06D6F6E5C7372635C647269766572735CD5
S315100090E07363625C63795F7363625F6932632E6375
S315100090F0002E2E5C2E2E5C2E2E5C636F6D6D6F6EA9
S315100091005C7372635C647269766572735C736362B6
S315100091105C63795F7363625F6932632E630000007C
S315100091200203040506080C100000000000000000F1
S315100091300000000000000000000000000000000019
S315100091400000000000000000000000000000000009
S3151000915000000000000000000000000000000000F9
S3151000916000000000000000000000000000000000E9
S31510009170000000002E2E5C2E2E5C7372635C6472EF
S3151000918069766572735C737973636C6B5C63795F14
S31510009190737973636C6B2E630000000000502A47CE
S315100091A000F4624700C89647002CC94700E80048FB
S315100091B0E02D903AE02D903AE02D903AE02D903A3D
S315100091C0AF5A993A0000803B0000003C0000803CFA
S315100091D00000003D0000803D0000003E0000803E83
S315100091E00000003F0000803F00000040000080406B
S315100091F00000004100000000000000000000000018
S31510009200000000002E2E5C2E2E5C7372635C64725E
S3151000921069766572735C737973636C6B5C63795F83
S31510009220737973636C6B2E68002E2E5C2E2E5C7316
S3151000923072635C647269766572735C737973636C5E
S315100092406B5C63795F737973636C6B2E68002E2E7B
S315100092505C2E2E5C7372635C647269766572735CE5
S31510009260737973636C6B5C63795F737973636C6B1F
S315100092702E68002E2E5C2E2E5C7372635C647269EF
S31510009280766572735C737973636C6B5C63795F7309
S315100092907973636C6B2E68002E2E5C2E2E5C7372A7
S315100092A0635C647269766572735C737973636C6BF5
S315100092B05C63795F737973636C6B2E6800000000D2
S315100092C0000000002E2E5C2E2E5C7372635C64729E
S315100092D069766572735C737973636C6B5C63795FC3
S315100092E0737973636C6B2E630000000057361D098B
S309100092F0FEB69377A6
S309100092F8C04670479F
S315100093000000000006000000000000000000000041
S315100093100000000000000000000000000000000037
S315100093200000000000000000000000000000000027
S3151000933000000000380800085D0300105D030010EF
S315100093405D0300105D0300105D0300105D03001047
S315100093505D0300105D0300105D0300105D03001037
S315100093605D0300105D0300105D0300105D03001027
S315100093705D0300105D0300105D0300105D03001017
S315100098B05D0300105D0300105D030010120103002C
S315100098C0010001001100030001000000000000006B
S315100098D09B110010000000000000000000000000B6
S315100098E00000090004010100000000000000000053
S315100098F00000000002000000E48F001002000000CB
S31510009900EC8F0010FFFFFF1F020201010700000786
S315100099100000000000000000040400000000524097
S315100099200000000000000000000000000000000021
S31510009930000000000002524000000000000000007D
S31510009940000000000000000000000000000452406B
S3151000995000000000000000000000000000000000F1
S31510009960000000000000544000000000000000004D
S31510009970000000000000000000000000000254403B
S3151000998000000000000000000000000000000000C1
S315100099900000000000045440000000000000000019
S312100099A000000000000000000000000001A3
S5050000099C55
S7051000008E5C
